:020000040800F2
:1000000000070020E5040008A51E00085D1E00088A
:10001000851E00085D1E00087D1E0008E70400081C
:10002000E7040008E7040008E7040008A542000808
:10003000E7040008E7040008E7040008E7040008F4
:10004000E7040008E7040008E7040008E7040008E4
:10005000E7040008E7040008354700085D4700088A
:1000600085470008AD470008D5470008E7040008A9
:10007000E7040008E7040008E7040008E7040008B4
:10008000E7040008E7040008E7040008A12E0008C0
:100090000D2F0008612F0008B52F0008FD4700084C
:1000A000E7040008E7040008E7040008E704000884
:1000B0000D490008E7040008E7040008E704000809
:1000C000E7040008E7040008E7040008E704000864
:1000D000E7040008D1480008E5480008E7040008E4
:1000E00061480008E7040008E7040008E704000886
:1000F000E7040008E7040008E7040008E704000834
:10010000E7040008E7040008E7040008E704000823
:10011000E7040008E7040008E7040008E704000813
:10012000E7040008E7040008E7040008E704000803
:10013000E7040008E7040008E7040008E7040008F3
:10014000E7040008E7040008E7040008E7040008E3
:10015000E7040008E7040008E7040008F94800087D
:10016000E7040008E7040008E7040008E7040008C3
:10017000E7040008E7040008E7040008E7040008B3
:10018000E7040008E7040008E7040008E7040008A3
:10019000E7040008E7040008E7040008E704000893
:1001A000E7040008E7040008E7040008E704000883
:1001B000E7040008E7040008E7040008E704000873
:1001C000E7040008E7040008E7040008E704000863
:1001D000E7040008E7040008E7040008E704000853
:1001E00053B94AB9002908BF00281CBF4FF0FF319E
:1001F0004FF0FF3000F074B9ADF1080C6DE904CE9A
:1002000000F006F8DDF804E0DDE9022304B07047F1
:100210002DE9F047089D04468E46002B4DD18A42B9
:10022000944669D9B2FA82F252B101FA02F3C2F1EC
:10023000200120FA01F10CFA02FC41EA030E94407D
:100240004FEA1C48210CBEFBF8F61FFA8CF708FB9E
:1002500016E341EA034306FB07F199420AD91CEB76
:10026000030306F1FF3080F01F81994240F21C81A8
:10027000023E63445B1AA4B2B3FBF8F008FB1033F0
:1002800044EA034400FB07F7A7420AD91CEB040425
:1002900000F1FF3380F00A81A74240F207816444F5
:1002A000023840EA0640E41B00261DB1D44000237A
:1002B000C5E900433146BDE8F0878B4209D9002DDE
:1002C00000F0EF800026C5E9000130463146BDE868
:1002D000F087B3FA83F6002E4AD18B4202D38242D2
:1002E00000F2F980841A61EB030301209E46002D81
:1002F000E0D0C5E9004EDDE702B9FFDEB2FA82F2D6
:10030000002A40F09280A1EB0C014FEA1C471FFA33
:100310008CFE0126200CB1FBF7F307FB131140EA1A
:1003200001410EFB03F0884208D91CEB010103F1E7
:10033000FF3802D2884200F2CB804346091AA4B2A9
:10034000B1FBF7F007FB101144EA01440EFB00FE7D
:10035000A64508D91CEB040400F1FF3102D2A645E2
:1003600000F2BB800846A4EB0E0440EA03409CE781
:10037000C6F12007B34022FA07FC4CEA030C20FA2E
:1003800007F401FA06F31C43F9404FEA1C4900FA4E
:1003900006F3B1FBF9F8200C1FFA8CFE09FB1811CB
:1003A00040EA014108FB0EF0884202FA06F20BD93E
:1003B0001CEB010108F1FF3A80F08880884240F28E
:1003C0008580A8F102086144091AA4B2B1FBF9F0D2
:1003D00009FB101144EA014100FB0EFE8E4508D9CD
:1003E0001CEB010100F1FF346CD28E456AD9023852
:1003F000614440EA0840A0FB0294A1EB0E01A14237
:10040000C846A64656D353D05DB1B3EB080261EBA4
:100410000E0101FA07F722FA06F3F1401F43C5E97E
:10042000007100263146BDE8F087C2F12003D840B4
:100430000CFA02FC21FA03F3914001434FEA1C47F6
:100440001FFA8CFEB3FBF7F007FB10360B0C43EAE8
:10045000064300FB0EF69E4204FA02F408D91CEB98
:10046000030300F1FF382FD29E422DD90238634496
:100470009B1B89B2B3FBF7F607FB163341EA034136
:1004800006FB0EF38B4208D91CEB010106F1FF3885
:1004900016D28B4214D9023E6144C91A46EA00467C
:1004A00038E72E46284605E70646E3E61846F8E60E
:1004B0004B45A9D2B9EB020864EB0C0E0138A3E757
:1004C0004646EAE7204694E74046D1E7D0467BE738
:1004D000023B614432E7304609E76444023842E7B0
:1004E000704700BF02E000F000F8FEE772B6374840
:1004F00080F30888364880F3098836483649086012
:1005000040F20000CCF200004EF63471CEF2000151
:100510000860BFF34F8FBFF36F8F40F20000C0F24F
:10052000F0004EF68851CEF200010860BFF34F8F05
:10053000BFF36F8F4FF00000E1EE100A4EF63C71F2
:10054000CEF200010860062080F31488BFF36F8F9D
:1005500003F006FF03F098FF4FF055301F491B4A88
:1005600091423CBF41F8040BFAE71D49184A9142F9
:100570003CBF41F8040BFAE71A491B4A1B4B9A424D
:100580003EBF51F8040B42F8040BF8E7002018496D
:10059000184A91423CBF41F8040BFAE703F0E4FE2D
:1005A00003F0C6FF144C154DAC4203DA54F8041B9B
:1005B0008847F9E700F042F8114C124DAC4203DADB
:1005C00054F8041B8847F9E703F0CCBE000700206D
:1005D000002300200000000808ED00E000010020DA
:1005E00000070020584C0008002300202C23002086
:1005F0003023002080400020E0010008E0010008D6
:10060000E0010008E00100082DE9F04F2DED108A0F
:10061000C1F80CD0C3689D46BDEC108ABDE8F08FD0
:10062000002383F311882846A047002003F0A2FA94
:10063000FEE703F015FA00DFFEE70000F8B501F071
:1006400095F803F0CDFD074603F018FE0546D0BB34
:10065000224B9F4237D001339F4237D0204B27F0A7
:10066000FF029A4235D1F8B200F032FE2E4642F235
:10067000107400F033FE08B10024264601F070FB30
:1006800020B1032000F082F80024264635B1154B36
:100690009F4203D003F0EAFD00242646002003F029
:1006A000A9FD0EB100F088F801F0F2F90E4801F052
:1006B00083F900F071FE01F0B7F8204600F0D0F8A1
:1006C00000F07AF8F9E72E460024D2E70446012626
:1006D000CFE7064641F28834CBE700BF010007B000
:1006E000000008B0263A09B02C4A000808B501F00D
:1006F00067F8A0F120035842584108BD07B541F200
:100700001203022101A8ADF8043001F077F803B01C
:100710005DF804FB38B5302383F31188174803686C
:100720000BB103F0F3FA164A144800234FF47A7120
:1007300003F0E2FA002383F31188124C236813B10B
:100740002368013B2360636813B16368013B636006
:100750000D4D2B7833B963687BB9022001F022F983
:10076000322363602B78032B07D163682BB90220F7
:1007700001F018F94FF47A73636038BD302300201C
:10078000150700085024002048230020084B18704B
:1007900003280CD8DFE800F008050208022001F069
:1007A000F7B8022001F0EAB8024B00225A60704705
:1007B000482300205024002010B501F0D1FA30B1B8
:1007C000204B03221A70204B00225A6010BD1F4B91
:1007D0001F4A1C4619680131F8D004339342F9D1FD
:1007E00062681C4B9A42F1D91B4B9B6803F1006372
:1007F00003F580339A42E9D203F00CFD03F01EFDAD
:10080000002001F02BF80220FFF7C0FF134B1A6CF9
:1008100000221A64196E1A66196E596C5A64596E60
:100820005A665B6E72B64FF0E0233021C3F8084D74
:10083000D4E9003281F311889D4683F3088810477C
:10084000C4E700BF48230020502400200000010816
:1008500020000108FFFF00080023002000380240AC
:100860002DE9F04F93B0AC4B00902022FF210AA855
:100870009D6801F0B7F8A94A1378A3B9A8480121E7
:1008800003601170302383F3118803680BB103F008
:100890003DFAA44AA24800234FF47A7103F02CFADF
:1008A000002383F31188009B13B19F4B009A1A60B9
:1008B0009E4A009C1378032B1EBF002313709A4A94
:1008C0004FF0000A18BF5360D3465646D146012068
:1008D00001F05EF824B1944B1B68002B00F01582E8
:1008E000002000F06DFF0390039B002B01DA00F065
:1008F00007FE039B002BEDDB012001F03FF8039B7B
:10090000213B162BE3D801A252F823F06909000815
:1009100091090008250A0008CF080008CF08000840
:10092000CF080008AF0A00087F0C0008990B0008E8
:10093000FB0B0008230C0008490C0008CF08000836
:100940005B0C0008CF080008CD0C0008090A00085D
:10095000CF080008110D000875090008090A0008F1
:10096000CF080008FB0B00080220FFF7BFFE00289D
:1009700040F0F581009B0221BAF1000F08BF1C4630
:1009800005A841F21233ADF8143000F037FF9EE7AE
:100990004FF47A7000F014FF071EEBDB0220FFF724
:1009A000A5FE0028E6D0013F052F00F2DA81DFE83E
:1009B00007F0030A0D10133605230593042105A83B
:1009C00000F01CFF17E054480421F9E758480421BF
:1009D000F6E758480421F3E74FF01C08404600F0C2
:1009E0003FFF08F104080590042105A800F006FF68
:1009F000B8F12C0FF2D1012000FA07F747EA0B0BF0
:100A00005FFA8BFB4FF0000901F038F826B10BF0CC
:100A10000B030B2B08BF0024FFF770FE57E7464877
:100A20000421CDE7002EA5D00BF00B030B2BA1D199
:100A30000220FFF75BFE074600289BD0012000F054
:100A40000DFF0220FFF7A2FE00265FFA86F840465F
:100A500000F014FF044690B10021404600F01EFF54
:100A600001360028F1D1BA46044641F212130221A0
:100A700005A8ADF814303E4600F0C0FE27E701207F
:100A8000FFF784FE2546244B9B68AB4207D92846D6
:100A900000F0E6FE013040F067810435F3E7234BB8
:100AA00000251D70204BBA465D603E46ACE7002E27
:100AB0003FF460AF0BF00B030B2B7FF45BAF022016
:100AC000FFF764FE322000F07BFEB0F10008FFF675
:100AD00051AF18F003077FF44DAF0F4A926808EB4F
:100AE000050393423FF646AFB8F5807F3FF742AF2C
:100AF000124B0193B84523DD4FF47A7000F060FE8D
:100B00000390039A002AFFF635AF019B039A03F87E
:100B1000012B0137EDE700BF002300204C2400200B
:100B2000302300201507000850240020482300200F
:100B300004230020082300200C2300204C23002045
:100B4000C820FFF7D3FD074600283FF413AF1F2D41
:100B500011D8C5F1200242450AAB25F0030028BF99
:100B6000424683490192184400F02AFF019A8048C6
:100B7000FF2100F037FF4FEAA8037D490193C8F336
:100B80008702284600F036FF064600283FF46DAF86
:100B9000019B05EB830537E70220FFF7A7FD00283F
:100BA0003FF4E8AE00F09AFE00283FF4E3AE0027E1
:100BB000B846704B9B68BB4218D91F2F11D80A9BAF
:100BC00001330ED027F0030312AA134453F8203C3C
:100BD00005934046042205A901F07AF804378046BF
:100BE000E7E7384600F03CFE0590F2E7CDF81480C8
:100BF000042105A800F002FE06E70023642104A8F2
:100C0000049300F0F1FD00287FF4B4AE0220FFF75A
:100C10006DFD00283FF4AEAE049800F047FE05904D
:100C2000E6E70023642104A8049300F0DDFD00281A
:100C30007FF4A0AE0220FFF759FD00283FF49AAEE2
:100C4000049800F043FEEAE70220FFF74FFD00287A
:100C50003FF490AE00F052FEE1E70220FFF746FDC0
:100C600000283FF487AE05A9142000F04DFE0421B2
:100C70000746049004A800F0C1FD3946B9E73220C8
:100C800000F09EFD071EFFF675AEBB077FF472AE47
:100C9000384A926807EB090393423FF66BAE022095
:100CA000FFF724FD00283FF465AE27F003074F440B
:100CB000B9453FF4A9AE484600F0D2FD04210590A5
:100CC00005A800F09BFD09F10409F1E74FF47A70E3
:100CD000FFF70CFD00283FF44DAE00F0FFFD0028AB
:100CE00044D00A9B01330BD008220AA9002000F04F
:100CF00081FE00283AD02022FF210AA800F072FECF
:100D0000FFF7FCFC1C4802F03BFF13B0BDE8F08F7E
:100D1000002E3FF42FAE0BF00B030B2B7FF42AAE0B
:100D20000023642105A8059300F05EFD0746002816
:100D30007FF420AE0220FFF7D9FC804600283FF464
:100D400019AEFFF7DBFC41F2883002F019FF05987D
:100D500000F0AAFE464600F091FE3C46B7E5064686
:100D600052E64FF0000905E6BA467EE637467CE6D5
:100D70004C23002000230020A0860100094A1368AC
:100D800049F2690099B21B0C00FB01331360064B5A
:100D9000186844F2506182B2000C01FB0200186036
:100DA00080B27047202300201C23002010B50021B2
:100DB0001022044600F016FE034B03CB2060616056
:100DC0001868A06010BD00BF107AFF1F2DE9F04128
:100DD000ADF54E7D0DF134086CAC40F2751207464E
:100DE0000D460EA80021C8F8001000F0FBFD4FF4DE
:100DF000C4720021204600F0F5FD01F055F8274BA4
:100E00004FF47A72B0FBF2F0186093E80700012308
:100E100084E807000DF5E9702382FFF7C7FF4FF262
:100E200003631F49238407A803F0F8FD172384F800
:100E300032310DF2E32207AB0DF12C0C1E4603CE2E
:100E4000664510605160334602F10802F6D1306801
:100E50001060B188B3799371918020464146012298
:100E600000F03CFE00230393AB7E029305F11903CF
:100E7000019380B20123CDE904800093E97E05A3AC
:100E8000D3E90023384601F059FB0DF54E7DBDE84E
:100E9000F08100BF9E6AC421818A46EE582400205A
:100EA0003C4A00082DE9F043224DBBB000F0FCFFA6
:100EB000AB6840F2ED22C31A934232D906AFA86064
:100EC0002B4628220021384601F0E8FC05F10E00EF
:100ED00000F080FD002604465FFA80F905F10E0857
:100EE000F3B2F100994501F1280107D908EB060397
:100EF0000822384601F0D2FC0136F1E7082301222E
:100F0000CDE9023205340C4B0193A4B23023009397
:100F1000CDE9047405A3D3E90023297B074801F038
:100F20000DFB3BB0BDE8F083AFF3008078F6339F54
:100F300093CACD8DA0340020AD3400207034002041
:100F4000F0B58B8A013B9BB2C92BC9B006460C4653
:100F500047D8274D2F7B27BB05F10C0300930822B0
:100F60003B463946204601F05DFB7B1CFAB2D900B6
:100F70001F46A38A013B9A4205DA0E322A440092A8
:100F800000230822EEE700230022C5E90023002306
:100F9000AB6085F8D730C5F8D8302B7B0BB9E37E32
:100FA0002B738122002106AD27A800F01BFD012232
:100FB000294627A800F060FE00230393A37E029336
:100FC00004F1190380B201932823CDE90450E17E96
:100FD0000093304604A3D3E9002301F0AFFAFFF7F2
:100FE00061FF49B0F0BD00BF26417272DF25D7B75F
:100FF000A034002070B50D4614461E4601F0FAF9E3
:1010000050B9022E10D1012C0ED112A3D3E9002326
:10101000C5E90023012007E0282C10D005D8012CB9
:1010200009D0052C0FD0002070BD302CFBD10BA3B4
:10103000D3E90023ECE70BA3D3E90023E8E70BA3F4
:10104000D3E90023E4E70BA3D3E90023E0E700BFE3
:10105000AFF30080401DA12026812A0B78F6339F34
:1010600093CACD8D9E6AC421818A46EE2641727252
:10107000DF25D7B7F017304A39059E562DE9F04FD6
:101080008DB002AF80460D4601F0B4F90446002849
:101090005CD12B7E022B1BD1EB8A012B18D100F0E7
:1010A00003FF0646FFF76AFE03464FF4C870DFF8F9
:1010B0001C92B3FBF0F206F5167602FB103316FA1B
:1010C00083F3C9F80030EB7E33B97B4B00221A70F2
:1010D0002C37BD46BDE8F08FAB8AE6B2013BB34288
:1010E00004F101040CD907F108031E44E100009645
:1010F0000023082201F0F801284601F093FAEBE7FB
:1011000007F11800FFF752FE324607F1180107F108
:10111000080003F051FC0028D7D10F2E08D8664BE9
:101120001E70D9F80030A3F51673C9F80030CFE768
:10113000FB1DF8710146009307220346284601F083
:1011400071FAF979404601F04DF9C1E7EB8A282B95
:1011500026D010D8012B1ED0052BB9D1BFF34F8F4D
:101160005649574BCA6802F4E0621343CB60BFF3A1
:101170004F8F00BFFDE7302BAAD16B7E514C01335E
:10118000627BDBB29342E94603D1EA7E237B9A423B
:101190000BD0CD469CE729464046FFF717FE97E760
:1011A00029464046FFF7CCFE92E74FF0000807F1D2
:1011B0001803A7F8188010220093414601232846FF
:1011C00001F030FAAE8A023EB6B2F31C9B109B00CF
:1011D0000733DB08A9EBC3039D460DF1080A1FFA8C
:1011E00088F34FEAC8019E4201F110010AD90AEBC7
:1011F0000803009308220023284601F013FA08F19F
:101200000108ECE794F8D70000F038FBD4F8D810C8
:10121000054619B994F8D70000F040FBD4F8D8304F
:1012200033449D4205D294F8D7000021013000F0EC
:1012300035FB4FEA960B4FF000081FFA88F18B45FB
:10124000D4E9003209D90AEB880103EB88000122B6
:1012500000F0D0FB08F10108EFE7F31842F10002BB
:10126000C4E90032D4F8D83094F8D70006EB03086C
:10127000C4F8D88000F002FB804509D394F8D73039
:10128000D4F8D8000133401B84F8D730C4F8D80014
:10129000FF2E0D4D09D80023237300F01FFB00F033
:1012A0005FFD288108B9FFF787FA23689B0A01339D
:1012B0002B810023A3606CE76934002000ED00E07F
:1012C0000400FA05A0340020582400206C340020CB
:1012D000014B1870704700BF6424002030B54FF0F8
:1012E0000054244B22689A4285B007D002F0D0FF08
:1012F0000446A8B90024204605B030BD1E4B627DCF
:101300001A701E48237D03731D49C9220E3000F058
:1013100057FB2046E022002100F064FB0124EAE7AD
:10132000184A194D136C43F000731364AA6D174BE0
:101330009A42DFD12B6E013B7E2BDBD8144A07CAC1
:1013400001AB83E807001846032100F0D7FC6B6D62
:1013500083424FF00003CDD12A6D8A4201BFAB65B5
:10136000054B2A6E1A7003BF0A4BEA6D1A601C46C1
:10137000C1E700BF9AAD44C564240020A03400201A
:101380001600002000380240006600405041A0B026
:1013900058660040182300202DE9FF474C4C00F010
:1013A000DFFC02236371002302934A4B2081D3F8B0
:1013B00000C0BCF57A7F12D3474B484FB7FBFCF611
:1013C0009C458CBF0A231123581EB6FBF3F503FB83
:1013D0001562C1B2002A3ED002280346F4D89DF817
:1013E0000B303F493F485A1E9DF80A30013B1B0411
:1013F00043EA0253BDF80820013A13434B6002F060
:101400007FF800230193384B384900933848394B13
:101410004FF4805200F0BEFF374B197811B13448B9
:1014200000F0E0FF00F040FD0546FFF7A7FC4FF499
:10143000C873B0FBF3F202FB130305F5167010FA44
:1014400083F02E4B186002F019FF08B10F2323819F
:1014500004B0BDE8F0876B1EB3F5806FBFD2C1EB5F
:10146000C10E0EF103034FEAE309C3F3C703A1EB77
:10147000030809F1010A4FF47A705FFA88F609FB54
:1014800000005AFA88F8B0FBF8F0B0F5617F08D98F
:101490000EF1FF33C3F3C703C91ACEB2591E0F2989
:1014A00014D8721E072A8CBF00220122991901FB51
:1014B0000551B7FBF1F7BC4591D1002A8FD0ADF8AB
:1014C00008508DF80A308DF80B6088E71346EDE779
:1014D00058240020182300203F420F0080DE8002A5
:1014E00010230020CC350020F50F000868240020D0
:1014F000703400207D100008642400206C3400202B
:101500002DE9F04F91A7D7E900670FF24829D9E9F3
:101510000089874D93B0DFF844B2864C284601F02D
:1015200039F80DF1300A079070B3102200215046AF
:1015300000F058FA079B197B4FF0000261F3030299
:101540008DF83020586899680EAA03C21B680D9A5E
:1015500063F31C029DF830300D9243F020038DF8A8
:101560003030002352461946584601F0D9FF079003
:1015700028B9284601F012F8079B2370CEE723789C
:10158000072B3CD80133237018220021504600F06D
:1015900029FADFF8C8B1684C00231946524658466C
:1015A00001F0E6FF014670BB102208A800F01AFA0D
:1015B000636983F48073636100F078FC0B4612A9C1
:1015C000024611E903000DF1240C8CE803009DF89C
:1015D0003410C1F3030089064CBF0E99BDF838C022
:1015E0008DF82C0046BFC1F31C0C4CF00041CCF32D
:1015F0000A010891284608A901F0AEF9CCE728466F
:1016000000F0CCFFC0E7284600F0F4FE04460028B6
:1016100048D1DFF84CB100F047FCDBF800309842CD
:1016200040D300F041FC0790FFF7A8FB079A8DF824
:10163000204003464FF4C87002F51672B3FBF0F178
:1016400001FB103312FA83F3CBF80030DFF814B14A
:101650009BF8001011B901238DF8203050460791F6
:10166000FFF7A4FB0799C1F11004E4B2062C28BFD0
:101670000624224651440DF1210000F0A1F908ABE7
:1016800003931823029301342C4B0193E4B20123FA
:10169000009304943B463246284600F0F1FE0023B6
:1016A0008BF8003000F000FC254A264C1368C31A62
:1016B000B3F57A7F30D3106000F0F8FB02460B469A
:1016C000284600F075FF284600F094FE20B3237BE7
:1016D000DFF894B0002B14BF032302238BF80530EE
:1016E00000F0E2FB4FF47A730122B0FBF3F05146B5
:1016F000CBF80000584600F097FA18230293124BDB
:10170000019380B240F25513CDE903A00093424605
:101710004B46284600F0B4FE237B2BB1FFF7C2FBFB
:10172000237B002B7FF4F7AE13B0BDE8F08F00BF32
:101730007034002085350020000802406834002005
:1017400080350020A034002084350020401DA120D9
:1017500026812A0BF1C6A7C1D068080FCC3500201E
:101760006C340020693400205824002070470000A9
:1017700070B5104B1B780133DBB2012B0C4612D82D
:101780000D4B1D6829684FF47A730E6AA2FB033271
:10179000014622462846B047844204D1074B002226
:1017A0001A70012070BD4FF4FA7002F0E9F90020C0
:1017B000F8E700BF2423002028230020C83500209C
:1017C00007B50023024601210DF107008DF807300F
:1017D000FFF7CEFF20B19DF8070003B05DF804FBD2
:1017E0004FF0FF30F9E700000A4608B50421FFF783
:1017F000BFFF80F00100C0B2404208BD30B4074BCB
:101800000A461978064B53F821402368DD69054BD9
:101810000146AC46204630BC604700BFC8350020BA
:1018200028230020A086010070B502F07BFB094E42
:10183000094D3080002428683388834208D902F09B
:101840006BFB2B6804440133B4F5803F2B60F2D36B
:1018500070BD00BFCA3500208835002002F024BCCE
:1018600000F1006000F580300068704700F1006012
:10187000920000F5803002F0A3BB0000054B1A680F
:10188000054B1B889B1A834202D9104402F044BBCB
:101890000020704788350020CA350020024B1B68A5
:1018A000184402F059BB00BF8835002010F0030334
:1018B0000AD1B0F5047F05D200F10050A0F5104028
:1018C000D0F80038184670470023FBE700F10050BD
:1018D000A0F51040D0F8100A70470000064991F8B2
:1018E000243033B10023086A81F824300822FFF73E
:1018F000BDBF0120704700BF8C350020014B186828
:10190000704700BF002004E070B5194B1D68194BEB
:101910000138C5F30B0408442D0C04221E88A6428E
:101920000BD15C680A46013C824213460FD214F97F
:10193000016F4EB102F8016BF6E7013A03F10803BB
:10194000ECD181420B4602D22C2203F8012B0A4A29
:1019500005241688AE4204D1984284BF967803F8D5
:10196000016B013C02F10402F3D1581A70BD00BFB3
:10197000002004E0944A0008804A0008022802BFC0
:10198000024B4FF480729A61704700BF000802401A
:10199000022802BF024B4FF080729A61704700BF6D
:1019A00000080240022801BF024A536983F4807391
:1019B00053617047000802400FB404B07047000044
:1019C00010B50023934203D0CC5CC4540133F9E733
:1019D00010BD000003460246D01A12F9011B00296F
:1019E000FAD1704702440346934202D003F8011B28
:1019F000FAE770472DE9F8431F4D144695F8242067
:101A00000746884652BBDFF870909CB395F82430A7
:101A10002BB92022FF2148462F62FFF7E3FF95F8FC
:101A20002400C0F10802A24228BF2246D6B2414695
:101A3000920005EB8000FFF7C3FF95F82430A41B4C
:101A40001E44F6B2082E17449044E4B285F8246090
:101A5000DBD1FFF743FF0028D7D108E02B6A03EB67
:101A600082038342CFD0FFF739FF0028CBD100207B
:101A7000BDE8F8830120FBE78C350020024B1A7883
:101A8000024B1A70704700BFC83500202423002085
:101A900003494FF4E1330B60024B186801F046BF75
:101AA000B435002028230020094B10B51422044629
:101AB00000211846FFF796FF064A074B127804608C
:101AC0000146BDE8104053F8220001F02FBF00BFCF
:101AD000B4350020C8350020282300202DE9F04728
:101AE0000D46044600219046284640F27912FFF741
:101AF00079FF234620220021284600F0CFFE231D37
:101B000002222021284600F0C9FE631D0322222163
:101B1000284600F0C3FEA31D03222521284600F01D
:101B2000BDFE04F1080310222821284600F0B6FE6D
:101B300004F1100308223821284600F0AFFE04F11A
:101B4000110308224021284600F0A8FE04F11203E8
:101B500008224821284600F0A1FE04F114032022A7
:101B60005021284600F09AFE04F11803402270210B
:101B7000284600F093FE04F120030822B0212846F5
:101B800000F08CFE04F121030822B821284600F061
:101B900085FE04F12207C0263B463146082228462E
:101BA000083600F07BFEB6F5A07F07F10107F3D100
:101BB00004F1320308223146284600F06FFE002768
:101BC00004F1330A94F832304FEAC7099F4209F50D
:101BD000A47615D3B8F1000F08D1314604F59973F6
:101BE0000722284600F05AFE09F24F16274694F8BD
:101BF00032213B1B93420CD3F01DC008BDE8F08797
:101C00000AEB070308223146284600F047FE013759
:101C1000D8E707F2331331460822284600F03EFE8B
:101C200008360137E3E7000013B5044608460021F3
:101C300001602346C0F803102022019000F02EFE20
:101C40000198231D0222202100F028FE0198631D27
:101C50000322222100F022FE0198A31D0322252148
:101C600000F01CFE019804F108031022282100F066
:101C700015FE072002B010BDF8B50E460546144605
:101C8000002181223046FFF7ADFE2B4608220021BD
:101C9000304600F003FE7CB96B1C07220821304659
:101CA00000F0FCFD0F2401236A785F1C013B934286
:101CB00004D3E01DC008F8BD0824F4E7EB19214661
:101CC0000822304600F0EAFD08343B46ECE700000D
:101CD00030B5094D0A4491420DD011F8013B5840EE
:101CE000082340F30004013B2C4013F0FF0384EA77
:101CF0005000F6D1EFE730BD2083B8EDF7B54FF0D7
:101D0000FF33DFF854C0DFF854E000EB81011A46DE
:101D100088421CD050F8044B019401AF042417F8FA
:101D2000015B82EA05620825DB18164605F1FF35DE
:101D30005241002EBCBF83EA0C0382EA0E0215F06A
:101D4000FF05F1D1013C14F0FF04E8D1E0E7D843EE
:101D5000D14303B0F0BD00BF9336EAA9EBE1F042F6
:101D6000F7B5384A106851686B4603C36A4636496E
:101D70003648082302F030FE0446002833D10A25F5
:101D8000334A106851686B4603C36A4631492F488D
:101D9000082302F021FE0446002849D00369B3F568
:101DA000702F45D8B0F8661040F2F63291423FD11C
:101DB000294A024402F15C018B4239D35C3B23493E
:101DC00000209E1AFFF784FF3246074604F16401A3
:101DD0000020FFF77DFFA3689F4229D1E368984266
:101DE00008BF002524E00369B3F5702F27D8418B85
:101DF00040F2F632914220D1174A024402F110011A
:101E00008B4218D3103B114900209D1AFFF760FF49
:101E10002A46064604F118010020FFF759FFA3687F
:101E20009E4202D1E368984201D00D25A8E7002523
:101E3000284603B0F0BD1025A2E70C25A0E70B252E
:101E40009EE700BFB44A0008DCFF0E000000010856
:101E5000BD4A000890FF0E000800FFF700B59BB0D8
:101E6000EFF3098168226846FFF7AAFDEFF30583C7
:101E7000014B9B6BFEE700BF00ED00E008B5FFF7EC
:101E8000EDFF000000B59BB0EFF3098168226846C2
:101E9000FFF796FDEFF30583014B5B6BFEE700BF99
:101EA00000ED00E0FEE7000002F038B902F010B9E2
:101EB0002DE9F041456A15B94162BDE8F0814B68F2
:101EC00023F06047C3F38A464FEAD37EC3F380789A
:101ED00016EA230638BF3E46AC462B465A68BEEB90
:101EE000D27F22F060440AD0002A18DAA40CB4424F
:101EF00017D19D420FD10D60DEE71346EEE7A742F2
:101F000007D102F08044C2F3807242450BD054B135
:101F1000EFE708D2EDE7CCF800100B60CDE7B44254
:101F200001D0B442E5D81A689C46002AE5D1196070
:101F3000C3E700002DE9F047089D01F007044FEAD0
:101F4000D508224405F0070500EBD1004FF47F4986
:101F5000944201D1BDE8F08704F0070705F0070AB5
:101F600057453E4638BF5646C6F10806111B8E42FD
:101F700028BF0E46E10808EBD50E415C13F80EC0F1
:101F8000B94029FA06F721FA0AF1FFB28CEA0101F9
:101F900047FA0AF739408CEA010C03F80EC03444C2
:101FA0003544D5E780EA0120082341F2210201B23D
:101FB0004000002980B203F1FF33B8BF504013F056
:101FC000FF03F4D17047000038B50C468D18A542C8
:101FD00000D138BD14F8011BFFF7E4FFF7E700005C
:101FE00042684AB1136843604389818901339BB2D7
:101FF0009942438138BF83811046704770B588B0DD
:10200000202204460D4668460021FFF7EBFC2046DF
:102010000495FFF7E5FF024658B16B46054608AE4A
:102020001C4603CCB44228606960234605F10805CC
:10203000F6D1104608B070BD082817D909280CD071
:102040000A280CD00B280CD00C280CD00D280CD052
:102050000E2814BF4020302070470C2070471020FD
:1020600070471420704718207047202070470000E8
:10207000082817D90C280CD910280CD914280CD9E9
:1020800018280CD920280CD930288CBF0F200E20FE
:102090007047092070470A2070470B2070470C20BA
:1020A00070470D20704700002DE9F843078C072F7B
:1020B00004461ED9D0E9029800254FF6FF73C5F1FA
:1020C0002006A5F1200029FA05F108FA06F628FAFB
:1020D00000F031430143C9B21846FFF763FF0835EA
:1020E000402D0346EBD1E1693A46BDE8F843FFF7DE
:1020F0006BBF4FF6FF70BDE8F883000010B54B686A
:1021000023B9CA8A63F30902CA8210BD04691A6836
:102110001C600361C38A013BC3824A60EFE7000091
:102120002DE9F84F1D46CB8A0F46C3F30901052957
:10213000814692460B4630D00020AAB207F11A041D
:102140009EB2042E1FFA80F80FD8904503F10103C8
:1021500006D3FB8A0A4462F30903FB8201201AE0DA
:102160001AF80060E6540130EAE79045F1D2A1F197
:10217000050B1C237C68BBFBF3F203FB12BB1FFAAD
:102180008BF6002C45D14846FFF72AFF044638B9A4
:1021900078606FF00200BDE8F88F4FF00008E6E7C6
:1021A000002606607860ADB24FF0000B454510D9AF
:1021B0000AEB0803221D13F8011B9155B1B208F177
:1021C00001081B291FFA88F82BD0454506F10106A6
:1021D000F1D8FB8AC3F30902154465F30903BCE790
:1021E000013292B21C462368002BF9D16B1F0B44BD
:1021F0001C21B3FBF1F301339BB29A42D3D2BBF162
:10220000000FD0D14846FFF7EBFE20B9C4F800B06C
:10221000BFE70122E7E7C0F800B05E462060044651
:10222000C1E74545D5D94846FFF7DAFE08B9206031
:10223000AFE7C0F800B0002620600446B6E7000013
:102240002DE9F04F2DED028B1C4683B05B690192A6
:1022500007468846002B00F09A80238C2BB1E26958
:10226000002A00F09480072B35D807F10C00FFF707
:10227000B7FE054638B96FF00205284603B0BDEC3D
:10228000028BBDE8F08F14220021FFF7ABFB228CFC
:10229000E16905F10800FFF793FB208C013080B263
:1022A000FFF7E6FEFFF7C8FE013880B22084013058
:1022B00028746369228C1B782A4403F01F0363F09F
:1022C0003F0348F000411372384669602946FFF722
:1022D000EFFD0125D1E700F10C034FF0000908EEF6
:1022E000103A4FF0800A4E464D4618EE100AFFF79E
:1022F00077FE83460028BED014220021FFF772FB30
:10230000002E3AD1019BABF8083002220BF1080EE7
:102310001FFA82FC0CF10100BCF1060F218C80B287
:1023200001D88E422BD3FFF7A3FEFFF785FE62692B
:102330001278013802F01F028E4208BF4FF0400AA7
:1023400042EA49121BFA80F14AEA020A013048F0D7
:10235000004281F808A08BF81000CBF80420594601
:102360003846FFF7A5FD238C0135B3422DB289F025
:1023700001094FF0000AB8D17FE70022C6E7E16902
:10238000895D0EF802100136B6B20132C0E76FF077
:10239000010572E7F8B515460E46302200210446C5
:1023A0001F46FFF71FFB069B6360B5F5001F079BE9
:1023B000A76034BF6A094FF6FF72A36297B2E66165
:1023C00004F1100000239A4206D800230360A7827C
:1023D000E3822383E360F8BD066001333046203694
:1023E000F1E7000003781BB94BB2002BC8BF0170A6
:1023F0007047000000787047F8B50C46C969074679
:1024000011B9238C002B37D1257E1F2D34D8387875
:1024100028BB228C072A2CD8268A36F003032BD11E
:102420004FF6FF70FFF7D0FD20F0010031024004AD
:1024300041EA0561400C41EA40254FF6FF72234610
:1024400029463846FFF7FCFE002807DD626913784D
:102450000133DBB21F2B88BF00231370F8BD218A24
:102460002D0645EA012505432046FFF71DFE0246DD
:10247000E5E76FF00300F1E76FF00100EEE7000021
:1024800070B58AB0044616460021282268461D46CB
:10249000FFF7A8FABDF83830ADF810300F9B059360
:1024A0009DF840308DF81830119B07936946BDF8B0
:1024B0004830ADF820302046CDE90265FFF79CFF9B
:1024C0000AB070BD2DE9F041D36905460C461646A9
:1024D0000BB9138C5BBB377E1F2F28D895F8008073
:1024E000B8F1000F26D03046FFF7DEFD3378210229
:1024F00041EAC33141EA0801338A41EA076141EA0E
:1025000003410246334641F080012846FFF798FE1A
:1025100000280ADD3378012B07D172691378013363
:10252000DBB21F2B88BF00231370BDE8F0816FF072
:102530000100FAE76FF00300F7E70000F0B58BB099
:1025400004460D4617460021282268461E46FFF71E
:1025500049FA9DF84C305A1E534253418DF80030D1
:102560009DF84030ADF81030119B05939DF8483030
:102570008DF81830149B07936A46BDF85430ADF8B7
:10258000203029462046CDE90276FFF79BFF0BB0AD
:10259000F0BD0000406A00B104307047436A1A6819
:1025A000426202691A600361C38A013BC3827047B9
:1025B0002DE9F041D0F82080194E14461D464146C1
:1025C000002709B9BDE8F081D1E90223A21A65EB21
:1025D0000303964277EB03031ED2036A8B420DD1AD
:1025E000FFF78CFD036A1B68036203690B60C38AF3
:1025F0000161016A013BC3828846E2E7FFF77EFD85
:102600000B68C8F8003003690B60C38A0161013BA5
:10261000C382D8F80010D4E788460968D1E700BF24
:1026200080841E002DE9F04F8BB00D46DDF85090F0
:1026300014469B468046002800F01981B9F1000F2E
:1026400000F01581531E3F2B00F21181012A03D1A6
:10265000BBF1000F40F00B810023CDE90833B8F83F
:102660001430B5EBC30F4FEAC30703D300200BB000
:10267000BDE8F08F2B199F42D8F80C303ABF7F1B72
:10268000FFB227461BB9D8F81030002B7AD0272D7F
:102690004ED8C5F12806B7424FF000032CBFF6B262
:1026A0003E4600932946D8F8080008AB3246FFF7AB
:1026B00041FCA7EB060A35445FFA8AFAB8F81430F1
:1026C00003F10053053BDB000493D8F80C3003936F
:1026D0002821039B13B1BAF1000F2CD1D8F81000B8
:1026E00040B1BAF1000F05D0009608AB5246691A06
:1026F000FFF720FC38B2002FB8D066070AD00AAB2B
:1027000003EBD401624211F8083C02F007021341C6
:1027100001F8083C082C3CD9102C40F2B580202C44
:1027200040F2B780BBF1000F00F09C80082334E03A
:10273000BA460026C2E7049BE02B28BFE02306939D
:102740000B44AB42059314D95A1B0398009692454B
:1027500034BF5246D2B2691A08AB04300792FFF771
:10276000E9FB079A1644AAEB020A1544F6B25FFA8F
:102770008AFA049B069A05999B1A0493039B1B688B
:102780000393A6E70093D8F8080008AB3A46294619
:10279000AEE7BBF1000F13D00123B4EBC30F6CD035
:1027A000082C12D89DF82030621E23FA02F2D507B9
:1027B00006D54FF0FF3202FA04F423438DF820309F
:1027C0009DF8203089F8003051E7102C12D8BDF860
:1027D0002030621E23FA02F2D10706D54FF0FF32F5
:1027E00002FA04F42343ADF82030BDF82030A9F8F4
:1027F00000303CE7202C0FD80899631E21FA03F320
:10280000DA0705D54FF0FF3202FA04F40C430894BE
:10281000089BC9F800302AE7402C2BD0DDE9086579
:10282000611EC4F12102A4F1210326FA01F105FA87
:1028300002F225FA03F311431943CB0712D5012203
:10284000A4F12003C4F1200102FA03F322FA01F1FA
:10285000A240524243EA010363EB430332432B435A
:10286000CDE90823DDE90823C9E90023FFE66FF07D
:102870000100FCE66FF00800F9E6082CA0D9102C46
:10288000B3D9202CEED8C3E7BBF1000FADD00223A3
:1028900083E7BBF1000FBBD004237EE730B5012AEC
:1028A000144638BF0124402C85B028BF40240025A1
:1028B000012ACDE9025518D81B788DF80830630736
:1028C0000AD004AB03EBD405624215F8083C02F0D1
:1028D0000702934005F8083C009103462246002178
:1028E00002A8FFF727FB05B030BD082AE4D9102A5B
:1028F00003D81B88ADF80830E1E7202A8DBFD3E963
:1029000000231B680293CDE90223D8E710B5CB68FA
:102910001BB98B600B618B8210BD04691A681C6047
:102920000361C38A013BC382CA60F0E703064CBF60
:10293000C0F3C0300220704708B50246FFF7F6FF2B
:10294000022806D15306C2F30F2001D100F0030084
:1029500008BDC2F30740FBE72DE9F04F93B0CDE986
:1029600003230A6804461046FFF7E0FF022814BF5D
:10297000C2F306260026002A0D46824680F2F28126
:1029800012F0C04940F0EE81097B002900F0EA8195
:10299000022803D02378B34240F0E781C2F30463F6
:1029A0000693104602F07F030593FFF7C5FF059BD2
:1029B00029444FEA834848EA0A4848EA4668CE78FC
:1029C00000230022CDE90823F309834648EA0008E2
:1029D000029367D0059B009302466768534608A997
:1029E0002046B847002800F0C381276A4FB9414606
:1029F00004F10C00FFF702FB074690B96FF00200EC
:102A000054E03B6998450DD03F68002FF9D141460D
:102A100004F10C00FFF7F2FA07460028EED0236A13
:102A20003B60276297F817C006F01F08CCF3840CB0
:102A3000ACEB08001FFA80FE0028B8BF0EF12000A2
:102A4000A8EB0C031FFA83FED7E90221B8BF00B23E
:102A5000002B0793BEBF0EF120031BB2079352EA6F
:102A6000010338D0039BDFF824E39A1A049B4FF04C
:102A7000000C63EB010196457CEB01032BD36B7BD0
:102A800097F81AE0734519D1029B002B78D00128E2
:102A900021DC7868F8B9DFF8F0C2944570EB0103E7
:102AA00016D337E0276A27B96FF00C0013B0BDE8E2
:102AB000F08F3B699845B5D03F68F4E7B248904243
:102AC0007CEB010301D30020F0E7029B002BFAD03E
:102AD000079B0F2B17DCFA7DB30002F0030203F013
:102AE0007C031343FB7539462046FFF707FB6B7BDE
:102AF000BB76029B3BB9FB7DC3F38402013262F3D8
:102B00008603FB75D0E76A7BBB7E9A42DBD1029BD2
:102B1000002B35D0B309022B32D0039BBB60049B42
:102B2000FB60142200210DA8FEF75CFF039B0A93B3
:102B3000049B0B932B1D0C932B7BADF83EB0013BFC
:102B4000DBB2ADF83C30069B8DF84230059B8DF82A
:102B5000433094F82C308DF840A083F001038DF8B9
:102B600044308DF84180A3680AA920469847FB7D30
:102B7000C3F38403013303F01F039B02FB82A2E72C
:102B8000FB7DC6F34012B2EBD31F40F0F480C3F3D9
:102B90008403434540F0F280029A2B7BB609002A59
:102BA0004DD0F2075DD4032B40F2EB80039BBB605A
:102BB000049BFB602B7BAE1D033BDBB232463946E8
:102BC00004F10C00FFF7ACFA00280CDA3946204675
:102BD000FFF794FAFB7DC3F38403013303F01F0373
:102BE0009B02FB820AE7DDE90884AB883B834FF652
:102BF000FF73C9F12000A9F1200228FA09F104FAB3
:102C000000F0014324FA02F211431846C9B2FFF75B
:102C1000C9F909F10809B9F1400F0346E9D1B882B1
:102C20002A7B033AD2B23146FFF7CEF9FB7DB88258
:102C3000DA43C2F3C01262F3C713FB7543E786B9E8
:102C40002E1D013BDBB23246394604F10C00FFF782
:102C500067FA0028BADB2A7BB88A013AD2B2314639
:102C6000E2E7F98AC1F30901013B0429DAB25BD832
:102C7000281D002307F11B069A4208D910F801CB42
:102C800006F801C0013101330529DBB2F4D1039903
:102C90000A9104990B91934207F11B010C9138BFE3
:102CA000043379680D9134BF55FA83F300230E93F2
:102CB000FB8AADF83EB0C3F309031A44069B8DF8B6
:102CC0004230059B8DF8433094F82C30ADF83C2011
:102CD00083F001038DF8443000238DF840A08DF877
:102CE00041807B602A7BB88A013A291DFFF76CF985
:102CF0003B8BB882834203D1A3680AA92046984738
:102D000020460AA9FFF702FEFB7DBA8AC3F38403BB
:102D1000013303F01F039B02FB823B8B9A420CBFE3
:102D200000206FF01000C1E67B68002BAFD00520BB
:102D300001E01C3033461E68002EFAD1091A081D26
:102D40002E1D184401EB090CBCF11B0F5FFA89F32F
:102D50009DD89A429BD916F8013B00F8013B09F136
:102D60000109EFE76FF00900A0E66FF00A009DE6A9
:102D70006FF00B009AE66FF00D0097E66FF00E0013
:102D800094E66FF00F0091E640420F0080841E0031
:102D9000404BF0B51C6C404E44F000741C641D6E3A
:102DA00045F000751D661B6E3C4B9B6AD3F80052C4
:102DB000354045F00105C3F80052D3F800423440D5
:102DC00044EA002040F00100C3F80002002952D07C
:102DD0000020C3F81C020546C3F80402C3F80C0225
:102DE000C3F8140203EBC00401301C28C4F840529D
:102DF000C4F84452F6D100254FF0010C967814889F
:102E0000F70748BFD3F804720CFA04F044BF074335
:102E1000C3F80472B70742BFD3F80C720743C3F874
:102E20000C72760742BFD3F814620643C3F81462EB
:102E300003EBC4045668C4F840629668C4F8446260
:102E4000D3F81C4201352043A942C3F81C0202F109
:102E50000C02D3D1D3F8002222F00102C3F80022E1
:102E60000C4B1A6C22F000721A641A6E22F0007277
:102E70001A661B6EF0BD0122C3F84012C3F844125B
:102E8000C3F80412C3F81412C3F80C22C3F81C22AE
:102E9000E0E700BF003802400000FFFFCC35002013
:102EA000184A916A08B58B688B6013F0010104D051
:102EB00013F00C0F18BF4FF48031D80506D513F46A
:102EC000406F14BF41F4003141F00201D80306D530
:102ED00013F4402F14BF41F4802141F00401D36961
:102EE0000BB108489847302383F311880648002126
:102EF00000F06EFE002383F31188BDE8084001F066
:102F000005BA00BFCC350020D435002038B5124CAE
:102F1000A36ADD68AA0712D05A6922F002025A6138
:102F2000A36913B1012120469847302383F3118808
:102F30000A48002100F04CFE002383F31188EB06C1
:102F400006D5A36A1021D960236A0BB102489847BD
:102F5000BDE8384001F0DAB9CC350020DC3500207E
:102F600038B5124CA36A1D69AA0712D05A6922F01B
:102F700010025A61A36913B10221204698473023F9
:102F800083F311880A48002100F022FE002383F316
:102F90001188EB0606D5A36A10211961236A0BB1CB
:102FA00002489847BDE8384001F0B0B9CC35002060
:102FB000DC35002038B50F4CA36A5D685D602A07D8
:102FC0000AD5042222701A6822F002021A60636A8B
:102FD00013B10021204698476B0706D5A36A99696B
:102FE000236A13B1034809049847BDE8384001F04B
:102FF0008DB900BFCC35002010B50E4C204600F036
:103000006DFA0D4BA3620B21132000F04FFA0B2138
:10301000142000F04BFA0B21152000F047FA0B2189
:10302000162000F043FA0022BDE8104011460E20A1
:10303000FFF7AEBECC35002000640040114B984233
:1030400010B5044609D1104B1A6C42F000721A6494
:103050001A6E42F000721A661B6EA36A01221A6091
:10306000A36A5A68D20707D5626851681268D961A5
:103070001A60064A5A6110BD0121082000F0C6FC02
:10308000EEE700BFCC350020003802405B8701002E
:1030900003291AD8DFE801F0020A0F14836A9B683B
:1030A00013F0E05F14BF012000207047836A986826
:1030B000C0F380607047836A9868C0F3C06070474F
:1030C000836A9868C0F30070704700207047000062
:1030D00010B5032925D8DFE801F00225292D836AE0
:1030E0009968C1F30161183103EB0113107884066C
:1030F0004CBF54689488C0F300114FEA410148BFA7
:1031000041EAC40100F00F004CBF41F0040141EA64
:103110004451586041F001019068D2689860DA60CB
:10312000196010BD836A03F5C073DFE7836A03F596
:10313000C873DBE7836A03F5D073D7E701290AD0A8
:1031400002290FD081B9836ADA68920701D1186920
:1031500003E001207047836AD86810F0030018BFAD
:1031600001207047836AF2E70020704710B539B933
:10317000836AD96889071BD11B699C0704D110BDDC
:10318000012915D00229FAD1816AD1F8C031D1F8CC
:10319000C441D1F8C8011061D1F8CC0150612020A0
:1031A00008610869800717D1486940F0100012E0F3
:1031B000816AD1F8B031D1F8B441D1F8B8011061C9
:1031C000D1F8BC0150612020C860C868800703D1D5
:1031D000486940F002004861C3F34000C3F3800136
:1031E000000140EA4111107920F0300001431171D3
:1031F00089064BBF91681189DB085B0D4CBF63F3F7
:103200001C0163F30A01137948BF916064F303035F
:1032100013714FEA14234FEA144458BF11811370FD
:103220005480ACE7026843681143016003B118475A
:1032300070470000024AD36843F0C003D360704770
:1032400000100140024AD36843F0C003D3607047C6
:1032500000440040024AD36843F0C003D360704783
:103260000014014038B50F4C0F4A104D2046002184
:1032700000F03AFB0E4B0F4AC4E997350E4C002183
:10328000204600F031FB0D4B0D4AC4E997230D4C4D
:103290000D4A0021204600F027FB0C4BC4E997356E
:1032A00038BD00BFF83500203532000800BD0105EB
:1032B00000100140453200086438002080DE8002A2
:1032C00000440040D03A002055320008001401406C
:1032D000304A037C002918BF0A46012B30B5C0F8DC
:1032E000682213D12C4B98420AD12C4B596C41F0D7
:1032F00010015964596E41F0100159665B6E05E08A
:10330000274B984232D0274B98423AD0B2F904501A
:103310001468D0F86032D0F85C12002D03EB54032F
:10332000B3FBF4F3BEBF23F0070503F0070343EA42
:10333000450394888B60D38843F040030B61138965
:1033400043F001034B6144F4045343F02C03CB607E
:1033500004F4A05400230B60B4F5806F0B684B6835
:103360000CBF7F23FF2380F8643230BD0B4B196CF8
:1033700041F400311964196E41F4003119661B6E75
:10338000C4E7064B596C41F020015964596E41F075
:103390002001B2E7C84A0008F83500200038024092
:1033A00064380020D03A00202DE9F041D0F85C626A
:1033B000F7683368DA0504469DB20DD5302383F3F0
:1033C00011884FF480610430FFF72CFF6FF4807395
:1033D0003360002383F31188302383F3118804F1D1
:1033E000040815F02F033AD183F31188380615D558
:1033F000290613D5302383F3118804F1380000F037
:10340000EFF900284EDA0821201DFFF70BFF4FF6D9
:103410007F733B40F360002383F311887A0616D54F
:103420006B0614D5302383F31188D4E913239A4211
:103430000AD1236C43B127F040073F041021201D1F
:103440003F0CFFF7EFFEF760002383F31188D4F8F9
:103450006822D36843B3BDE8F041106918472B07D1
:1034600014D015F0080F0CBF00214FF48071E8074D
:1034700048BF41F02001AA0748BF41F040016B0757
:1034800048BF41F080014046FFF7CCFEAD067368AF
:1034900005D594F864122046194000F055FA3568B5
:1034A000ADB29EE77060B6E7BDE8F08100F1604321
:1034B00003F561430901C9B283F80013012200F04A
:1034C0001F039A4043099B0003F1604303F56143E6
:1034D000C3F880211A607047FFF78EBD012300F109
:1034E0000802C0E90222037000F110020023C0E9C3
:1034F0000422C0E90633C0E9083343607047000086
:1035000010B53023044683F3118802230370416011
:10351000FFF794FD04232370002080F3118810BD71
:103520002DE9F0411F4604460D461646302383F32D
:10353000118800F108082378052B0DD02946204674
:10354000FFF7A6FD40B1204632462946FFF7C0FDF1
:10355000002080F3118808E03946404600F01CFB4B
:103560000028E8D0002383F31188BDE8F081000033
:103570002DE9F0411F4604460D461646302383F3DD
:10358000118800F110082378052B0DD0294620461C
:10359000FFF7D4FD40B1204632462946FFF7E6FD4D
:1035A000002080F3118808E03946404600F0F4FA24
:1035B0000028E8D0002383F31188BDE8F0810000E3
:1035C000F8B5154682680669AA420B46816938BF7C
:1035D0008568761AB54204460BD218462A46FEF78D
:1035E000EFF9A3692B44A361A3685B1BA360284682
:1035F000F8BD0CD918463246FEF7E2F9AF1BE16878
:103600003A463044FEF7DCF9E3683B44EBE7184602
:103610002A46FEF7D5F9E368E5E7000083689342A0
:10362000F7B51546044638BF8568D0E90460361AF8
:10363000B5420BD22A46FEF7C3F963692B44636196
:10364000A36828465B1BA36003B0F0BD0DD93246CA
:103650000191FEF7B5F90199E068AF1B3A46314494
:10366000FEF7AEF9E3683B44E9E72A46FEF7A8F91E
:10367000E368E4E710B50A440024C361029B846058
:10368000C0E90000C0E90511C1600261036210BD1C
:1036900008B5D0E90532934201D1826882B98268C7
:1036A000013282605A1C42611970D0E904329A4298
:1036B00024BFC3684361002100F07EFA002008BDEA
:1036C0004FF0FF30FBE7000070B5302304460E4694
:1036D00083F31188A568A5B1A368A269013BA36023
:1036E000531CA36115782269934224BFE368A36148
:1036F000E3690BB120469847002383F311882846DD
:1037000007E03146204600F047FA0028E2DA85F368
:10371000118870BD2DE9F74F04460E4617469846AE
:10372000D0F81C904FF0300A8AF311884FF0000B4C
:10373000154665B12A4631462046FFF741FF03464C
:1037400060B94146204600F027FA0028F1D0002356
:1037500083F31188781B03B0BDE8F08FB9F1000F37
:1037600003D001902046C847019B8BF31188ED1AC6
:103770001E448AF31188DCE7C0E90511C160C3610A
:103780001144009B8260C0E9000001610362704740
:10379000F8B504460D461646302383F31188A76812
:1037A000A7B1A368013BA36063695A1C62611D70E5
:1037B000D4E904329A4224BFE3686361E3690BB140
:1037C00020469847002080F3118807E031462046C4
:1037D00000F0E2F90028E2DA87F31188F8BD000072
:1037E000D0E905239A4210B501D182687AB982687E
:1037F000013282605A1C82611C7803699A4224BF9C
:10380000C3688361002100F0D7F9204610BD4FF056
:10381000FF30FBE72DE9F74F04460E461746984662
:10382000D0F81C904FF0300A8AF311884FF0000B4B
:10383000154665B12A4631462046FFF7EFFE03469E
:1038400060B94146204600F0A7F90028F1D00023D6
:1038500083F31188781B03B0BDE8F08FB9F1000F36
:1038600003D001902046C847019B8BF31188ED1AC5
:103870001E448AF31188DCE7026843681143016043
:1038800003B11847704700001430FFF743BF000032
:103890004FF0FF331430FFF73DBF00003830FFF723
:1038A000B9BF00004FF0FF333830FFF7B3BF00005F
:1038B0001430FFF709BF00004FF0FF311430FFF75D
:1038C00003BF00003830FFF763BF00004FF0FF3246
:1038D0003830FFF75DBF0000012914BF6FF01300FF
:1038E00000207047FFF7BEBC37B515460E4A026090
:1038F00000224260C0E902220122044602740B4603
:10390000009000F15C014FF480721430FFF7B2FEBA
:1039100000942B464FF4807204F5AE7104F1380028
:10392000FFF72AFF03B030BDDC4A000810B5302392
:10393000044683F31188FFF7CBFC02232374002095
:1039400080F3118810BD000038B5C36904460D46E8
:103950001BB904210844FFF78FFF294604F1140026
:10396000FFF796FE002806DA201D4FF40061BDE83F
:103970003840FFF781BF38BD0023037582680369B3
:103980001B6899689142FBD25A68036042601060DC
:103990005860704700230375826803691B68996843
:1039A0009142FBD85A6803604260106058607047CB
:1039B00008B50846302383F311880B7D032B05D00F
:1039C000042B0DD02BB983F3118808BD8B6900221D
:1039D0001A604FF0FF338361FFF7CEFF0023F2E759
:1039E000D1E9003213605A60F3E70000FFF7C4BF6B
:1039F000054BD9680875186802681A60536001227F
:103A00000275D860FCF700BE403D002030B50C4B7D
:103A1000DD684B1C87B004460FD02B46094A684628
:103A200000F06AF92046FFF7E3FF009B13B16846F8
:103A300000F06CF9A86907B030BDFFF7D9FFF9E7CE
:103A4000403D0020B1390008044B1A68DB689068DB
:103A50009B68984294BF002001207047403D0020A1
:103A6000084B10B51C68D86822681A6053600122A0
:103A70002275DC60FFF78EFF01462046BDE810404E
:103A8000FCF7C2BD403D0020044B1A68DB68926819
:103A90009B689A4201D9FFF7E3BF7047403D002081
:103AA00038B5074C07490848012300252370656095
:103AB00000F092FC0223237085F3118838BD00BF0B
:103AC000A83F0020084B0008403D002000F054B9FA
:103AD000EFF3118020B9EFF30583302282F31188D0
:103AE0007047000010B530B9EFF30584C4F3080443
:103AF00014B180F3118810BDFFF7C6FF84F311885D
:103B0000F9E700008B60022308618B82084670474A
:103B10008368A3F1840243F8142C026943F8442C0F
:103B2000426943F8402C094A43F8242CC26843F800
:103B3000182C022203F80C2C002203F80B2C044A48
:103B400043F8102CA3F12000704700BF21060008A5
:103B5000403D002008B5FFF7DBFFBDE80840FFF758
:103B600045BF0000024BDB6898610F20FFF740BFA4
:103B7000403D0020302383F31188FFF7F3BF00009E
:103B800008B50146302383F311880820FFF73EFF74
:103B9000002383F3118808BD064BDB6839B1426806
:103BA00018605A60136043600420FFF72FBF4FF086
:103BB000FF307047403D00200368984206D01A68E5
:103BC0000260506099611846FFF710BF704700000F
:103BD00038B504460D462068844200D138BD0368DC
:103BE00023605C608561FFF701FFF4E710B50368AF
:103BF0009C68A2420CD85C688A600B604C602160B3
:103C0000596099688A1A9A604FF0FF33836010BD3B
:103C10001B68121BECE700000A2938BF0A2170B5A7
:103C200004460D460A26601900F0D0FB00F0BCFBEC
:103C3000041BA54203D8751C2E460446F3E70A2E42
:103C400004D9BDE87040012000F006BC70BD000042
:103C5000F8B5144B0D46D96103F1100141600A2AF1
:103C60001969826038BF0A22016048601861A8188B
:103C7000144600F09DFB0A2700F096FB431BA3426D
:103C8000064606D37C1C281900F0A0FB27463546C3
:103C9000F2E70A2F04D9BDE8F840012000F0DCBBB0
:103CA000F8BD00BF403D0020F8B506460D4600F0C7
:103CB0007BFB0F4A134653F8107F9F4206D12A46DA
:103CC00001463046BDE8F840FFF7C2BFD169BB6886
:103CD000441A2C1928BF2C46A34202D92946FFF7C3
:103CE0009BFF224631460348BDE8F840FFF77EBF00
:103CF000403D0020503D002010B4C0E903230023C4
:103D00005DF8044B4361FFF7CFBF000010B5194CBD
:103D1000236998420DD0D0E90032816813605A605F
:103D20009A680A449A60002303604FF0FF33A3614E
:103D300010BD2346026843F8102F53600022026032
:103D400022699A4203D1BDE8104000F039BB936864
:103D500081680B44936000F027FB2269E169926857
:103D6000441AA242E4D91144BDE81040091AFFF7F1
:103D700053BF00BF403D00202DE9F047DFF8BC8075
:103D800008F110072C4ED8F8105000F00DFBD8F8B1
:103D90001C40AA68031B9A423ED81444D5E900325D
:103DA0004FF00009C8F81C4013605A60C5F8009035
:103DB000D8F81030B34201D100F002FB89F311882A
:103DC000D5E9033128469847302383F311886B697E
:103DD000002BD8D000F0E8FA6A69A0EB04094A4544
:103DE00082460DD2022000F037FB0022D8F81030B6
:103DF000B34208D151462846BDE8F047FFF728BF37
:103E0000121A2244F2E712EB090938BF4A46294642
:103E10003846FFF7EBFEB5E7D8F81030B34208D0CC
:103E20001444211AC8F81C00A960BDE8F047FFF748
:103E3000F3BEBDE8F08700BF503D0020403D0020AC
:103E400000207047FEE70000704700004FF0FF3091
:103E500070470000BFF34F8F024AD368DB03FCD4E6
:103E6000704700BF003C024008B5094B1B7873B98E
:103E7000FFF7F0FF074B1A69002ABFBF064A5A60D6
:103E800002F188325A601A6822F480621A6008BD12
:103E9000B03F0020003C02402301674508B50B4BB2
:103EA0001B7893B9FFF7D6FF094B1A6942F000421D
:103EB0001A611A6842F480521A601A6822F4805219
:103EC0001A601A6842F480621A6008BDB03F002090
:103ED000003C02400B28F0B516D80C4C0C49237856
:103EE0007BB90C4D0E460C234FF0006255F8047B55
:103EF00046F8042B013B13F0FF033A44F6D10123AB
:103F0000237051F82000F0BD0020FCE7E43F0020C2
:103F1000B43F0020144B0008014B53F820007047B9
:103F2000144B00080C2070470B2810B5044601D92B
:103F3000002010BDFFF7CEFF064B53F82430184485
:103F4000C21A0BB90120F4E712680132F0D1043B28
:103F5000F6E700BF144B00080B2838B5044628D8F4
:103F6000FFF7B6FDFFF776FFFFF77EFF124AF32358
:103F7000D360E300DBB243F4007343F00203136148
:103F8000136943F48033136105462046FFF762FF4F
:103F9000FFF7A0FF094B53F8241000F039F9284629
:103FA000FFF77CFFFFF79EFD2046BDE83840FFF796
:103FB000BBBF002038BD00BF003C0240144B0008CE
:103FC00012F001032DE9F04105460E4614464BD18F
:103FD0008218B2F1016F61D8314B1B6813F00103F5
:103FE0005CD0304FFFF774FDFFF73EFFF323FB601B
:103FF000FFF730FF314640F20128032C18D824F097
:104000000104284E0C446D1A40F20118A142336994
:1040100005EB01072AD123F001033361FFF73EFFCF
:10402000FFF760FD0120BDE8F081043C0435E4E7C2
:10403000AB07E4D13B6923F440733B613B6943EA3E
:1040400008033B6151F8046B2E60BFF34F8FFFF7FD
:1040500001FF2B689E42E8D03B6923F001033B61DE
:10406000FFF71CFFFFF73EFD0020DCE723F4407361
:104070003361336943EA080333610B883B80BFF344
:104080004F8FFFF7E7FE3F8831F8023BBFB2BB42DC
:10409000BCD0336923F001033361E1E71846C2E77E
:1040A00000380240003C0240084908B50B7828B1AE
:1040B0001BB9FFF7D9FE01230B7008BD002BFCD004
:1040C000BDE808400870FFF7E9BE00BFB03F002020
:1040D00070B582B0FFF7FCFC0E4E054600F064F9A7
:1040E0003268904237BF0C4A0B49516814682EBFA2
:1040F000D1E90041013151600419034641F1000149
:10410000284601913360FFF7EDFC0199204602B08B
:1041100070BD00BFE83F0020F03F002070B582B0C6
:10412000FFF7D6FC104E054600F03EF9326890428B
:1041300037BF0E4A0D49516814682EBFD1E90041BE
:1041400001315160041941F10001034628460191F3
:104150003360FFF7C7FC01994FF47A7200232046C1
:10416000FCF73EF802B070BDE83F0020F03F0020B1
:1041700010B50244064BD2B2904200D110BD441C8F
:1041800000B253F8200041F8040BE0B2F4E700BF9E
:10419000502800400F4B30B51C6F240407D41C6F0F
:1041A00044F400741C671C6F44F400441C670A4C00
:1041B000236843F4807323600244084BD2B29042D8
:1041C00000D130BD441C00B251F8045B43F82050CC
:1041D000E0B2F4E700380240007000405028004090
:1041E00007B5012201A90020FFF7C2FF019803B023
:1041F0005DF804FB13B50446FFF7F2FFA04205D0BB
:10420000012201A900200194FFF7C4FF02B010BDF4
:1042100070470000074B45F255521A6002225A605F
:1042200040F6FF729A604CF6CC421A60024B0122B3
:104230001A70704700300040FC3F0020034B1B7891
:104240001BB1034B4AF6AA221A607047FC3F0020BC
:1042500000300040034B1A681AB9034AD2F8742898
:104260001A607047F83F002000300240024B4FF0C8
:104270008072C3F8742870470030024008B5FFF719
:10428000E9FF024B1868C0F3407008BDF83F0020FA
:1042900008B5FFF7DFFF024B1868C0F3007008BDD8
:1042A000F83F0020EFF3098305494A6B22F0010231
:1042B0004A63683383F30988002383F311887047C6
:1042C00000EF00E0302080F3118862B60C4B0D4AFD
:1042D000D96821F4E0610904090C0A43DA60D3F8D3
:1042E000FC20094942F08072C3F8FC200A6842F0C1
:1042F00001020A602022DA7783F82200704700BFAB
:1043000000ED00E00003FA05001000E010B53023D6
:1043100083F311880E4B5B6813F4006314D0F1EE45
:10432000103AEFF30984683C4FF08073E361094B66
:10433000DB6B236684F30988FFF786FB10B1064B1D
:10434000A36110BD054BFBE783F31188F9E700BFBC
:1043500000ED00E000EF00E033060008360600083C
:1043600070470000FEE700000A4B0B480B4A9042E2
:104370000BD30B4BDA1C121AC11E22F003028B4224
:1043800038BF00220021FDF72DBB53F8041B40F875
:10439000041BECE7844C0008804000208040002093
:1043A0008040002000F0D0B84FF08043586A70473A
:1043B0004FF08043002258631A610222DA6070478E
:1043C0004FF080430022DA60704700004FF08043D6
:1043D00058637047FEE7000070B51B4B0163002572
:1043E000044686B0586085620E46FFF76BFF04F105
:1043F0001003C4E904334FF0FF33C4E90635C4E9C0
:104400000044A560E562FFF7CFFF2B460246C4E9F2
:10441000082304F134010D4A256580232046FFF767
:1044200071FB0123E0600A4A0375009272680192F1
:10443000B268CDE90223074B6846CDE90435FFF7A2
:1044400089FB06B070BD00BFA83F0020444B0008A8
:10445000494B0008D5430008024AD36A1843D0628A
:10446000704700BF403D00204B6843608B6883600D
:10447000CB68C3600B6943614B6903628B6943621C
:104480000B6803607047000008B5264B26481A6980
:1044900040F2FF110A431A611A6922F4FF7222F0F6
:1044A00001021A611A691A6B0A431A631A6D0A43E8
:1044B0001A651E4A1B6D1146FFF7D6FF02F11C015B
:1044C00000F58060FFF7D0FF02F1380100F5806051
:1044D000FFF7CAFF02F1540100F58060FFF7C4FF47
:1044E00002F1700100F58060FFF7BEFF02F18C0160
:1044F00000F58060FFF7B8FF02F1A80100F58060C9
:10450000FFF7B2FF02F1C40100F58060FFF7ACFFD6
:1045100002F1E00100F58060FFF7A6FFBDE808406A
:1045200000F08EB80038024000000240504B0008F6
:1045300008B500F023FAFFF7B3FABDE80840FFF72B
:1045400089BE0000704700000F4B1A6C42F0010258
:104550001A641A6E42F001021A660C4A1B6E9368C6
:1045600043F0010393604FF0804353229A624FF06F
:10457000FF32DA6200229A615A63DA605A600122DD
:104580005A611A60704700BF00380240002004E002
:104590004FF0804208B51169D3680B40D9B2C943C6
:1045A0009B07116107D5302383F31188FFF78EFA3B
:1045B000002383F3118808BD1F4B1A696FEAC252AA
:1045C0006FEAD2521A611A69C2F308021A614FF0F7
:1045D000FF301A695A69586100215A6959615A694C
:1045E0001A6A62F080521A621A6A02F080521A62E3
:1045F0001A6A5A6A58625A6A59625A6A1A6C42F0BE
:1046000080521A641A6E42F080521A661A6E0B4A71
:10461000106840F480701060186F00F44070B0F5BE
:10462000007F1EBF4FF4803018671967536823F46A
:104630000073536000F072B900380240007000400F
:10464000334B4FF080521A64324A4FF440411160AC
:104650001A6842F001021A601A689107FCD59A683C
:1046600022F003029A602A4B9A6812F00C02FBD1E6
:10467000196801F0F90119609A601A6842F48032F1
:104680001A601A689203FCD55A6F42F001025A6709
:104690001F4B5A6F9007FCD51F4A5A601A6842F0A8
:1046A00080721A601B4A53685904FCD5184B1A686B
:1046B0009201FCD5194A9A60194B1A68194B9A4213
:1046C000194B21D1194A1168194A91421CD140F263
:1046D00005121A60144A136803F00F03052BFAD170
:1046E0000B4B9A6842F002029A609A6802F00C0240
:1046F000082AFAD15A6C42F480425A645A6E42F443
:1047000080425A665B6E704740F20572E1E700BF77
:104710000038024000700040085440070094883878
:10472000002004E011640020003C024000ED00E0A5
:1047300041C20F41074A08B5536903F001035361B1
:1047400023B1054A13680BB150689847BDE808408B
:10475000FFF7DCBD003C014000400020074A08B5DF
:10476000536903F00203536123B1054A93680BB107
:10477000D0689847BDE80840FFF7C8BD003C01403D
:1047800000400020074A08B5536903F00403536151
:1047900023B1054A13690BB150699847BDE8084039
:1047A000FFF7B4BD003C014000400020074A08B5B7
:1047B000536903F00803536123B1054A93690BB1B0
:1047C000D0699847BDE80840FFF7A0BD003C014014
:1047D00000400020074A08B5536903F010035361F5
:1047E00023B1054A136A0BB1506A9847BDE80840E7
:1047F000FFF78CBD003C014000400020164B10B577
:104800005C6904F478725A61A30604D5134A936A6A
:104810000BB1D06A9847600604D5104A136B0BB1F0
:10482000506B9847210604D50C4A936B0BB1D06BA3
:104830009847E20504D5094A136C0BB1506C9847B0
:10484000A30504D5054A936C0BB1D06C9847BDE81D
:104850001040FFF75BBD00BF003C0140004000205E
:10486000194B10B55C6904F47C425A61620504D5A9
:10487000164A136D0BB1506D9847230504D5134AA2
:10488000936D0BB1D06D9847E00404D50F4A136EB9
:104890000BB1506E9847A10404D50C4A936E0BB12E
:1048A000D06E9847620404D5084A136F0BB1506F5D
:1048B0009847230404D5054A936F0BB1D06F9847EE
:1048C000BDE81040FFF722BD003C01400040002041
:1048D00008B50348FEF768FDBDE80840FFF716BDC0
:1048E000F835002008B50348FEF75EFDBDE8084036
:1048F000FFF70CBD6438002008B50348FEF754FDEF
:10490000BDE80840FFF702BDD03A002008B5FFF728
:104910003FFEBDE80840FFF7F9BC0000062108B5DE
:104920000846FEF7C3FD06210720FEF7BFFD06215E
:104930000820FEF7BBFD06210920FEF7B7FD062182
:104940000A20FEF7B3FD06211720FEF7AFFD062172
:104950002820FEF7ABFD07211C20FEF7A7FD0C2148
:104960002520FEF7A3FD0C212620FEF79FFDBDE8C4
:1049700008400C214720FEF799BD000008B5FFF75D
:104980001BFE00F00BF8FEF7A7FDFEF7ABFFFFF7ED
:10499000D9FDBDE80840FFF705BD00000023054A2A
:1049A00019460133102BC2E9001102F10802F8D1B7
:1049B000704700BF0040002010B50139024490420A
:1049C00001D1002005E0037811F8014FA34201D086
:1049D000181B10BD0130F2E72DE9F041A3B1C91A4F
:1049E00017780144044603F1FF3C8C42204601D96C
:1049F000002009E00578BD4204F10104F5D10CEB7B
:104A00000405D618A54201D1BDE8F08115F8018D45
:104A100016F801EDF045F5D0E7E70000034611F880
:104A2000012B03F8012B002AF9D17047696E20622F
:104A30006F6F746C6F616465720A0D006F72672E20
:104A40006172647570696C6F742E663430355F45C1
:104A500063686F0053544D3332463F3F3F00535419
:104A60004D3332463430780053544D33324634326D
:104A7000780053544D3332463434365858000000D1
:104A8000012033000010410001105A0003105900AA
:104A90000710310000000000544A00081304000011
:104AA0005E4A000819040000684A0008210400005A
:104AB000724A000840A2E4F1646891060041A3E54F
:104AC000F2656992070000000096000000000000F7
:104AD00000000000000000000000000000000000D6
:104AE000A538000891380008CD380008B93800080A
:104AF000C5380008B13800089D380008893800081A
:104B0000D938000863300000044B0008983D0020AD
:104B1000A83F0020004000000040000000400000CE
:104B20000040000000000100000002000000020040
:104B3000000002000000020000000200000002006D
:104B4000000002006D61696E0069646C6500000020
:104B5000A050282800000000FAAABEAA5000142481
:104B6000FFFF0000007700007007000000000A0A45
:104B700000000000AAAAAAAA00000000FFFF00008F
:104B8000000000009900990000A001000000000052
:104B9000AAFAAAAA00500000FFFE00000000008848
:104BA000000000000000000000000000AAAAAAAA5D
:104BB00000000000FFFF00000000000000000000F7
:104BC0000000000000000000AAAAAAAA000000003D
:104BD000FFFF0000000000000000000000000000D7
:104BE00000000000AAAAAAAA00000000FFFF00001F
:104BF00000000000000000000000000000000000B5
:104C0000AAAAAAAA00000000FFFF000000000000FE
:104C10000000000000000000000000000A0000008A
:104C20000000000003000000000000000000000081
:104C30000000000000000000000000000000000074
:104C4000000000000000000000000000C4B5FF7F6D
:104C50000100000000000000F6030000000000005A
:104C600000000F00000000006400000000000000D1
:104C700040420F00FE2A0100D2040000FF000000A5
:044C8000F8350020E3
:00000001FF
