:020000040800F2
:1000000000070020F5040008C52E00087D2E00081A
:10001000A52E00087D2E00089D2E0008F70400087C
:10002000F7040008F7040008F7040008B93E0008C8
:10003000F7040008F7040008F7040008F7040008B4
:10004000F7040008F7040008F7040008F7040008A4
:10005000F7040008F7040008655200088D520008F4
:10006000B5520008DD52000805530008F7040008E7
:10007000F7040008F7040008F7040008F704000874
:10008000F7040008F7040008F7040008F704000864
:10009000F7040008F7040008F70400082D530008CF
:1000A000F7040008F7040008F7040008F704000844
:1000B00015540008F7040008F7040008F7040008C6
:1000C000F7040008F7040008F7040008F704000824
:1000D000F704000801540008F7040008F7040008BA
:1000E00091530008F7040008F7040008F70400081B
:1000F000F7040008F7040008F7040008F7040008F4
:10010000F7040008F7040008F7040008F7040008E3
:10011000F7040008F7040008F7040008F7040008D3
:10012000F7040008F7040008F7040008F7040008C3
:10013000F7040008F7040008F7040008312E00084F
:100140005D2E00086D2E0008F7040008F704000873
:10015000F7040008F7040008F7040008F704000893
:10016000F7040008F7040008F7040008F704000883
:10017000F7040008F7040008F7040008F704000873
:10018000F7040008F7040008F7040008F704000863
:10019000F7040008F7040008F7040008F704000853
:1001A000F7040008F7040008F7040008F704000843
:1001B000F7040008F7040008F7040008F704000833
:1001C000F7040008F7040008F7040008F704000823
:1001D000F7040008F7040008F7040008F704000813
:1001E00049180008000000000000000000000000A6
:1001F00053B94AB9002908BF00281CBF4FF0FF318E
:100200004FF0FF3000F074B9ADF1080C6DE904CE89
:1002100000F006F8DDF804E0DDE9022304B07047E1
:100220002DE9F047089D04468E46002B4DD18A42A9
:10023000944669D9B2FA82F252B101FA02F3C2F1DC
:10024000200120FA01F10CFA02FC41EA030E94406D
:100250004FEA1C48210CBEFBF8F61FFA8CF708FB8E
:1002600016E341EA034306FB07F199420AD91CEB66
:10027000030306F1FF3080F01F81994240F21C8198
:10028000023E63445B1AA4B2B3FBF8F008FB1033E0
:1002900044EA034400FB07F7A7420AD91CEB040415
:1002A00000F1FF3380F00A81A74240F207816444E5
:1002B000023840EA0640E41B00261DB1D44000236A
:1002C000C5E900433146BDE8F0878B4209D9002DCE
:1002D00000F0EF800026C5E9000130463146BDE858
:1002E000F087B3FA83F6002E4AD18B4202D38242C2
:1002F00000F2F980841A61EB030301209E46002D71
:10030000E0D0C5E9004EDDE702B9FFDEB2FA82F2C5
:10031000002A40F09280A1EB0C014FEA1C471FFA23
:100320008CFE0126200CB1FBF7F307FB131140EA0A
:1003300001410EFB03F0884208D91CEB010103F1D7
:10034000FF3802D2884200F2CB804346091AA4B299
:10035000B1FBF7F007FB101144EA01440EFB00FE6D
:10036000A64508D91CEB040400F1FF3102D2A645D2
:1003700000F2BB800846A4EB0E0440EA03409CE771
:10038000C6F12007B34022FA07FC4CEA030C20FA1E
:1003900007F401FA06F31C43F9404FEA1C4900FA3E
:1003A00006F3B1FBF9F8200C1FFA8CFE09FB1811BB
:1003B00040EA014108FB0EF0884202FA06F20BD92E
:1003C0001CEB010108F1FF3A80F08880884240F27E
:1003D0008580A8F102086144091AA4B2B1FBF9F0C2
:1003E00009FB101144EA014100FB0EFE8E4508D9BD
:1003F0001CEB010100F1FF346CD28E456AD9023842
:10040000614440EA0840A0FB0294A1EB0E01A14226
:10041000C846A64656D353D05DB1B3EB080261EB94
:100420000E0101FA07F722FA06F3F1401F43C5E96E
:10043000007100263146BDE8F087C2F12003D840A4
:100440000CFA02FC21FA03F3914001434FEA1C47E6
:100450001FFA8CFEB3FBF7F007FB10360B0C43EAD8
:10046000064300FB0EF69E4204FA02F408D91CEB88
:10047000030300F1FF382FD29E422DD90238634486
:100480009B1B89B2B3FBF7F607FB163341EA034126
:1004900006FB0EF38B4208D91CEB010106F1FF3875
:1004A00016D28B4214D9023E6144C91A46EA00466C
:1004B00038E72E46284605E70646E3E61846F8E6FE
:1004C0004B45A9D2B9EB020864EB0C0E0138A3E747
:1004D0004646EAE7204694E74046D1E7D0467BE728
:1004E000023B614432E7304609E76444023842E7A0
:1004F000704700BF02E000F000F8FEE772B6374830
:1005000080F30888364880F3098836483649086001
:1005100040F20000CCF200004EF63471CEF2000141
:100520000860BFF34F8FBFF36F8F40F20000C0F23F
:10053000F0004EF68851CEF200010860BFF34F8FF5
:10054000BFF36F8F4FF00000E1EE100A4EF63C71E2
:10055000CEF200010860062080F31488BFF36F8F8D
:1005600004F096FC04F028FD4FF055301F491B4A5B
:1005700091423CBF41F8040BFAE71D49184A9142E9
:100580003CBF41F8040BFAE71A491B4A1B4B9A423D
:100590003EBF51F8040B42F8040BF8E7002018495D
:1005A000184A91423CBF41F8040BFAE704F074FC8E
:1005B00004F056FD144C154DAC4203DA54F8041BFC
:1005C0008847F9E700F042F8114C124DAC4203DACB
:1005D00054F8041B8847F9E704F05CBC00070020CE
:1005E000002300200000000808ED00E000010020CA
:1005F00000070020C858000800230020882300209E
:100600008823002008510020E0010008E4010008D0
:10061000E4010008E40100082DE9F04F2DED108AF7
:10062000C1F80CD0C3689D46BDEC108ABDE8F08FC0
:10063000002383F311882846A047002004F092F895
:10064000FEE703F0F5FF00DFFEE70000F8B501F07C
:100650000DF904F0B7FB074604F006FC0546D0BBD5
:10066000224B9F4237D001339F4237D0204B27F097
:10067000FF029A4235D1F8B200F004FF2E4642F252
:10068000107400F005FF08B10024264601F0D2FCEA
:1006900020B1032000F082F80024264635B1154B26
:1006A0009F4203D004F0D8FB00242646002004F02B
:1006B00093FB0EB100F088F801F070FA0E4801F0DB
:1006C00001FA00F051FF01F02FF9204600F0D0F8B8
:1006D00000F07AF8F9E72E460024D2E70446012616
:1006E000CFE7064641F28834CBE700BF010007B0F0
:1006F000000008B0263A09B04856000808B501F0D5
:10070000DFF8A0F120035842584108BD07B541F277
:100710001203022101A8ADF8043001F0EFF803B094
:100720005DF804FB38B5302383F31188174803685C
:100730000BB104F0D5F8164A144800234FF47A712F
:1007400004F0C4F8002383F31188124C236813B11A
:100750002368013B2360636813B16368013B6360F6
:100760000D4D2B7833B963687BB9022001F0A0F9F5
:10077000322363602B78032B07D163682BB90220E7
:1007800001F096F94FF47A73636038BD8823002036
:1007900025070008A8240020A0230020084B18707B
:1007A00003280CD8DFE800F008050208022001F059
:1007B00075B9022001F06AB9024B00225A607047F5
:1007C000A0230020A824002010B501F033FC30B194
:1007D000204B03221A70204B00225A6010BD1F4B81
:1007E0001F4A1C4619680131F8D004339342F9D1ED
:1007F00062681C4B9A42F1D91B4B9B6803F1006362
:1008000003F580339A42E9D204F0FAFA04F00CFBC3
:10081000002001F0A3F80220FFF7C0FF134B1A6C71
:1008200000221A64196E1A66196E596C5A64596E50
:100830005A665B6E72B64FF0E0233021C3F8084D64
:10084000D4E9003281F311889D4683F3088810476C
:10085000C4E700BFA0230020A82400200000010856
:1008600020000108FFFF000800230020003802409C
:100870002DE9F04F93B0AC4B00902022FF210AA845
:100880009D6801F035F9A94A1378A3B9A848012158
:1008900003601170302383F3118803680BB104F0F7
:1008A0001FF8A44AA24800234FF47A7104F00EF80E
:1008B000002383F31188009B13B19F4B009A1A60A9
:1008C0009E4A009C1378032B1EBF002313709A4A84
:1008D0004FF0000A18BF5360D3465646D146012058
:1008E00001F0DCF824B1944B1B68002B00F015825A
:1008F000002000F0E5FF0390039B002B01DA00F0DD
:100900007BFE039B002BEDDB012001F0BFF8039B76
:10091000213B162BE3D801A252F823F079090008F5
:10092000A1090008350A0008DF080008DF080008F0
:10093000DF080008BF0A00088F0C0008A90B000898
:100940000B0C0008330C0008590C0008DF080008E5
:100950006B0C0008DF080008DD0C0008190A00080D
:10096000DF080008210D000885090008190A0008A1
:10097000DF0800080B0C00080220FFF7BFFE00286C
:1009800040F0F581009B0221BAF1000F08BF1C4620
:1009900005A841F21233ADF8143000F0AFFF9EE726
:1009A0004FF47A7000F08CFF071EEBDB0220FFF79C
:1009B000A5FE0028E6D0013F052F00F2DA81DFE82E
:1009C00007F0030A0D10133605230593042105A82B
:1009D00000F094FF17E054480421F9E75848042137
:1009E000F6E758480421F3E74FF01C08404600F0B2
:1009F000B7FF08F104080590042105A800F07EFF68
:100A0000B8F12C0FF2D1012000FA07F747EA0B0BDF
:100A10005FFA8BFB4FF0000901F0B6F826B10BF03E
:100A20000B030B2B08BF0024FFF770FE57E7464867
:100A30000421CDE7002EA5D00BF00B030B2BA1D189
:100A40000220FFF75BFE074600289BD0012000F044
:100A500085FF0220FFF7A2FE00261FFA86F8404617
:100A600000F08CFF044690B10021404600F09EFF4C
:100A700001360028F1D1BA46044641F21213022190
:100A800005A8ADF814303E4600F038FF27E70120F6
:100A9000FFF784FE2546244B9B68AB4207D92846C6
:100AA00000F05EFF013040F067810435F3E7234B2F
:100AB00000251D70204BBA465D603E46ACE7002E17
:100AC0003FF460AF0BF00B030B2B7FF45BAF022006
:100AD000FFF764FE322000F0F3FEB0F10008FFF6ED
:100AE00051AF18F003077FF44DAF0F4A926808EB3F
:100AF000050393423FF646AFB8F5807F3FF742AF1C
:100B0000124B0193B84523DD4FF47A7000F0D8FE04
:100B10000390039A002AFFF635AF019B039A03F86E
:100B2000012B0137EDE700BF00230020A4240020A3
:100B30008823002025070008A8240020A0230020E7
:100B400004230020082300200C230020A4230020DD
:100B5000C820FFF7D3FD074600283FF413AF1F2D31
:100B600011D8C5F1200242450AAB25F0030028BF89
:100B7000424683490192184400F0A8FF019A804838
:100B8000FF2100F0B5FF4FEAA8037D490193C8F3A8
:100B90008702284600F0B4FF064600283FF46DAFF8
:100BA000019B05EB830537E70220FFF7A7FD00282F
:100BB0003FF4E8AE00F01AFF00283FF4E3AE002750
:100BC000B846704B9B68BB4218D91F2F11D80A9B9F
:100BD00001330ED027F0030312AA134453F8203C2C
:100BE00005934046042205A901F0DCF9043780464C
:100BF000E7E7384600F0B4FE0590F2E7CDF8148040
:100C0000042105A800F07AFE06E70023642104A869
:100C1000049300F069FE00287FF4B4AE0220FFF7D1
:100C20006DFD00283FF4AEAE049800F0C7FE0590BD
:100C3000E6E70023642104A8049300F055FE002891
:100C40007FF4A0AE0220FFF759FD00283FF49AAED2
:100C5000049800F0C3FEEAE70220FFF74FFD0028EA
:100C60003FF490AE00F0D2FEE1E70220FFF746FD30
:100C700000283FF487AE05A9142000F0CDFE042122
:100C80000746049004A800F039FE3946B9E732203F
:100C900000F016FE071EFFF675AEBB077FF472AEBE
:100CA000384A926807EB090393423FF66BAE022085
:100CB000FFF724FD00283FF465AE27F003074F44FB
:100CC000B9453FF4A9AE484600F04AFE042105901C
:100CD00005A800F013FE09F10409F1E74FF47A705A
:100CE000FFF70CFD00283FF44DAE00F07FFE00281A
:100CF00044D00A9B01330BD008220AA9002000F03F
:100D0000FFFE00283AD02022FF210AA800F0F0FEC2
:100D1000FFF7FCFC1C4803F02BFD13B0BDE8F08F7F
:100D2000002E3FF42FAE0BF00B030B2B7FF42AAEFB
:100D30000023642105A8059300F0D6FD074600288E
:100D40007FF420AE0220FFF7D9FC804600283FF454
:100D500019AEFFF7DBFC41F2883003F009FD05987E
:100D600000F028FF464600F00FFF3C46B7E5064678
:100D700052E64FF0000905E6BA467EE637467CE6C5
:100D8000A423002000230020A0860100094A136844
:100D900049F2690099B21B0C00FB01331360064B4A
:100DA000186844F2506182B2000C01FB0200186026
:100DB00080B27047182300201423002010B50021B2
:100DC0001022044600F094FE034B03CB20606160C8
:100DD0001868A06010BD00BF107AFF1F2DE9F04118
:100DE0000026ADF54A7D68AC0D460746314640F217
:100DF00075120AA8099600F07BFE31464FF4C472C2
:100E0000204600F075FE02F065F8224B4FF47A722E
:100E1000B0FBF2F0186093E80700022384E80700B3
:100E20000DF5E1702382FFF7C9FF4FF203631A4902
:100E3000238407A804F000FC0DF124080798CDF8DE
:100E4000D302052384F8323141469DF820308DF8D5
:100E5000D7320122204600F0C7FEAB7E029305F197
:100E60001903019380B20123CDE904800093E97E48
:100E7000039606A3D3E90023384602F0F3FB0DF5F1
:100E80004A7DBDE8F08100BFAFF300809E6AC421B7
:100E9000818A46EEB0240020585600082DE9F04122
:100EA0002C4C237ADAB080460D465BBB27A9284636
:100EB00000F0AAFF0746002842D19DF89D60C82E89
:100EC0003ED801464FF4A662204600F011FE4FF4D2
:100ED0008073C4F8F8314FF40073C4F80C334FF446
:100EE0004073C4F8203432460DF19E0104F109002C
:100EF00000F0ECFD26449DF89C30777223720BB90C
:100F0000EB7E23728122002106AC27A800F0F0FDC1
:100F10000122214627A800F0B3FF00230393AB7EF4
:100F2000029305F1190380B201932823CDE904400F
:100F30000093E97E05A3D3E90023404602F092FB2B
:100F40005AB0BDE8F08100BFAFF300802641727255
:100F5000DF25D7B7C8450020F0B5254E4FF48A7578
:100F600005FB0065F1B096F8D83085F8DC30002438
:100F7000D822214685F8E8403AA800F0B9FD06F1EC
:100F8000090000F0ADFDD5F8E4308DF8F000C2B2F4
:100F900006AF06F109010DF1F100CDE93A3400F098
:100FA00095FD394601223AA800F096FF80B2CDE9BE
:100FB000047008230127CDE9023706F1D803019315
:100FC00030230093317A0B4807A3D3E9002302F0C2
:100FD00049FBA04206DD01F07DFFC5F8E000384680
:100FE00071B0F0BD2046FBE778F6339F93CACD8DF4
:100FF000C8450020C83400202DE9F0411D4D1E4E8B
:101000001E4F86B0284602F059FB034658B3002411
:10101000CDE90344ADF81440027B8DF814209968A3
:101020004068029403AA03C21B68DFF8548043F0AF
:101030000043029301F050FF821941F10003009434
:1010400002A9384601F0DCF9A04205DD284602F08D
:1010500039FB88F80040D5E798F80030072B05D811
:10106000013388F8003006B0BDE8F081014802F095
:1010700029FBF8E7C834002040420F00F834002074
:10108000FD4A002070B50D4614461E4602F046FA91
:1010900050B9022E10D1012C0ED112A3D3E9002396
:1010A000C5E90023012007E0282C10D005D8012C29
:1010B00009D0052C0FD0002070BD302CFBD10BA324
:1010C000D3E90023ECE70BA3D3E90023E8E70BA364
:1010D000D3E90023E4E70BA3D3E90023E0E700BF53
:1010E000AFF30080401DA12026812A0B78F6339FA4
:1010F00093CACD8D9E6AC421818A46EE26417272C2
:10110000DF25D7B7F017304A39059E5638B5054662
:101110000E4C0021013500F049FCA4F82C55B4F820
:101120002C0500F02BFC78B1B4F82C0500F036FC4F
:10113000014648B9B4F82C0500F038FCB4F82C3559
:101140000133A4F82C35EAE738BD00BFC8450020BC
:1011500010B50A4B0A4A1A6003F5805393F86020D1
:101160003AB9DC6D2CB1204600F0E2FF204604F0D5
:10117000A3F9BDE81040034800F0DABFF8340020BE
:10118000FC560008404500202DE9F04F8FB000AF1D
:1011900005460C4602F0C2F9002849D1237E022BF5
:1011A0001BD1E38A012B18D101F094FE0646FFF70C
:1011B000EDFD03464FF4C870DFF8C482B3FBF0F2D4
:1011C00006F5167602FB103316FA83F3C8F80030E2
:1011D000E37E33B9A34B00221A703C37BD46BDE80D
:1011E000F08F07F12401204600F0CCFD0028F4D157
:1011F00007F11400FFF7E2FD97F8264007F114010C
:10120000224607F1270004F0A1F90028E2D10F2CB3
:1012100008D8944B1C70D8F80030A3F51673C8F8A2
:101220000030DAE797F82410284602F06FF9D4E787
:10123000E38A282B2BD010D8012B23D0052BCCD11F
:10124000BFF34F8F8849894BCA6802F4E0621343A9
:10125000CB60BFF34F8F00BFFDE7302BBDD1844E75
:10126000E17E327A9142B8D1607E3146002291F817
:10127000DC50854200F0A5800132042A01F58A7114
:10128000F5D1AAE721462846FFF7A8FDA5E72146A4
:101290002846FFF703FEA0E7B2F8EC507B6005F1AB
:1012A00003094FEA99094FEA8902D11DC908A8EB41
:1012B000C1039D46EB460021584600F019FC04F19D
:1012C000EE012A463144584600F000FC7B6813B911
:1012D000012000F043FB96F8D20000F04FFB0446DB
:1012E00030B9307200F082FB204600F037FBB1E0ED
:1012F000D6F8D4203AB996F8D200B6F82C25824216
:1013000001D8FFF703FFD6F8D4202A44944208D22C
:1013100096F8D200B6F82C250130824201D8FFF7AA
:10132000F5FE70685FFA89F2594600F0E9FB08B9EA
:10133000C54679E0726896F8D2002A447260D6F801
:10134000D42005EB0209C6F8D49000F017FB8145C4
:1013500009D396F8D220D6F8D4000132001B86F8C3
:10136000D220C6F8D400FF2D0FD80024347200F02C
:101370003DFB204600F0F2FA00F05CFE3D4B188188
:1013800008B9FFF721FAC54627E7BB6896F8D900E8
:101390000AFB0362FB68D2F8E41082F8E83001F53A
:1013A0008061C2F8E030C2F8E410FFF7D5FDFFF726
:1013B00023FE96F8D920013202F0030286F8D920E4
:1013C000B6E74FF48A7A0AFB02F505F1EA013144E7
:1013D000204600F0ADFDF86000287FF4FEAE3544F5
:1013E000012285F8E82001F075FDD5F8E020D6ED62
:1013F000007ADFED216A801A192838BF192040F6DB
:10140000B832904228BF1046B8EE677A07EE900ACD
:10141000F8EEE77A67EEA67ADFED186AE7EE267A4D
:10142000FCEEE77AC6ED007A96F8D930BB60BA6870
:1014300073680AFB02F4321992F8E81059B1D2F835
:10144000E4108B42E8463FF427AF002182F8E81011
:10145000C2F8E010C5467368064A9B0A013313813F
:10146000BBE600BFC134002000ED00E00400FA0537
:10147000C8450020B0240020CDCCCC3D6666663F38
:10148000C4340020014B1870704700BFBC240020FA
:1014900030B54FF000542B4B22689A4285B007D0EC
:1014A00003F0ECFC044620BB0024204605B030BD10
:1014B000254B627D25481A70237D03724FF480739B
:1014C000C0F8F8314FF40073C0F80C3300254FF426
:1014D0004073C0F820341E49C0F8E450C9220930D6
:1014E00000F0F4FA2046E022294600F001FB012436
:1014F000DBE7184A184D136C43F000731364AA6DB0
:10150000164B9A42D0D12B6E013B7E2BCCD8144A7D
:1015100007CA01AB83E807001846032100F058FD15
:101520006B6D83424FF00003BED12A6D8A4201BF2A
:10153000AB65054B2A6E1A7003BF0A4BEA6D1A6041
:101540001C46B2E79AAD44C5BC240020C845002023
:101550001600002000380240006600405041A0B054
:10156000586600401023002037B51A4D00F062FD88
:1015700002236B71184B288119681848012201F069
:101580001DFB00230193164B164900931648174B79
:101590004FF4805201F092FF154B197811B11248A7
:1015A00001F0B4FF01F096FC0446FFF7EFFB4FF4A7
:1015B000C873B0FBF3F202FB130304F5167010FAC4
:1015C00083F00C4B186003F04FFC08B10F232B8104
:1015D00003B030BDB024002010230020F8340020D8
:1015E00085100008C0240020C8340020891100089C
:1015F000BC240020C43400202DE9F04F2DED028BD7
:101600000FF23829D9E90089834C93B00BAE9FEDD6
:101610007E8BFFF7F1FC814FDFF828A200230A93AD
:10162000ADF834300B9373604FF0000B5B468DEDDB
:10163000008B01250DF11D0207A938468DF81C50BD
:101640008DF81DB001F06AFA9DF81C30002B40F0B7
:10165000A580204601F062FF0646002845D1704F64
:1016600001F038FC3B6898423FD301F033FC8246DE
:10167000FFF78CFB4FF4C873B0FBF3F202FB1303CC
:101680000AF5167010FA83F03860664F97F800B0CC
:10169000CBF1100ABBF1000F14BF33462B465FFAA3
:1016A0008AFA0EA88DF82830FFF788FBBAF1060FEA
:1016B00028BF4FF0060A0EAB03EB0B0152460DF1AB
:1016C000290000F003FA0AAB0393182302930AF1EE
:1016D0000102554BD2B2CDE90053049220464CA3EF
:1016E000D3E9002301F060FF3E7001F0F3FB4F4AA5
:1016F0004F4D1368C31AB3F57A7F2ED3106001F0F3
:10170000EBFB02460B46204601F0E6FF204601F0C7
:1017100005FF10B32B7A474E002B14BF032302237F
:10172000737101F0D7FB0EAF4FF47A730122B0FB57
:10173000F3F039463060304600F0FCFA182302938B
:101740003D4B019380B240F25513CDE903700093F5
:1017500042464B46204601F027FF2B7A93B101F019
:10176000B9FB002607464FF48A7A95F8D900304431
:1017700000F003000AFB005393F8E82092B301360F
:10178000042EF2D1C82002F0F3FF2B7A002B7FF455
:101790003DAF13B0BDEC028BBDE8F08FDAF814302A
:1017A00083F00103CAF81430594610220EA800F045
:1017B0009FF90DF11E0308AA0AA9384600F024FF7C
:1017C00096E803000FAB83E803009DF834308DF8F2
:1017D00044300A9B0E930EA9DDE90823204602F04F
:1017E0004FF921E7D3F8E02042B12B68FA2B38BF3C
:1017F000FA23BA1A0533B2EB430FC0D3FFF7ACFBA1
:101800000028BCD1BEE700BF0000000000000000BF
:10181000401DA12026812A0BC8340020F834002066
:10182000C4340020C1340020C0340020F84A002015
:10183000C8450020B0240020FC4A0020F1C6A7C102
:10184000D068080F0004024008B5054800F076FF94
:10185000BDE80840034A0449002003F027BE00BF4A
:10186000F83400204C4B0020511100087047000054
:1018700070B5104B1B780133DBB2012B0C4612D82C
:101880000D4B1D6829684FF47A730E6AA2FB033270
:10189000014622462846B047844204D1074B002225
:1018A0001A70012070BD4FF4FA7002F061FF002041
:1018B000F8E700BF1C23002020230020404B00201D
:1018C00007B50023024601210DF107008DF807300E
:1018D000FFF7CEFF20B19DF8070003B05DF804FBD1
:1018E0004FF0FF30F9E700000A4608B50421FFF782
:1018F000BFFF80F00100C0B2404208BD30B4074BCA
:101900000A461978064B53F821402368DD69054BD8
:101910000146AC46204630BC604700BF404B00202B
:1019200020230020A086010070B503F0E5F8094EE1
:10193000094D3080002428683388834208D903F099
:10194000D5F82B6804440133B4F5803F2B60F2D303
:1019500070BD00BF424B0020004B002003F07AB95D
:1019600000F1006000F580300068704700F1006011
:10197000920000F5803003F005B90000054B1A68AD
:10198000054B1B889B1A834202D9104403F0AEB862
:1019900000207047004B0020424B0020024B1B6888
:1019A000184403F0ABB800BF004B0020024B1B688B
:1019B000184403F0BBB800BF004B002010F0030335
:1019C0000AD1B0F5047F05D200F10050A0F5104017
:1019D000D0F80038184670470023FBE700F10050AC
:1019E000A0F51040D0F8100A70470000064991F8A1
:1019F000243033B10023086A81F824300822FFF72D
:101A0000B5BF0120704700BF044B0020014B186890
:101A1000704700BF002004E070B5194B1D68194BDA
:101A20000138C5F30B0408442D0C04221E88A6427D
:101A30000BD15C680A46013C824213460FD214F96E
:101A4000016F4EB102F8016BF6E7013A03F10803AA
:101A5000ECD181420B4602D22C2203F8012B0A4A18
:101A600005241688AE4204D1984284BF967803F8C4
:101A7000016B013C02F10402F3D1581A70BD00BFA2
:101A8000002004E0A05600088C560008022802BF7F
:101A9000014B01229A61704700040240022802BFF4
:101AA000024B4FF480329A61704700BF000402403D
:101AB000022801BF024A536983F001035361704752
:101AC000000402400FB404B07047000010B50023BA
:101AD000934203D0CC5CC4540133F9E710BD00003D
:101AE00003460246D01A12F9011B0029FAD17047A9
:101AF00002440346934202D003F8011BFAE7704701
:101B00002DE9F8431F4D144695F8242007468846D2
:101B100052BBDFF870909CB395F824302BB920228B
:101B2000FF2148462F62FFF7E3FF95F82400C0F13C
:101B30000802A24228BF2246D6B24146920005EBD7
:101B40008000FFF7C3FF95F82430A41B1E44F6B2B3
:101B5000082E17449044E4B285F82460DBD1FFF7E7
:101B600045FF0028D7D108E02B6A03EB82038342AC
:101B7000CFD0FFF73BFF0028CBD10020BDE8F88392
:101B80000120FBE7044B0020024B1A78024B1A702D
:101B9000704700BF404B00201C23002003494FF436
:101BA000E1330B60024B186802F0A8BC2C4B0020FC
:101BB00020230020094B10B51422044600211846AA
:101BC000FFF796FF064A074B127804600146BDE80E
:101BD000104053F8220002F091BC00BF2C4B0020B3
:101BE000404B0020202300202DE9F0470D460446FD
:101BF00000219046284640F27912FFF779FF2346EC
:101C000020220021284601F0DDFE231D0222202192
:101C1000284601F0D7FE631D03222221284601F049
:101C2000D1FEA31D03222521284601F0CBFE04F19D
:101C3000080310222821284601F0C4FE04F11003F5
:101C400008223821284601F0BDFE04F111030822C4
:101C50004021284601F0B6FE04F112030822482173
:101C6000284601F0AFFE04F114032022502128463B
:101C700001F0A8FE04F1180340227021284601F06B
:101C8000A1FE04F120030822B021284601F09AFEAB
:101C900004F121030822B821284601F093FE04F143
:101CA0002207C0263B46314608222846083601F066
:101CB00089FEB6F5A07F07F10107F3D104F13203E5
:101CC00008223146284601F07DFE002704F1330A40
:101CD00094F832304FEAC7099F4209F5A47615D32C
:101CE000B8F1000F08D1314604F599730722284650
:101CF00001F068FE09F24F16274694F832213B1B8B
:101D000093420CD3F01DC008BDE8F0870AEB07032F
:101D100008223146284601F055FE0137D8E707F280
:101D2000331331460822284601F04CFE08360137AD
:101D3000E3E7000013B5044608460021016023468E
:101D4000C0F803102022019001F03CFE0198231DF1
:101D50000222202101F036FE0198631D0322222178
:101D600001F030FE0198A31D0322252101F02AFE77
:101D7000019804F108031022282101F023FE072016
:101D800002B010BDF7B50023047F00910E46072274
:101D90001946054601F0DAFC731C0093012200236A
:101DA0000721284601F0D2FCC4B9B31C00930522D8
:101DB00023460821284601F0C9FC0D243746B27895
:101DC000BB1B934211D32B7FA88A0734E408BBB90D
:101DD000844294BF0020012003B0F0BDAB8ADB0039
:101DE000083BDB08B3700824E8E7FB1C009321469E
:101DF00000230822284601F0A9FC08340137DEE759
:101E0000201A18BF0120E7E7F7B50023047F0091EF
:101E10000E4608221946054601F098FC731CC4B909
:101E20000822009311462346284601F08FFC102417
:101E3000012372785F1C013B934211D32B7FA88A48
:101E40000734E408BBB9844294BF0020012003B0EA
:101E5000F0BDAB8ADB00083BDB0873700824E7E7C2
:101E6000F3190093214600230822284601F06EFC56
:101E700008343B46DDE7201A18BF0120E7E70000E1
:101E8000F8B50E4605461446002181223046FFF77C
:101E90002FFE2B4608220021304601F093FD7CB92D
:101EA0006B1C07220821304601F08CFD0F24012312
:101EB0006A785F1C013B934204D3E01DC008F8BD63
:101EC0000824F4E7EB1921460822304601F07AFD98
:101ED00008343B46ECE70000F8B50E4605461446CC
:101EE0000021CE223046FFF703FE2B462822002198
:101EF000304601F067FD7CB905F10803082228216E
:101F0000304601F05FFD30242F462A7A7B1B934236
:101F100004D3E01DC008F8BD2824F5E707F1090344
:101F200021460822304601F04DFD08340137ECE728
:101F3000F7B5047F00910E460123102200210546CB
:101F400001F004FCC4B9B31C0093092223461021FC
:101F5000284601F0FBFB192437467288BB1B9A42C6
:101F600011D82B7FA88A0734E408BBB9844294BFF8
:101F70000020012003B0F0BDAB8ADB00103BDB0882
:101F800073801024E8E73B1D0093214600230822BC
:101F9000284601F0DBFB08340137DEE7201A18BFC2
:101FA0000120E7E730B5094D0A4491420DD011F800
:101FB000013B5840082340F30004013B2C4013F040
:101FC000FF0384EA5000F6D1EFE730BD2083B8ED7F
:101FD000F7B54FF0FF33DFF854C0DFF854E000EB03
:101FE00081011A4688421CD050F8044B019401AF7D
:101FF000042417F8015B82EA05620825DB181646FF
:1020000005F1FF355241002EBCBF83EA0C0382EA82
:102010000E0215F0FF05F1D1013C14F0FF04E8D1E8
:10202000E0E7D843D14303B0F0BD00BF9336EAA93F
:10203000EBE1F042F7B5384A106851686B4603C3CC
:102040006A4636493648082303F090FA04460028C9
:1020500033D10A25334A106851686B4603C36A4678
:1020600031492F48082303F081FA0446002849D05B
:102070000369B3F5702F45D8B0F8661040F2F63218
:1020800091423FD1294A024402F15C018B4239D38B
:102090005C3B234900209E1AFFF784FF3246074627
:1020A00004F164010020FFF77DFFA3689F4229D15E
:1020B000E368984208BF002524E00369B3F5702F58
:1020C00027D8418B40F2F632914220D1174A024480
:1020D00002F110018B4218D3103B114900209D1AC8
:1020E000FFF760FF2A46064604F118010020FFF7BB
:1020F00059FFA3689E4202D1E368984201D00D25A2
:10210000A8E70025284603B0F0BD1025A2E70C255E
:10211000A0E70B259EE700BFC0560008DCFF0E00BD
:1021200000000108C956000890FF0E000800FFF7E4
:1021300010B5037C044613B9006803F0FFF920468C
:1021400010BD00000023BFF35B8FC360BFF35B8F44
:10215000BFF35B8F8360BFF35B8F7047BFF35B8F11
:102160000068BFF35B8F704770B505460C30FFF712
:10217000F5FF05F1080604463046FFF7EFFFA042E1
:1021800006D930466D68FFF7E9FF2544281A70BD6F
:102190003046FFF7E3FF201AF9E7000070B5054667
:1021A000406898B105F10800FFF7D8FF05F10C066B
:1021B00004463046FFF7D2FF8442304694BF6D6834
:1021C0000025FFF7CBFF013C2C44201A70BD000016
:1021D00038B50C460546FFF7C7FFA04210D305F1FE
:1021E0000800FFF7BBFF04446868B4FBF0F100FB94
:1021F0001144BFF35B8F0120AC60BFF35B8F38BD30
:102200000020FCE72DE9F041144607460D46FFF794
:10221000C5FF844228BF0446D4B1B84658F80C6BB9
:102220004046FFF79BFF3044286040467E68FFF73A
:1022300095FF331A9C4203D86C600120BDE8F08101
:102240006B60A41B3B68AB602044E8600220F5E7AC
:102250002046F3E738B50C460546FFF79FFFA0423E
:1022600010D305F10C00FFF779FF04446868B4FB54
:10227000F0F100FB1144BFF35B8F0120EC60BFF372
:102280005B8F38BD0020FCE72DE9FF418846694699
:102290000746FFF7B7FF6C4606B204EBC6060025FB
:1022A000B44209D06268206808EB0501FFF70EFC14
:1022B000636808341D44F3E729463846FFF7CAFF30
:1022C000284604B0BDE8F081F8B505460C300F464D
:1022D000FFF744FF05F1080604463046FFF73EFFCE
:1022E000A042304688BF6C68FFF738FF201A38607C
:1022F00020B130462C68FFF731FF2044F8BD0000C4
:1023000073B5144606460D46FFF72EFF844228BFDC
:1023100004460190DCB101A93046FFF7D5FF019BCF
:1023200033B93268C5E90233C5E9002401200CE065
:102330009C4238BF01942860019868608442F5D9B6
:102340003368AB60241AEC60022002B070BD2046F6
:10235000FBE700002DE9FF410F466946FFF7D0FF7C
:102360006C4600B204EBC0050026AC4209D0D4F89C
:10237000048054F8081BB8194246FFF7A7FB4644EF
:10238000F3E7304604B0BDE8F081000038B50546FB
:10239000FFF7E0FF044601462846FFF719FF2046F5
:1023A00038BD0000302383F3118862B67047000007
:1023B000002383F3118862B67047000010B40268EE
:1023C00054681A4623465DF8044B184701207047AD
:1023D00000207047002070477047000000207047C1
:1023E0000E20704700F5805090F8C800C0F3400000
:1023F0007047000000F5805090F9C9007047000058
:102400002DE9F3410C68BDF8207014F000541E460D
:1024100075D10B7B082B72D8FFF7C4FF4569AB68F9
:102420005B010DD4AB681B0109D4AC6814F0805477
:1024300063D1FFF7BDFF204602B0BDE8F081012463
:102440000B6804F1180C002BB8BFDB004FEA0C1C22
:10245000B4BF43F004035B0545F80C300B680FFA7A
:1024600084FC13F0804F18BF05EB0C1E05EB0C1C11
:102470001EBFDEF8803143F00203CEF880310B7BC3
:10248000CCF8843105EB04158B68C5F88C314B68AA
:10249000C5F8883100EB441303F583530D46103320
:1024A00001F10C0E55F8048B43F8048B7545F9D1F6
:1024B0002D881D8004F1840300EB431300EB4414CA
:1024C0001D7967F300051D71DCF8805104F5835414
:1024D00045F00105CCF88051C4E902261D7907F0CA
:1024E000020425F00A052C431C71FFF761FF0097D9
:1024F000334600F011FD01209EE70224A0E74FF0D3
:10250000FF3099E713B500F580540191E06DFFF7B6
:1025100045FE1F280AD90199E06D2022FFF7B4FE7D
:10252000A0F120035842584102B010BD0020FBE743
:1025300008B500F58050FFF735FFC06DFFF702FECC
:10254000BDE80840FFF734BF00220260828142608C
:102550008260704710B500220023C0E900230023E9
:10256000044603810C30FFF7EFFF204610BD00004A
:10257000F0B5054600F580500C4690F8C83013F0D1
:10258000040FC3F3800108BF114661F3820304F115
:10259000840680F8C83005EB461389B01B79D8074C
:1025A0002ED57AB319072DD46846FFF7D3FF05EB74
:1025B000441303F5835303F1180703AA1033186873
:1025C0005968144603C40833BB422246F7D1186841
:1025D00020609B88A380DDE90E23CDE90023012341
:1025E000ADF808302B686946DB6B2846984705EB49
:1025F00046152B791A075CBF43F008032B7101E0E5
:10260000002AF4D109B0F0BD2DE9F047074688B0A3
:1026100007F5805468469A468846FFF7C3FE914600
:10262000FFF798FFE06DFFF79FFD1F2829D9E06DA8
:1026300020226946FFF7AAFE202822D103AD444696
:1026400005AB2E4603CE9E4220606160354604F104
:102650000804F6D130682060B388A380DDE9002348
:10266000C9E90023BDF80830AAF80030FFF7A0FE42
:102670004A4653464146384608B0BDE8F04700F0A8
:1026800039BCFFF795FE002008B0BDE8F0870000D8
:102690002DE9F84F0023C0E90133254B044640F8EB
:1026A000183B0F46FFF750FF04F12800FFF752FFD9
:1026B00004F1480804F58255464608353046203670
:1026C000FFF748FFAE42F9D104F580554FF480532F
:1026D0004FF00009C5E91339C5F848800123EE65BC
:1026E00004F5875804F58456C5F8549085F8583099
:1026F00085F86030083608F108084FF0000A4FF0FE
:10270000000B46E908ABA6F11800FFF71DFF2036C5
:1027100046F8289C4645F4D185F8C97017B105489C
:1027200000F0D2FB044B63612046BDE8F88F00BF88
:10273000FC560008D45600080068004010B5044B51
:10274000197804464A1C1A70FFF7A2FF204610BDF4
:10275000484B00202DE9F047002950D0294B2A4F43
:10276000B7FBF1F599428CBF0A231123581EB5FB24
:10277000F3FC03FB1C53C4B22BB102280346F5D86B
:102780000020BDE8F0870CF1FF36B6F5806FF7D278
:10279000C4EBC40E0EF103034FEAE309C3F3C7030E
:1027A000A4EB030809F1010A4FF47A755FFA88F087
:1027B00009FB05555AFA88F8B5FBF8F5B5F5617FC0
:1027C000C1BF0EF1FF33C3F3C703E01AC0B25C1CF4
:1027D00050FA84F40CFB04F4B7FBF4F4A142CFD11B
:1027E000013BDBB20F2BCBD80138C0B20728C7D8CA
:1027F0000021107116809170D3700120C1E7084646
:10280000BFE700BF3F420F0080DE8002F8B50C4FEB
:1028100005460E464FF47A746B695B687A6903F07B
:10282000010382F00102B3427A6107D04FF47A705B
:1028300001F09EFF013CEFD12046F8BD0120FCE7EE
:102840000004024030B54269936913F0700F16D04E
:1028500000230B4C936103F1840200EB42121179C7
:102860004D0709D5890707D5416954F823508D6074
:10287000117941F0040111710133032BEBD130BD0B
:10288000E856000873B51D46436916469A68D20794
:10289000044609D59A6801219960C2F34002CDE946
:1028A00000650021FFF764FE63699A68D1050BD5C6
:1028B0009A684FF480719960C2F34022CDE90065B7
:1028C00001212046FFF754FE63699A68D2030BD5B5
:1028D0009A684FF480319960C2F34042CDE90065B7
:1028E00002212046FFF744FE204602B0BDE87040BA
:1028F000FFF7A8BFF8B50446466900296CD106F178
:102900000C07386880076AD006EB01153868D5F8DF
:10291000B00110F0040FD5F8B0011ABFC00840F0A4
:102920000040400DA061D5F8B0C11CF0020F1CBFE3
:1029300040F08040A061D5F8B40106EB011100F031
:102940000F0084F82400D1F8B8012077D1F8B8013D
:10295000000A6077D1F8B801000CA077D1F8B8016F
:10296000000EE077D1F8BC0184F82000D1F8BC015A
:10297000000A84F82100D1F8BC01000C84F8220080
:10298000D1F8BC11090E84F823103821396004F104
:10299000340004F1180104F1240551F8046B40F8E7
:1029A000046BA942F9D109880180C4E90A232146B0
:1029B0000023238651F8283B2046DB6B984704F51B
:1029C0008052204692F8C83043F0040382F8C830A1
:1029D000BDE8F840FFF736BF06F1100791E7F8BDF4
:1029E00010B5044600F078FA02460B4652EA03019D
:1029F00002D0013A63F100030449086820B121467E
:102A0000BDE81040FFF776BF10BD00BF444B00206B
:102A1000F8B500F583511E46FFF7C4FCDFF844C04B
:102A20000831002404F1840500EB45152B795F077C
:102A30000ED4DB060CD5D1E900739742B34107D21F
:102A400043695CF824709F602B7943F004032B7179
:102A50000134032C01F12001E4D1BDE8F840FFF777
:102A6000A7BC00BFE856000808B5FFF79BFCFFF7BE
:102A7000E9FEBDE80840FFF79BBC0000F8B54369DC
:102A80000546986800F0E050B0F1E05F0F461FD0B7
:102A9000E8B1FFF787FC05F583541034002606F1F2
:102AA000840305EB43131B791A0706D50136032E61
:102AB00004F12004F3D1012007E05B07F6D421469E
:102AC000384600F063FA0028F0D1FFF771FCF8BD3A
:102AD0000120FCE700F5805008B5FFF763FCC06DEE
:102AE000FFF742FBFFF764FC43090CBF0120002005
:102AF00008BD0000F8B51D46002313700F460646BA
:102B00001446FFF7E7FF80F00100387025B1294631
:102B10003046FFF7B3FF2070F8BD00002DE9B84143
:102B20000C4615461F46804600F0D6F90B46217824
:102B3000024609B9287850B14046FFF769FFFFF710
:102B400093FF3B462A462146FFF7D4FF0120BDE80C
:102B5000B881000010B5FFF725FC174B1A6C42F046
:102B600080621A641A6A42F080621A621A6A00F578
:102B7000805422F080621A62FFF71AFC94F8C83081
:102B8000DB0718D4B9B103213F20FFF70BFC01F09C
:102B9000E9FA0321402001F0E5FA0321412001F088
:102BA000E1FA94F8C83043F0010384F8C830BDE876
:102BB0001040FFF7FDBB10BD003802402DE9F04783
:102BC00000F5805688B096F8C930012B0446884637
:102BD000174678D8DFF8509259F823200AB949F8F7
:102BE0002300D9F800A0C4F80C802774BAF1000FB4
:102BF0005CD08C4BDFF834921A6C42F000721A648D
:102C00001A6A42F000721A621A6A22F000721A629C
:102C1000A3F5EA330025D3F8002242F00102C3F8FD
:102C20000022D3F8002202EA0902C3F80022D3F8F6
:102C3000002242F46062C3F800226FF07842C3F8C9
:102C40001452C3F80452C3F80C2244F20102C3F830
:102C50004052C3F84452C3F8B052C3F8B452C3F858
:102C60001C22D3F8002222F00102C3F80022012125
:102C70002046FFF76FFFFFF795FB6269136823F0AB
:102C8000020313606269136843F001031360636910
:102C90005D61FFF78DFB96F8C930B3B10121204685
:102CA000FFF7B4FD002842D163697FE041F2D00014
:102CB00002F004FC054610B15146FFF7E9FCC9F8E3
:102CC0000050002D95D1002073E06269D2F8001207
:102CD00041F00101C2F800126169D1F8002202EA54
:102CE0000902C1F800226169D1F8002242F4606251
:102CF000C1F800226269C2F814326269C2F8043273
:102D0000626941F6FF71C2F80C126269C2F8403282
:102D10006269C2F8443263690122C3F81C22626905
:102D2000D2F8003223F00103C2F80032B6E7F06DAA
:102D3000FFF708FA002504F58359AA4609F10809A6
:102D4000202200216846FEF7D3FE02A8FFF7FCFB15
:102D5000CDF818A06A4609EB05030DF1180E94464C
:102D6000BCE80300F44518605960624603F10803AB
:102D7000F5D1DCF80000186020359CF804201A71A9
:102D8000602DDDD196F8C8306FF38203002586F8F8
:102D9000C8306A4641462046ADF80050ADF80250B2
:102DA0008DF80450FFF7D6FC636928B94FF4004250
:102DB0001A6008B0BDE8F08761221A609DF8023001
:102DC0009DF803201B06120402F4702203F04073E6
:102DD0001343BDF80020C2F3090213439DF80420F9
:102DE0001205022F02F4E0020CBF4FF00041002157
:102DF000134362690B43D361636913225A616269A9
:102E0000136823F00103136029462046FFF7FEFCF8
:102E100000283FF449AF96F8C83043F0020386F823
:102E2000C830C6E700380240444B0020F1C0FFFF25
:102E300008B500F051F850EA0103024602D0421EE4
:102E400061F10001044B186810B10B46FFF71AFD41
:102E5000BDE8084001F064B8444B002008B50020EC
:102E6000FFF7BEFDBDE8084001F05AB808B50120E3
:102E7000FFF7B6FDBDE8084001F052B800B59BB0C1
:102E8000EFF3098168226846FEF720FEEFF3058321
:102E9000014B9B6BFEE700BF00ED00E008B5FFF7BC
:102EA000EDFF000000B59BB0EFF309816822684692
:102EB000FEF70CFEEFF30583014B5B6BFEE700BFF3
:102EC00000ED00E0FEE700000FB408B5029801F045
:102ED000E5FBFEE701F014BF01F0ECBE13B56C4654
:102EE00084E80600031D94E8030083E80500012040
:102EF00002B010BD73B58568019155B11B885B07A1
:102F000007D4D0E900369B6B9847019AC1B230468E
:102F1000A847012002B070BDF0B5866889B00546AB
:102F20000C465EB1BDF838305B070AD4D0E90037F3
:102F30009B6B98472246C1B23846B047012009B082
:102F4000F0BD00220023CDE900230023ADF80830B6
:102F50000A4603AB01F10806106851681C4603C419
:102F60000832B2422346F7D1106820609288A280CE
:102F7000FFF7B2FF0423ADF808302B68CDE900015C
:102F8000DB6B694628469847D8E7000030B50368F0
:102F90000968DD0FB5EBD17F23F0604421F060427A
:102FA0004FEAD1700BD0002BB8BFA40C0029B8BFDA
:102FB000920C944202D034BF0120002030BD9442D4
:102FC00005D1C1F38070C3F380738342F6D194427C
:102FD0002CBF00200120F1E72DE9F041456A15B929
:102FE0004162BDE8F0814B6823F06047C3F38A4635
:102FF0004FEAD37EC3F3807816EA230638BF3E46F5
:10300000AC462B465A68BEEBD27F22F060440AD011
:10301000002A18DAA40CB44217D19D420FD10D60DA
:10302000DEE71346EEE7A74207D102F08044C2F381
:10303000807242450BD054B1EFE708D2EDE7CCF8EF
:1030400000100B60CDE7B44201D0B442E5D81A6855
:103050009C46002AE5D11960C3E700002DE9F0473E
:10306000089D01F007044FEAD508224405F0070542
:1030700000EBD1004FF47F49944201D1BDE8F087C5
:1030800004F0070705F0070A57453E4638BF564685
:10309000C6F10806111B8E4228BF0E46E10808EB58
:1030A000D50E415C13F80EC0B94029FA06F721FA93
:1030B0000AF1FFB28CEA010147FA0AF739408CEABB
:1030C000010C03F80EC034443544D5E780EA0120F2
:1030D000082341F2210201B24000002980B203F12D
:1030E000FF33B8BF504013F0FF03F4D17047000026
:1030F00038B50C468D18A54200D138BD14F8011B17
:10310000FFF7E4FFF7E7000042684AB11368436045
:103110004389818901339BB29942438138BF8381BE
:103120001046704770B588B0202204460D466846A8
:103130000021FEF7DDFC20460495FFF7E5FF02467F
:1031400058B16B46054608AE1C4603CCB442286015
:103150006960234605F10805F6D1104608B070BD38
:10316000082817D909280CD00A280CD00B280CD015
:103170000C280CD00D280CD00E2814BF4020302075
:1031800070470C207047102070471420704718209B
:103190007047202070470000082817D90C280CD948
:1031A00010280CD914280CD918280CD920280CD98F
:1031B00030288CBF0F200E207047092070470A204E
:1031C00070470B2070470C2070470D20704700009F
:1031D0002DE9F843078C072F04461ED9D0E9029841
:1031E00000254FF6FF73C5F12006A5F1200029FA4E
:1031F00005F108FA06F628FA00F031430143C9B296
:103200001846FFF763FF0835402D0346EBD1E1690F
:103210003A46BDE8F843FFF76BBF4FF6FF70BDE8D5
:10322000F883000010B54B6823B9CA8A63F309021A
:10323000CA8210BD04691A681C600361C38A013B1D
:10324000C3824A60EFE700002DE9F84F1D46CB8AA4
:103250000F46C3F309010529814692460B4630D03B
:103260000020AAB207F11A049EB2042E1FFA80F8B9
:103270000FD8904503F1010306D3FB8A0A4462F399
:103280000903FB8201201AE01AF80060E6540130BD
:10329000EAE79045F1D2A1F1050B1C237C68BBFB4A
:1032A000F3F203FB12BB1FFA8BF6002C45D1484604
:1032B000FFF72AFF044638B978606FF00200BDE8D6
:1032C000F88F4FF00008E6E7002606607860ADB2A0
:1032D0004FF0000B454510D90AEB0803221D13F8E7
:1032E000011B9155B1B208F101081B291FFA88F89A
:1032F0002BD0454506F10106F1D8FB8AC3F309023C
:10330000154465F30903BCE7013292B21C462368F9
:10331000002BF9D16B1F0B441C21B3FBF1F30133DC
:103320009BB29A42D3D2BBF1000FD0D14846FFF7EF
:10333000EBFE20B9C4F800B0BFE70122E7E7C0F810
:1033400000B05E4620600446C1E74545D5D94846F1
:10335000FFF7DAFE08B92060AFE7C0F800B000263A
:1033600020600446B6E700002DE9F04F2DED028BFA
:103370001C4683B05B69019207468846002B00F02B
:103380009A80238C2BB1E269002A00F09480072BED
:1033900035D807F10C00FFF7B7FE054638B96FF0D6
:1033A0000205284603B0BDEC028BBDE8F08F142265
:1033B0000021FEF79DFB228CE16905F10800FEF774
:1033C00085FB208C013080B2FFF7E6FEFFF7C8FED8
:1033D000013880B22084013028746369228C1B7804
:1033E0002A4403F01F0363F03F0348F000411372C7
:1033F000384669602946FFF7EFFD0125D1E700F166
:103400000C034FF0000908EE103A4FF0800A4E46C8
:103410004D4618EE100AFFF777FE83460028BED00F
:1034200014220021FEF764FB002E3AD1019BABF879
:10343000083002220BF1080E1FFA82FC0CF1010089
:10344000BCF1060F218C80B201D88E422BD3FFF73E
:10345000A3FEFFF785FE62691278013802F01F02B1
:103460008E4208BF4FF0400A42EA49121BFA80F12F
:103470004AEA020A013048F0004281F808A08BF8BD
:103480001000CBF8042059463846FFF7A5FD238CE1
:103490000135B3422DB289F001094FF0000AB8D1CD
:1034A0007FE70022C6E7E169895D0EF80210013668
:1034B000B6B20132C0E76FF0010572E7F8B5154604
:1034C0000E463022002104461F46FEF711FB069BE4
:1034D0006360B5F5001F079BA76034BF6A094FF60C
:1034E000FF72A36297B2E66104F1100000239A42D2
:1034F00006D800230360A782E3822383E360F8BD3C
:103500000660013330462036F1E7000003781BB92E
:103510004BB2002BC8BF01707047000000787047A5
:10352000F8B50C46C969074611B9238C002B37D171
:10353000257E1F2D34D8387828BB228C072A2CD81A
:10354000268A36F003032BD14FF6FF70FFF7D0FD2C
:1035500020F001003102400441EA0561400C41EADB
:1035600040254FF6FF72234629463846FFF7FCFEFA
:10357000002807DD626913780133DBB21F2B88BF97
:1035800000231370F8BD218A2D0645EA0125054365
:103590002046FFF71DFE0246E5E76FF00300F1E766
:1035A0006FF00100EEE7000070B58AB004461646E1
:1035B0000021282268461D46FEF79AFABDF83830E9
:1035C000ADF810300F9B05939DF840308DF8183002
:1035D000119B07936946BDF84830ADF8203020466E
:1035E000CDE90265FFF79CFF0AB070BD2DE9F041FF
:1035F000D36905460C4616460BB9138C5BBB377E68
:103600001F2F28D895F80080B8F1000F26D030463B
:10361000FFF7DEFD3378210241EAC33141EA0801B8
:10362000338A41EA076141EA03410246334641F0E9
:1036300080012846FFF798FE00280ADD3378012B29
:1036400007D1726913780133DBB21F2B88BF0023C7
:103650001370BDE8F0816FF00100FAE76FF003002E
:10366000F7E70000F0B58BB004460D461746002181
:10367000282268461E46FEF73BFA9DF84C305A1E3B
:10368000534253418DF800309DF84030ADF8103072
:10369000119B05939DF848308DF81830149B0793C3
:1036A0006A46BDF85430ADF8203029462046CDE9B1
:1036B0000276FFF79BFF0BB0F0BD0000406A00B13F
:1036C00004307047436A1A68426202691A600361F3
:1036D000C38A013BC38270472DE9F041D0F82080B6
:1036E000194E14461D464146002709B9BDE8F08130
:1036F000D1E90223A21A65EB0303964277EB030399
:103700001ED2036A8B420DD1FFF78CFD036A1B6842
:10371000036203690B60C38A0161016A013BC382D2
:103720008846E2E7FFF77EFD0B68C8F800300369C2
:103730000B60C38A0161013BC382D8F80010D4E753
:1037400088460968D1E700BF80841E002DE9F04F4C
:103750008BB00D46DDF8509014469B4680460028FD
:1037600000F01981B9F1000F00F01581531E3F2BB5
:1037700000F21181012A03D1BBF1000F40F00B814F
:103780000023CDE90833B8F81430B5EBC30F4FEA86
:10379000C30703D300200BB0BDE8F08F2B199F4265
:1037A000D8F80C303ABF7F1BFFB227461BB9D8F8B8
:1037B0001030002B7AD0272D4ED8C5F12806B742FD
:1037C0004FF000032CBFF6B23E4600932946D8F8CE
:1037D000080008AB3246FFF741FCA7EB060A354468
:1037E0005FFA8AFAB8F8143003F10053053BDB00A6
:1037F0000493D8F80C3003932821039B13B1BAF13A
:10380000000F2CD1D8F8100040B1BAF1000F05D04C
:10381000009608AB5246691AFFF720FC38B2002F19
:10382000B8D066070AD00AAB03EBD401624211F8A4
:10383000083C02F00702134101F8083C082C3CD96F
:10384000102C40F2B580202C40F2B780BBF1000F65
:1038500000F09C80082334E0BA460026C2E7049BAF
:10386000E02B28BFE02306930B44AB42059314D909
:103870005A1B03980096924534BF5246D2B2691A39
:1038800008AB04300792FFF7E9FB079A1644AAEB4E
:10389000020A1544F6B25FFA8AFA049B069A059961
:1038A0009B1A0493039B1B680393A6E70093D8F825
:1038B000080008AB3A462946AEE7BBF1000F13D02B
:1038C0000123B4EBC30F6CD0082C12D89DF8203024
:1038D000621E23FA02F2D50706D54FF0FF3202FA34
:1038E00004F423438DF820309DF8203089F800300F
:1038F00051E7102C12D8BDF82030621E23FA02F2D4
:10390000D10706D54FF0FF3202FA04F42343ADF895
:103910002030BDF82030A9F800303CE7202C0FD82B
:103920000899631E21FA03F3DA0705D54FF0FF3239
:1039300002FA04F40C430894089BC9F800302AE703
:10394000402C2BD0DDE90865611EC4F12102A4F1F1
:10395000210326FA01F105FA02F225FA03F31143D5
:103960001943CB0712D50122A4F12003C4F1200191
:1039700002FA03F322FA01F1A240524243EA0103A0
:1039800063EB430332432B43CDE90823DDE90823EE
:10399000C9E90023FFE66FF00100FCE66FF00800C4
:1039A000F9E6082CA0D9102CB3D9202CEED8C3E707
:1039B000BBF1000FADD0022383E7BBF1000FBBD0FA
:1039C00004237EE730B5012A144638BF0124402C79
:1039D00085B028BF40240025012ACDE9025518D81A
:1039E0001B788DF8083063070AD004AB03EBD405CD
:1039F000624215F8083C02F00702934005F8083CC3
:103A0000009103462246002102A8FFF727FB05B0DC
:103A100030BD082AE4D9102A03D81B88ADF8083035
:103A2000E1E7202A8DBFD3E900231B680293CDE98B
:103A30000223D8E710B5CB681BB98B600B618B8272
:103A400010BD04691A681C600361C38A013BC3820C
:103A5000CA60F0E703064CBFC0F3C03002207047D5
:103A600008B50246FFF7F6FF022806D15306C2F357
:103A70000F2001D100F0030008BDC2F30740FBE7AF
:103A80002DE9F04F93B0CDE903230A6804461046B0
:103A9000FFF7E0FF022814BFC2F306260026002A23
:103AA0000D46824680F2F28112F0C04940F0EE816C
:103AB000097B002900F0EA81022803D02378B34271
:103AC00040F0E781C2F304630693104602F07F03DF
:103AD0000593FFF7C5FF059B29444FEA834848EA51
:103AE0000A4848EA4668CE7800230022CDE9082338
:103AF000F309834648EA0008029367D0059B0093C8
:103B000002466768534608A92046B847002800F0D7
:103B1000C381276A4FB9414604F10C00FFF702FB4D
:103B2000074690B96FF0020054E03B6998450DD00C
:103B30003F68002FF9D1414604F10C00FFF7F2FA7B
:103B400007460028EED0236A3B60276297F817C02B
:103B500006F01F08CCF3840CACEB08001FFA80FEC3
:103B60000028B8BF0EF12000A8EB0C031FFA83FE5B
:103B7000D7E90221B8BF00B2002B0793BEBF0EF1F8
:103B800020031BB2079352EA010338D0039BDFF8EE
:103B900024E39A1A049B4FF0000C63EB0101964555
:103BA0007CEB01032BD36B7B97F81AE0734519D19B
:103BB000029B002B78D0012821DC7868F8B9DFF867
:103BC000F0C2944570EB010316D337E0276A27B99A
:103BD0006FF00C0013B0BDE8F08F3B699845B5D08D
:103BE0003F68F4E7B24890427CEB010301D3002028
:103BF000F0E7029B002BFAD0079B0F2B17DCFA7D16
:103C0000B30002F0030203F07C031343FB75394653
:103C10002046FFF707FB6B7BBB76029B3BB9FB7D26
:103C2000C3F38402013262F38603FB75D0E76A7B3B
:103C3000BB7E9A42DBD1029B002B35D0B309022B0D
:103C400032D0039BBB60049BFB60142200210DA8B3
:103C5000FDF74EFF039B0A93049B0B932B1D0C93C4
:103C60002B7BADF83EB0013BDBB2ADF83C30069BA0
:103C70008DF84230059B8DF8433094F82C308DF848
:103C800040A083F001038DF844308DF84180A36893
:103C90000AA920469847FB7DC3F38403013303F050
:103CA0001F039B02FB82A2E7FB7DC6F34012B2EB2F
:103CB000D31F40F0F480C3F38403434540F0F28007
:103CC000029A2B7BB609002A4DD0F2075DD4032B54
:103CD00040F2EB80039BBB60049BFB602B7BAE1D23
:103CE000033BDBB23246394604F10C00FFF7ACFA75
:103CF00000280CDA39462046FFF794FAFB7DC3F31F
:103D00008403013303F01F039B02FB820AE7DDE912
:103D10000884AB883B834FF6FF73C9F12000A9F1FB
:103D2000200228FA09F104FA00F0014324FA02F211
:103D300011431846C9B2FFF7C9F909F10809B9F1E9
:103D4000400F0346E9D1B8822A7B033AD2B231460A
:103D5000FFF7CEF9FB7DB882DA43C2F3C01262F3FB
:103D6000C713FB7543E786B92E1D013BDBB2324614
:103D7000394604F10C00FFF767FA0028BADB2A7B0A
:103D8000B88A013AD2B23146E2E7F98AC1F30901B1
:103D9000013B0429DAB25BD8281D002307F11B067A
:103DA0009A4208D910F801CB06F801C0013101335D
:103DB0000529DBB2F4D103990A9104990B9193423E
:103DC00007F11B010C9138BF043379680D9134BFA2
:103DD00055FA83F300230E93FB8AADF83EB0C3F38C
:103DE00009031A44069B8DF84230059B8DF8433039
:103DF00094F82C30ADF83C2083F001038DF844306A
:103E000000238DF840A08DF841807B602A7BB88A22
:103E1000013A291DFFF76CF93B8BB882834203D12D
:103E2000A3680AA92046984720460AA9FFF702FE80
:103E3000FB7DBA8AC3F38403013303F01F039B02A3
:103E4000FB823B8B9A420CBF00206FF01000C1E652
:103E50007B68002BAFD0052001E01C3033461E6884
:103E6000002EFAD1091A081D2E1D184401EB090C69
:103E7000BCF11B0F5FFA89F39DD89A429BD916F8C3
:103E8000013B00F8013B09F10109EFE76FF0090080
:103E9000A0E66FF00A009DE66FF00B009AE66FF067
:103EA0000D0097E66FF00E0094E66FF00F0091E6BC
:103EB00040420F0080841E00EFF3098305494A6BDE
:103EC00022F001024A63683383F30988002383F3F5
:103ED0001188704700EF00E0302080F3118862B64F
:103EE0000C4B0D4AD96821F4E0610904090C0A431E
:103EF000DA60D3F8FC20094942F08072C3F8FC2054
:103F00000A6842F001020A602022DA7783F8220070
:103F1000704700BF00ED00E00003FA05001000E06C
:103F200010B5302383F311880E4B5B6813F40063E4
:103F300014D0F1EE103AEFF30984683C4FF080732F
:103F4000E361094BDB6B236684F3098800F064FBB3
:103F500010B1064BA36110BD054BFBE783F311883D
:103F6000F9E700BF00ED00E000EF00E043060008C5
:103F700046060008026843681143016003B1184710
:103F800070470000024AD36843F0C003D360704713
:103F90000010014010B5084C084A0021204600F0EE
:103FA0008BFA074BC4F85C3203F1454303F52D430C
:103FB000C4F8603210BD00BF504B0020853F0008A0
:103FC00000100140234A037C002918BF0A46012B38
:103FD00030B5C0F868220CD11F4B984209D11F4B55
:103FE000596C41F010015964596E41F01001596645
:103FF0005B6EB2F904501468D0F86032D0F85C12ED
:10400000002D03EB5403B3FBF4F3BEBF23F007050D
:1040100003F0070343EA450394888B60D38843F099
:1040200040030B61138943F001034B6144F40453D3
:1040300043F02C03CB6004F4A05400230B60B4F5D0
:10404000806F0B684B680CBF7F23FF2380F86432BE
:1040500030BD00BF3C570008504B002000380240E4
:104060002DE9F041D0F85C62F7683368DA05044660
:104070009DB20DD5302383F311884FF48061043055
:10408000FFF778FF6FF480733360002383F31188A8
:10409000302383F3118804F1040815F02F033AD17B
:1040A00083F31188380615D5290613D5302383F3F9
:1040B000118804F1380000F07BF900284EDA08215D
:1040C000201DFFF757FF4FF67F733B40F36000233F
:1040D00083F311887A0616D56B0614D5302383F343
:1040E0001188D4E913239A420AD1236C43B127F0F3
:1040F00040073F041021201D3F0CFFF73BFFF760F6
:10410000002383F31188D4F86822D36843B3BDE851
:10411000F041106918472B0714D015F0080F0CBF99
:1041200000214FF48071E80748BF41F02001AA0741
:1041300048BF41F040016B0748BF41F08001404655
:10414000FFF718FFAD06736805D594F86412204692
:10415000194000F0E1F93568ADB29EE77060B6E74E
:10416000BDE8F08100F1604303F561430901C9B284
:1041700083F80013012200F01F039A4043099B00BB
:1041800003F1604303F56143C3F880211A6070476F
:10419000F8B5154682680669AA420B46816938BFA0
:1041A0008568761AB54204460BD218462A46FDF7B2
:1041B0008DFCA3692B44A361A3685B1BA360284605
:1041C000F8BD0CD918463246FDF780FCAF1BE168FC
:1041D0003A463044FDF77AFCE3683B44EBE7184687
:1041E0002A46FDF773FCE368E5E700008368934225
:1041F000F7B51546044638BF8568D0E90460361A1D
:10420000B5420BD22A46FDF761FC63692B4463611A
:10421000A36828465B1BA36003B0F0BD0DD93246EE
:104220000191FDF753FC0199E068AF1B3A46314418
:10423000FDF74CFCE3683B44E9E72A46FDF746FC02
:10424000E368E4E710B50A440024C361029B84607C
:10425000C0E90000C0E90511C1600261036210BD40
:1042600008B5D0E90532934201D1826882B98268EB
:10427000013282605A1C42611970D0E904329A42BC
:1042800024BFC3684361002100F08EFA002008BDFE
:104290004FF0FF30FBE7000070B5302304460E46B8
:1042A00083F31188A568A5B1A368A269013BA36047
:1042B000531CA36115782269934224BFE368A3616C
:1042C000E3690BB120469847002383F31188284601
:1042D00007E03146204600F057FA0028E2DA85F37D
:1042E000118870BD2DE9F74F04460E4617469846D3
:1042F000D0F81C904FF0300A8AF311884FF0000B71
:10430000154665B12A4631462046FFF741FF034670
:1043100060B94146204600F037FA0028F1D000236A
:1043200083F31188781B03B0BDE8F08FB9F1000F5B
:1043300003D001902046C847019B8BF31188ED1AEA
:104340001E448AF31188DCE7C0E90511C160C3612E
:104350001144009B8260C0E9000001610362704764
:10436000F8B504460D461646302383F31188A76836
:10437000A7B1A368013BA36063695A1C62611D7009
:10438000D4E904329A4224BFE3686361E3690BB164
:1043900020469847002080F3118807E031462046E8
:1043A00000F0F2F90028E2DA87F31188F8BD000086
:1043B000D0E905239A4210B501D182687AB98268A2
:1043C000013282605A1C82611C7803699A4224BFC0
:1043D000C3688361002100F0E7F9204610BD4FF06B
:1043E000FF30FBE72DE9F74F04460E461746984687
:1043F000D0F81C904FF0300A8AF311884FF0000B70
:10440000154665B12A4631462046FFF7EFFE0346C2
:1044100060B94146204600F0B7F90028F1D00023EA
:1044200083F31188781B03B0BDE8F08FB9F1000F5A
:1044300003D001902046C847019B8BF31188ED1AE9
:104440001E448AF31188DCE7026843681143016067
:1044500003B11847704700001430FFF743BF000056
:104460004FF0FF331430FFF73DBF00003830FFF747
:10447000B9BF00004FF0FF333830FFF7B3BF000083
:104480001430FFF709BF00004FF0FF311430FFF781
:1044900003BF00003830FFF763BF00004FF0FF326A
:1044A0003830FFF75DBF0000012914BF6FF0130023
:1044B00000207047FFF76EBD37B515460E4A026003
:1044C00000224260C0E902220122044602740B4627
:1044D000009000F15C014FF480721430FFF7B2FEDF
:1044E00000942B464FF4807204F5AE7104F138004D
:1044F000FFF72AFF03B030BD5057000810B5302336
:10450000044683F31188FFF75DFD02232374002026
:1045100080F3118810BD000038B5C36904460D460C
:104520001BB904210844FFF78FFF294604F114004A
:10453000FFF796FE002806DA201D4FF40061BDE863
:104540003840FFF781BF38BD0023037582680369D7
:104550001B6899689142FBD25A6803604260106000
:104560005860704700230375826803691B68996867
:104570009142FBD85A6803604260106058607047EF
:1045800008B50846302383F311880B7D032B05D033
:10459000042B0DD02BB983F3118808BD8B69002241
:1045A0001A604FF0FF338361FFF7CEFF0023F2E77D
:1045B000D1E9003213605A60F3E70000FFF7C4BF8F
:1045C000054BD9680875186802681A6053600122A3
:1045D0000275D860FCF720B8C04D002030B50C4BF8
:1045E000DD684B1C87B004460FD02B46094A68464D
:1045F00000F06CF92046FFF7E3FF009B13B168461B
:1046000000F06EF9A86907B030BDFFF7D9FFF9E7F0
:10461000C04D002081450008044B1A68DB68906893
:104620009B68984294BF002001207047C04D002035
:10463000084B10B51C68D86822681A6053600122C4
:104640002275DC60FFF78EFF01462046BDE8104072
:10465000FBF7E2BFC04D0020044B1A68DB6892688C
:104660009B689A4201D9FFF7E3BF7047C04D002015
:1046700038B5074C074908480123002523706560B9
:1046800000F042FC0223237085F3118838BD00BF7F
:10469000285000207C570008C04D002008B572B695
:1046A000044B186500F0EAFA00F0A8FB024B032265
:1046B0001A70FEE7C04D00202850002000F046B9D7
:1046C000EFF3118020B9EFF30583302282F31188D4
:1046D0007047000010B530B9EFF30584C4F3080447
:1046E00014B180F3118810BDFFF7B6FF84F3118871
:1046F000F9E700008B60022308618B82084670474F
:104700008368A3F1840243F8142C026943F8442C13
:10471000426943F8402C094A43F8242CC26843F804
:10472000182C022203F80C2C002203F80B2C044A4C
:1047300043F8102CA3F12000704700BF3106000899
:10474000C04D002008B5FFF7DBFFBDE80840FFF7CC
:1047500035BF0000024BDB6898610F20FFF730BFC8
:10476000C04D0020302383F31188FFF7F3BF000012
:1047700008B50146302383F311880820FFF72EFF88
:10478000002383F3118808BD064BDB6839B142680A
:1047900018605A60136043600420FFF71FBF4FF09A
:1047A000FF307047C04D00200368984206D01A6859
:1047B0000260506099611846FFF700BF7047000023
:1047C00010B503689C68A2420CD85C688A600B60D4
:1047D0004C602160596099688A1A9A604FF0FF33E3
:1047E000836010BD1B68121BECE700000A2938BF6C
:1047F0000A2170B504460D460A26601900F07EFBBA
:1048000000F06AFB041BA54203D8751C2E46044623
:10481000F3E70A2E04D9BDE87040012000F0B4BBD4
:1048200070BD0000F8B5144B0D46D96103F11001BD
:1048300041600A2A1969826038BF0A220160486013
:104840001861A818144600F04BFB0A2700F044FB3F
:10485000431BA342064606D37C1C281900F04EFBDE
:1048600027463546F2E70A2F04D9BDE8F840012073
:1048700000F08ABBF8BD00BFC04D0020F8B5064669
:104880000D4600F029FB0F4A134653F8107F9F4254
:1048900006D12A4601463046BDE8F840FFF7C2BFC0
:1048A000D169BB68441A2C1928BF2C46A34202D9EF
:1048B0002946FFF79BFF224631460348BDE8F840F2
:1048C000FFF77EBFC04D0020D04D002010B4C0E9DE
:1048D000032300235DF8044B4361FFF7CFBF0000C3
:1048E00010B5194C236998420DD0D0E90032816887
:1048F00013605A609A680A449A60002303604FF07C
:10490000FF33A36110BD2346026843F8102F5360A4
:104910000022026022699A4203D1BDE8104000F0F3
:10492000E7BA936881680B44936000F0D5FA226976
:10493000E1699268441AA242E4D91144BDE81040EA
:10494000091AFFF753BF00BFC04D00202DE9F04703
:10495000DFF8BC8008F110072C4ED8F8105000F09A
:10496000BBFAD8F81C40AA68031B9A423ED81444EC
:10497000D5E900324FF00009C8F81C4013605A60B6
:10498000C5F80090D8F81030B34201D100F0B0FA69
:1049900089F31188D5E9033128469847302383F3FA
:1049A00011886B69002BD8D000F096FA6A69A0EBE9
:1049B00004094A4582460DD2022000F0E5FA0022A1
:1049C000D8F81030B34208D151462846BDE8F04728
:1049D000FFF728BF121A2244F2E712EB090938BF89
:1049E0004A4629463846FFF7EBFEB5E7D8F81030BF
:1049F000B34208D01444211AC8F81C00A960BDE8CD
:104A0000F047FFF7F3BEBDE8F08700BFD04D0020B0
:104A1000C04D002000207047FEE7000070470000F6
:104A20004FF0FF3070470000BFF34F8F024AD3684A
:104A3000DB03FCD4704700BF003C024008B5094BC3
:104A40001B7873B9FFF7F0FF074B1A69002ABFBF45
:104A5000064A5A6002F188325A601A6822F480626B
:104A60001A6008BD30500020003C02402301674519
:104A700008B50B4B1B7893B9FFF7D6FF094B1A69A2
:104A800042F000421A611A6842F480521A601A68B1
:104A900022F480521A601A6842F480621A6008BDDB
:104AA00030500020003C02400B28F0B516D80C4CCA
:104AB0000C4923787BB90C4D0E460C234FF0006255
:104AC00055F8047B46F8042B013B13F0FF033A44EE
:104AD000F6D10123237051F82000F0BD0020FCE73F
:104AE000645000203450002088570008014B53F8D0
:104AF00020007047885700080C2070470B2810B51D
:104B0000044601D9002010BDFFF7CEFF064B53F835
:104B100024301844C21A0BB90120F4E7126801329C
:104B2000F0D1043BF6E700BF885700080B2810B50A
:104B3000044621D8FFF778FFFFF780FF0F4AF323E1
:104B4000D360C300DBB243F4007343F0020313618C
:104B5000136943F480331361FFF766FFFFF7A4FF87
:104B6000074B53F8241000F045F9FFF781FF20466A
:104B7000BDE81040FFF7C2BF002010BD003C02405E
:104B800088570008F8B512F00103144642D1821884
:104B9000B2F1016F57D82D4B1B6813F0010352D0AF
:104BA0002B4DFFF74BFFF323EB60FFF73DFF40F288
:104BB0000127032C15D824F001046618244C401A50
:104BC00040F20117B142236900EB010524D123F023
:104BD00001032361FFF74CFF0120F8BD043C0430C2
:104BE000E7E78307E7D12B6923F440732B612B6937
:104BF0003B432B6151F8046B0660BFF34F8FFFF707
:104C000013FF03689E42E9D02B6923F001032B6157
:104C1000FFF72EFF0020E0E723F4407323612369B0
:104C20003B4323610B882B80BFF34F8FFFF7FCFEC4
:104C30002D8831F8023BADB2AB42C3D0236923F0DB
:104C400001032361E4E71846C7E700BF00380240CC
:104C5000003C0240084908B50B7828B11BB9FFF7A2
:104C6000EDFE01230B7008BD002BFCD0BDE8084011
:104C70000870FFF7FDBE00BF3050002008B54FF4AC
:104C800000314FF0005000F0B7F8BDE808404FF495
:104C900080314FF0805000F0AFB800000846114658
:104CA00000F02EBC012000F02BBC0000084600F0F4
:104CB00045BC000070B582B0FFF702FD0E4E054600
:104CC00000F00AF93268904237BF0C4A0B4951682C
:104CD00014682EBFD1E90041013151600419034627
:104CE00041F10001284601913360FFF7F3FC01997F
:104CF000204602B070BD00BF6850002070500020F8
:104D000070B582B0FFF7DCFC104E054600F0E4F809
:104D10003268904237BF0E4A0D49516814682EBF61
:104D2000D1E9004101315160041941F1000103460C
:104D3000284601913360FFF7CDFC01994FF47A7258
:104D400000232046FBF754FA02B070BD68500020E3
:104D50007050002010B50244064BD2B2904200D1F0
:104D600010BD441C00B253F8200041F8040BE0B21F
:104D7000F4E700BF502800400F4B30B51C6F2404EF
:104D800007D41C6F44F400741C671C6F44F4004487
:104D90001C670A4C236843F4807323600244084B69
:104DA000D2B2904200D130BD441C00B251F8045B35
:104DB00043F82050E0B2F4E70038024000700040B1
:104DC0005028004007B5012201A90020FFF7C2FFCB
:104DD000019803B05DF804FB13B50446FFF7F2FF3A
:104DE000A04205D0012201A900200194FFF7C4FFD1
:104DF00002B010BD7047000070470000704700000F
:104E0000074B45F255521A6002225A6040F6FF7273
:104E10009A604CF6CC421A60024B01221A7070471D
:104E2000003000407C500020034B1B781BB1034B2B
:104E30004AF6AA221A6070477C50002000300040D9
:104E4000034B1A681AB9034AD2F874281A607047DB
:104E50007850002000300240024B4FF08072C3F8BF
:104E6000742870470030024008B5FFF7E9FF024B95
:104E70001868C0F3407008BD7850002008B5FFF7EF
:104E8000DFFF024B1868C0F3007008BD78500020A7
:104E900070470000FEE700000A4B0B480B4A9042A7
:104EA0000BD30B4BDA1C121AC11E22F003028B42E9
:104EB00038BF00220021FCF71BBE53F8041B40F84A
:104EC000041BECE75059000808510020085100204D
:104ED0000851002000F0D0B84FF08043586A704766
:104EE0004FF08043002258631A610222DA60704753
:104EF0004FF080430022DA60704700004FF080439B
:104F000058637047FEE7000070B51B4B0163002536
:104F1000044686B0586085620E46FEF7DDFF04F158
:104F20001003C4E904334FF0FF33C4E90635C4E984
:104F30000044A560E562FFF7CFFF2B460246C4E9B7
:104F4000082304F134010D4A256580232046FFF72C
:104F5000D1FB0123E0600A4A037500927268019256
:104F6000B268CDE90223074B6846CDE90435FFF767
:104F7000E9FB06B070BD00BF28500020B8570008FC
:104F8000BD570008054F0008024AD36A1843D06293
:104F9000704700BFC04D00204B6843608B68836042
:104FA000CB68C3600B6943614B6903628B694362E1
:104FB0000B6803607047000008B5264B26481A6945
:104FC00040F2FF110A431A611A6922F4FF7222F0BB
:104FD00001021A611A691A6B0A431A631A6D0A43AD
:104FE0001A651E4A1B6D1146FFF7D6FF02F11C0120
:104FF00000F58060FFF7D0FF02F1380100F5806016
:10500000FFF7CAFF02F1540100F58060FFF7C4FF0B
:1050100002F1700100F58060FFF7BEFF02F18C0124
:1050200000F58060FFF7B8FF02F1A80100F580608D
:10503000FFF7B2FF02F1C40100F58060FFF7ACFF9B
:1050400002F1E00100F58060FFF7A6FFBDE808402F
:1050500000F08EB80038024000000240C45700083B
:1050600008B500F007FAFFF703FBBDE80840FFF7BB
:10507000E7BE0000704700000F4B1A6C42F00102BF
:105080001A641A6E42F001021A660C4A1B6E93688B
:1050900043F0010393604FF0804353229A624FF034
:1050A000FF32DA6200229A615A63DA605A600122A2
:1050B0005A611A60704700BF00380240002004E0C7
:1050C0004FF0804208B51169D3680B40D9B2C9438B
:1050D0009B07116107D5302383F31188FFF7EEFAA0
:1050E000002383F3118808BD1F4B1A696FEAC2526F
:1050F0006FEAD2521A611A69C2F308021A614FF0BC
:10510000FF301A695A69586100215A6959615A6910
:105110001A6A62F080521A621A6A02F080521A62A7
:105120001A6A5A6A58625A6A59625A6A1A6C42F082
:1051300080521A641A6E42F080521A661A6E0B4A36
:10514000106840F480701060186F00F44070B0F583
:10515000007F1EBF4FF4803018671967536823F42F
:105160000073536000F05EB90038024000700040E8
:10517000334B4FF080521A64324A4FF44041116071
:105180001A6842F001021A601A689107FCD59A6801
:1051900022F003029A602A4B9A6812F00C02FBD1AB
:1051A000196801F0F90119609A601A6842F48032B6
:1051B0001A601A689203FCD55A6F42F001025A67CE
:1051C0001F4B5A6F9007FCD51F4A5A601A6842F06D
:1051D00080721A601B4A53685904FCD5184B1A6830
:1051E0009201FCD5194A9A60194B1A68194B9A42D8
:1051F000194B21D1194A1168194A91421CD140F228
:1052000005121A60144A136803F00F03052BFAD134
:105210000B4B9A6842F002029A609A6802F00C0204
:10522000082AFAD15A6C42F480425A645A6E42F407
:1052300080425A665B6E704740F20572E1E700BF3C
:10524000003802400070004008544007009488383D
:10525000002004E011640020003C024000ED00E06A
:1052600041C20F41074A08B5536903F00103536176
:1052700023B1054A13680BB150689847BDE8084050
:10528000FEF74EBE003C014080500020074A08B5A2
:10529000536903F00203536123B1054A93680BB1CC
:1052A000D0689847BDE80840FEF73ABE003C014090
:1052B00080500020074A08B5536903F00403536186
:1052C00023B1054A13690BB150699847BDE80840FE
:1052D000FEF726BE003C014080500020074A08B57A
:1052E000536903F00803536123B1054A93690BB175
:1052F000D0699847BDE80840FEF712BE003C014067
:1053000080500020074A08B5536903F01003536129
:1053100023B1054A136A0BB1506A9847BDE80840AB
:10532000FEF7FEBD003C014080500020164B10B53A
:105330005C6904F478725A61A30604D5134A936A2F
:105340000BB1D06A9847600604D5104A136B0BB1B5
:10535000506B9847210604D50C4A936B0BB1D06B68
:105360009847E20504D5094A136C0BB1506C984775
:10537000A30504D5054A936C0BB1D06C9847BDE8E2
:105380001040FEF7CDBD00BF003C01408050002022
:10539000194B10B55C6904F47C425A61620504D56E
:1053A000164A136D0BB1506D9847230504D5134A67
:1053B000936D0BB1D06D9847E00404D50F4A136E7E
:1053C0000BB1506E9847A10404D50C4A936E0BB1F3
:1053D000D06E9847620404D5084A136F0BB1506F22
:1053E0009847230404D5054A936F0BB1D06F9847B3
:1053F000BDE81040FEF794BD003C01408050002005
:1054000008B50348FEF72CFEBDE80840FEF788BD4E
:10541000504B002008B5FFF753FEBDE80840FEF7EB
:105420007FBD0000062108B50846FEF79BFE062159
:105430000720FEF797FE06210820FEF793FE0621BF
:105440000920FEF78FFE06210A20FEF78BFE0621BB
:105450001720FEF787FE06212820FEF783FE07218E
:105460001C20FEF77FFEBDE808400C212520FEF73A
:1054700079BE000008B5FFF737FE00F009F8FFF726
:1054800019F8FFF7F7FDBDE80840FFF723BD00005E
:105490000023054A19460133102BC2E9001102F11D
:1054A0000802F8D1704700BF805000200B4601462B
:1054B000184600F02DB8000000F040B8012838BFB1
:1054C000012010B50446204600F030F830B900F055
:1054D00007F808B900F00CF88047F4E710BD0000A9
:1054E000024B1868BFF35B8F704700BF005100206C
:1054F00008B5062000F084F80120FFF78DFA0000BF
:10550000024B0A4601461868FFF7C8BB2423002057
:1055100010B5054C13462CB10A4601460220AFF3E4
:10552000008010BD2046FCE700000000024B014651
:105530001868FFF7B7BB00BF24230020024B0146C9
:105540001868FFF7B3BB00BF2423002010B5013952
:105550000244904201D1002005E0037811F8014F88
:10556000A34201D0181B10BD0130F2E72DE9F04134
:10557000A3B1C91A17780144044603F1FF3C8C42D9
:10558000204601D9002009E00578BD4204F101045C
:10559000F5D10CEB0405D618A54201D1BDE8F08188
:1055A00015F8018D16F801EDF045F5D0E7E700009C
:1055B0001F2938B504460D4604D9162303604FF061
:1055C000FF3038BD426C12B152F821304BB9204641
:1055D00000F030F82A4601462046BDE8384000F089
:1055E00017B8012B0AD0591C03D1162303600120E0
:1055F000E7E7002442F82540284698470020E0E7E6
:10560000024B01461868FFF7D3BF00BF24230020D8
:1056100038B5074D00230446084611462B60FFF7B6
:10562000FFF9431C02D12B6803B1236038BD00BFD2
:1056300004510020FFF7EEB9034611F8012B03F8DF
:10564000012B002AF9D17047696E20626F6F746C6C
:105650006F616465720A0D00626C343035000000C1
:1056600053544D3332463F3F3F0053544D3332463F
:105670003430780053544D3332463432780053542A
:105680004D33324634343658580000000120330080
:105690000010410001105A0003105900071031009A
:1056A0000000000060560008130400006A5600085D
:1056B0001904000074560008210400007E560008FA
:1056C00040A2E4F1646891060041A3E5F2656992A5
:1056D000070000004261642043414E4966616365F2
:1056E00020696E6465782E00800000000080000054
:1056F000000080000000000000000000BD23000842
:10570000BD2B00081D2B0008CD2300080124000834
:1057100009260008D1230008E1230008D52300084A
:10572000DD230008D923000831250008E5230008FF
:10573000DD2E0008F523000805250008009600006E
:105740000000000000000000000000000000000059
:105750000000000075440008614400089D440008F2
:105760008944000895440008814400086D440008FD
:1057700059440008A9440008633000007857000825
:10578000184E00202850002000400000004000007B
:105790000040000000400000000001000000020086
:1057A00000000200000002000000020000000200F1
:1057B00000000200000002006D61696E0069646C07
:1057C000650000000000282800000000AAAABEAA68
:1057D00000001424FFFF000000000000700700001C
:1057E0000108000800000000AAAAAAAA0000000000
:1057F000FEFF00000000900000009000000000008C
:1058000000000000AAAAAAAA00000000FFFF0000F2
:105810000000000000000000000000000000000088
:10582000AAAAAAAA00000000FFFF000000000000D2
:10583000000000000000000000000000AAAAAAAAC0
:1058400000000000FFFF000000000000000000005A
:105850000000000000000000AAAAAAAA00000000A0
:10586000FFFF00000000000000000000000000003A
:1058700000000000AAAAAAAA00000000FFFF000082
:105880000000000000000000000000000000000018
:105890000A000000000000000300000000000000FB
:1058A00000000000000000000000000000000000F8
:1058B00000000000000000000000000000000000E8
:1058C00060A9FF7F01000000F60300000000000057
:1058D00000000F000000000040420F00FE2A0100FF
:1058E000D2040000FF000000504B002028230020BD
:1058F00000000000000000000000000000000000A8
:105900000000000000000000000000000000000097
:105910000000000000000000000000000000000087
:105920000000000000000000000000000000000077
:105930000000000000000000000000000000000067
:105940000000000000000000000000000000000057
:00000001FF
