:020000040800F2
:1000000000070020F5040008A92F0008612F000850
:10001000892F0008612F0008812F0008F7040008CD
:10002000F7040008F7040008F70400089D3F0008E3
:10003000F7040008F7040008F7040008F7040008B4
:10004000F7040008F7040008F7040008F7040008A4
:10005000F7040008F704000849530008715300082A
:1000600099530008C1530008E9530008F704000839
:10007000F7040008F7040008F7040008F704000874
:10008000F7040008F7040008F7040008F12E000840
:10009000012F0008152F0008F7040008115400086C
:1000A000F7040008F7040008F7040008F704000844
:1000B000F9540008F7040008F7040008F7040008E2
:1000C000F7040008F7040008F7040008F704000824
:1000D000F7040008E5540008F7040008F7040008D6
:1000E00075540008F7040008F7040008F704000836
:1000F000F7040008F7040008F7040008F7040008F4
:10010000F7040008F7040008F7040008F7040008E3
:10011000F7040008F7040008F7040008F7040008D3
:10012000F7040008F7040008F7040008F7040008C3
:10013000F7040008F7040008F7040008292F000856
:10014000392F00084D2F0008F7040008F7040008B5
:10015000F7040008F7040008F7040008F704000893
:10016000F7040008F7040008F7040008F704000883
:10017000F7040008F7040008F7040008F704000873
:10018000F7040008F7040008F7040008F704000863
:10019000F7040008F7040008F7040008F704000853
:1001A000F7040008F7040008F7040008F704000843
:1001B000F7040008F7040008F7040008F704000833
:1001C000F7040008F7040008F7040008F704000823
:1001D000F7040008F7040008F7040008F704000813
:1001E000A11800080000000000000000000000004E
:1001F00053B94AB9002908BF00281CBF4FF0FF318E
:100200004FF0FF3000F074B9ADF1080C6DE904CE89
:1002100000F006F8DDF804E0DDE9022304B07047E1
:100220002DE9F047089D04468E46002B4DD18A42A9
:10023000944669D9B2FA82F252B101FA02F3C2F1DC
:10024000200120FA01F10CFA02FC41EA030E94406D
:100250004FEA1C48210CBEFBF8F61FFA8CF708FB8E
:1002600016E341EA034306FB07F199420AD91CEB66
:10027000030306F1FF3080F01F81994240F21C8198
:10028000023E63445B1AA4B2B3FBF8F008FB1033E0
:1002900044EA034400FB07F7A7420AD91CEB040415
:1002A00000F1FF3380F00A81A74240F207816444E5
:1002B000023840EA0640E41B00261DB1D44000236A
:1002C000C5E900433146BDE8F0878B4209D9002DCE
:1002D00000F0EF800026C5E9000130463146BDE858
:1002E000F087B3FA83F6002E4AD18B4202D38242C2
:1002F00000F2F980841A61EB030301209E46002D71
:10030000E0D0C5E9004EDDE702B9FFDEB2FA82F2C5
:10031000002A40F09280A1EB0C014FEA1C471FFA23
:100320008CFE0126200CB1FBF7F307FB131140EA0A
:1003300001410EFB03F0884208D91CEB010103F1D7
:10034000FF3802D2884200F2CB804346091AA4B299
:10035000B1FBF7F007FB101144EA01440EFB00FE6D
:10036000A64508D91CEB040400F1FF3102D2A645D2
:1003700000F2BB800846A4EB0E0440EA03409CE771
:10038000C6F12007B34022FA07FC4CEA030C20FA1E
:1003900007F401FA06F31C43F9404FEA1C4900FA3E
:1003A00006F3B1FBF9F8200C1FFA8CFE09FB1811BB
:1003B00040EA014108FB0EF0884202FA06F20BD92E
:1003C0001CEB010108F1FF3A80F08880884240F27E
:1003D0008580A8F102086144091AA4B2B1FBF9F0C2
:1003E00009FB101144EA014100FB0EFE8E4508D9BD
:1003F0001CEB010100F1FF346CD28E456AD9023842
:10040000614440EA0840A0FB0294A1EB0E01A14226
:10041000C846A64656D353D05DB1B3EB080261EB94
:100420000E0101FA07F722FA06F3F1401F43C5E96E
:10043000007100263146BDE8F087C2F12003D840A4
:100440000CFA02FC21FA03F3914001434FEA1C47E6
:100450001FFA8CFEB3FBF7F007FB10360B0C43EAD8
:10046000064300FB0EF69E4204FA02F408D91CEB88
:10047000030300F1FF382FD29E422DD90238634486
:100480009B1B89B2B3FBF7F607FB163341EA034126
:1004900006FB0EF38B4208D91CEB010106F1FF3875
:1004A00016D28B4214D9023E6144C91A46EA00466C
:1004B00038E72E46284605E70646E3E61846F8E6FE
:1004C0004B45A9D2B9EB020864EB0C0E0138A3E747
:1004D0004646EAE7204694E74046D1E7D0467BE728
:1004E000023B614432E7304609E76444023842E7A0
:1004F000704700BF02E000F000F8FEE772B6374830
:1005000080F30888364880F3098836483649086001
:1005100040F20000CCF200004EF63471CEF2000141
:100520000860BFF34F8FBFF36F8F40F20000C0F23F
:10053000F0004EF68851CEF200010860BFF34F8FF5
:10054000BFF36F8F4FF00000E1EE100A4EF63C71E2
:10055000CEF200010860062080F31488BFF36F8F8D
:1005600004F008FD04F09AFD4FF055301F491B4A76
:1005700091423CBF41F8040BFAE71D49184A9142E9
:100580003CBF41F8040BFAE71A491B4A1B4B9A423D
:100590003EBF51F8040B42F8040BF8E7002018495D
:1005A000184A91423CBF41F8040BFAE704F0E6FC1C
:1005B00004F0C8FD144C154DAC4203DA54F8041B8A
:1005C0008847F9E700F042F8114C124DAC4203DACB
:1005D00054F8041B8847F9E704F0CEBC000700205C
:1005E000002300200000000808ED00E000010020CA
:1005F00000070020C05900080023002088230020A5
:1006000088230020D8610020E0010008E4010008F0
:10061000E4010008E40100082DE9F04F2DED108AF7
:10062000C1F80CD0C3689D46BDEC108ABDE8F08FC0
:10063000002383F311882846A047002004F004F922
:10064000FEE704F067F800DFFEE70000F8B501F010
:100650003DF904F029FC074604F078FC0546D0BBC0
:10066000224B9F4237D001339F4237D0204B27F097
:10067000FF029A4235D1F8B200F01EFF2E4642F238
:10068000107400F01FFF08B10024264601F002FD9F
:1006900020B1032000F082F80024264635B1154B26
:1006A0009F4203D004F04AFC00242646002004F0B8
:1006B00005FC0EB100F088F801F0A0FA0E4801F038
:1006C00031FA00F06BFF01F05FF9204600F0D0F83E
:1006D00000F07AF8F9E72E460024D2E70446012616
:1006E000CFE7064641F28834CBE700BF010007B0F0
:1006F000000008B0263A09B02C57000808B501F0F0
:100700000FF9A0F120035842584108BD07B541F246
:100710001203022101A8ADF8043001F01FF903B063
:100720005DF804FB38B5302383F31188174803685C
:100730000BB104F047F9164A144800234FF47A71BC
:1007400004F036F9002383F31188124C236813B1A7
:100750002368013B2360636813B16368013B6360F6
:100760000D4D2B7833B963687BB9022001F0D0F9C5
:10077000322363602B78032B07D163682BB90220E7
:1007800001F0C6F94FF47A73636038BD8823002006
:1007900025070008A8240020A0230020084B18707B
:1007A00003280CD8DFE800F008050208022001F059
:1007B000A5B9022001F09AB9024B00225A60704795
:1007C000A0230020A824002010B501F063FC30B164
:1007D000204B03221A70204B00225A6010BD1F4B81
:1007E0001F4A1C4619680131F8D004339342F9D1ED
:1007F00062681C4B9A42F1D91B4B9B6803F1006362
:1008000003F580339A42E9D204F06CFB04F07EFBDE
:10081000002001F0D3F80220FFF7C0FF134B1A6C41
:1008200000221A64196E1A66196E596C5A64596E50
:100830005A665B6E72B64FF0E0233021C3F8084D64
:10084000D4E9003281F311889D4683F3088810476C
:10085000C4E700BFA0230020A82400200000010856
:1008600020000108FFFF000800230020003802409C
:100870002DE9F04F93B0AC4B00902022FF210AA845
:100880009D6801F065F9A94A1378A3B9A848012128
:1008900003601170302383F3118803680BB104F0F7
:1008A00091F8A44AA24800234FF47A7104F080F82A
:1008B000002383F31188009B13B19F4B009A1A60A9
:1008C0009E4A009C1378032B1EBF002313709A4A84
:1008D0004FF0000A18BF5360D3465646D146012058
:1008E00001F00CF924B1944B1B68002B00F0158229
:1008F000002001F015F80390039B002B01DA00F0B3
:100900009FFE039B002BEDDB012001F0EFF8039B22
:10091000213B162BE3D801A252F823F079090008F5
:10092000A1090008350A0008DF080008DF080008F0
:10093000DF080008BF0A00088F0C0008A90B000898
:100940000B0C0008330C0008590C0008DF080008E5
:100950006B0C0008DF080008DD0C0008190A00080D
:10096000DF080008210D000885090008190A0008A1
:10097000DF0800080B0C00080220FFF7BFFE00286C
:1009800040F0F581009B0221BAF1000F08BF1C4620
:1009900005A841F21233ADF8143000F0DFFF9EE7F6
:1009A0004FF47A7000F0BCFF071EEBDB0220FFF76C
:1009B000A5FE0028E6D0013F052F00F2DA81DFE82E
:1009C00007F0030A0D10133605230593042105A82B
:1009D00000F0C4FF17E054480421F9E75848042107
:1009E000F6E758480421F3E74FF01C08404600F0B2
:1009F000E7FF08F104080590042105A800F0AEFF08
:100A0000B8F12C0FF2D1012000FA07F747EA0B0BDF
:100A10005FFA8BFB4FF0000901F0E6F826B10BF00E
:100A20000B030B2B08BF0024FFF770FE57E7464867
:100A30000421CDE7002EA5D00BF00B030B2BA1D189
:100A40000220FFF75BFE074600289BD0012000F044
:100A5000B5FF0220FFF7A2FE00261FFA86F84046E7
:100A600000F0BCFF044690B10021404600F0CEFFEC
:100A700001360028F1D1BA46044641F21213022190
:100A800005A8ADF814303E4600F068FF27E70120C6
:100A9000FFF784FE2546244B9B68AB4207D92846C6
:100AA00000F08EFF013040F067810435F3E7234BFF
:100AB00000251D70204BBA465D603E46ACE7002E17
:100AC0003FF460AF0BF00B030B2B7FF45BAF022006
:100AD000FFF764FE322000F023FFB0F10008FFF6BC
:100AE00051AF18F003077FF44DAF0F4A926808EB3F
:100AF000050393423FF646AFB8F5807F3FF742AF1C
:100B0000124B0193B84523DD4FF47A7000F008FFD3
:100B10000390039A002AFFF635AF019B039A03F86E
:100B2000012B0137EDE700BF00230020A4240020A3
:100B30008823002025070008A8240020A0230020E7
:100B400004230020082300200C230020A4230020DD
:100B5000C820FFF7D3FD074600283FF413AF1F2D31
:100B600011D8C5F1200242450AAB25F0030028BF89
:100B7000424683490192184400F0D8FF019A804808
:100B8000FF2100F0E5FF4FEAA8037D490193C8F378
:100B90008702284600F0E4FF064600283FF46DAFC8
:100BA000019B05EB830537E70220FFF7A7FD00282F
:100BB0003FF4E8AE00F04AFF00283FF4E3AE002720
:100BC000B846704B9B68BB4218D91F2F11D80A9B9F
:100BD00001330ED027F0030312AA134453F8203C2C
:100BE00005934046042205A901F00CFA043780461B
:100BF000E7E7384600F0E4FE0590F2E7CDF8148010
:100C0000042105A800F0AAFE06E70023642104A839
:100C1000049300F099FE00287FF4B4AE0220FFF7A1
:100C20006DFD00283FF4AEAE049800F0F7FE05908D
:100C3000E6E70023642104A8049300F085FE002861
:100C40007FF4A0AE0220FFF759FD00283FF49AAED2
:100C5000049800F0F3FEEAE70220FFF74FFD0028BA
:100C60003FF490AE00F002FFE1E70220FFF746FDFF
:100C700000283FF487AE05A9142000F0FDFE0421F2
:100C80000746049004A800F069FE3946B9E732200F
:100C900000F046FE071EFFF675AEBB077FF472AE8E
:100CA000384A926807EB090393423FF66BAE022085
:100CB000FFF724FD00283FF465AE27F003074F44FB
:100CC000B9453FF4A9AE484600F07AFE04210590EC
:100CD00005A800F043FE09F10409F1E74FF47A702A
:100CE000FFF70CFD00283FF44DAE00F0AFFE0028EA
:100CF00044D00A9B01330BD008220AA9002000F03F
:100D00002FFF00283AD02022FF210AA800F020FF60
:100D1000FFF7FCFC1C4803F09DFD13B0BDE8F08F0D
:100D2000002E3FF42FAE0BF00B030B2B7FF42AAEFB
:100D30000023642105A8059300F006FE074600285D
:100D40007FF420AE0220FFF7D9FC804600283FF454
:100D500019AEFFF7DBFC41F2883003F07BFD05980C
:100D600000F058FF464600F03FFF3C46B7E5064618
:100D700052E64FF0000905E6BA467EE637467CE6C5
:100D8000A423002000230020A0860100094A136844
:100D900049F2690099B21B0C00FB01331360064B4A
:100DA000186844F2506182B2000C01FB0200186026
:100DB00080B27047182300201423002010B50021B2
:100DC0001022044600F0C4FE034B03CB2060616098
:100DD0001868A06010BD00BF107AFF1F2DE9F04118
:100DE0000026ADF54A7D68AC0D460746314640F217
:100DF00075120AA8099600F0ABFE31464FF4C47292
:100E0000204600F0A5FE02F0D7F8224B4FF47A728C
:100E1000B0FBF2F0186093E80700022384E80700B3
:100E20000DF5E1702382FFF7C9FF4FF203631A4902
:100E3000238407A804F072FC0DF124080798CDF86C
:100E4000D302052384F8323141469DF820308DF8D5
:100E5000D7320122204600F0F7FEAB7E029305F167
:100E60001903019380B20123CDE904800093E97E48
:100E7000039606A3D3E90023384602F065FC0DF57E
:100E80004A7DBDE8F08100BFAFF300809E6AC421B7
:100E9000818A46EEB02400203C5700082DE9F0413D
:100EA0002C4C237ADAB080460D465BBB27A9284636
:100EB00000F0DAFF0746002842D19DF89D60C82E59
:100EC0003ED801464FF4A662204600F041FE4FF4A2
:100ED0008073C4F8F8314FF40073C4F80C334FF446
:100EE0004073C4F8203432460DF19E0104F109002C
:100EF00000F01CFE26449DF89C30777223720BB9DB
:100F0000EB7E23728122002106AC27A800F020FE90
:100F10000122214627A800F0E3FF00230393AB7EC4
:100F2000029305F1190380B201932823CDE904400F
:100F30000093E97E05A3D3E90023404602F004FCB8
:100F40005AB0BDE8F08100BFAFF300802641727255
:100F5000DF25D7B798560020F0B5254E4FF48A7597
:100F600005FB0065F1B096F8D83085F8DC30002438
:100F7000D822214685F8E8403AA800F0E9FD06F1BC
:100F8000090000F0DDFDD5F8E4308DF8F000C2B2C4
:100F900006AF06F109010DF1F100CDE93A3400F098
:100FA000C5FD394601223AA800F0C6FF80B2CDE95E
:100FB000047008230127CDE9023706F1D803019315
:100FC00030230093317A0B4807A3D3E9002302F0C2
:100FD000BBFBA04206DD01F0EFFFC5F8E00038469C
:100FE00071B0F0BD2046FBE778F6339F93CACD8DF4
:100FF00098560020C83400202DE9F04F274FDFF825
:10100000A880274E87B0384602F0CAFB0346002866
:101010003DD00024CDE90344ADF81440027B8DF8A7
:10102000142099684068029403AA03C21B681D4DEE
:1010300043F000430293A146A2462B68D3F810B0B8
:1010400001F0BCFF10EB080241F100032846CDF887
:1010500000A002A9D84704F2344440F668030028EF
:10106000C8BF49F0010905F586559C4205F11005F8
:10107000E3D1B9F1000F05D0384602F095FB86F8B0
:1010800000A0C0E73378072B04D80133337007B0D2
:10109000BDE8F08F014802F087FBF8E7C834002074
:1010A000CD5B0020F834002040420F0070B50D46A3
:1010B00014461E4602F0A4FA50B9022E10D1012C9B
:1010C0000ED112A3D3E90023C5E90023012007E0D4
:1010D000282C10D005D8012C09D0052C0FD00020C9
:1010E00070BD302CFBD10BA3D3E90023ECE70BA39D
:1010F000D3E90023E8E70BA3D3E90023E4E70BA33C
:10110000D3E90023E0E700BFAFF30080401DA1203A
:1011100026812A0B78F6339F93CACD8D9E6AC4210F
:10112000818A46EE26417272DF25D7B7F017304A22
:1011300039059E5638B505460E4C0021013500F0A4
:1011400065FCA4F82C55B4F82C0500F047FC78B1E8
:10115000B4F82C0500F052FC014648B9B4F82C054F
:1011600000F054FCB4F82C350133A4F82C35EAE730
:1011700038BD00BF98560020F8B50E4C0E4F022621
:10118000A4F5805343F8487C237E3BB965692DB1B3
:10119000284600F0FDFF284604F000FA204600F043
:1011A000F7FFA4F58654012EA4F1100400D1F8BD78
:1011B0000126E5E710560020F05700082DE9F04F12
:1011C0008FB000AF05460C4602F01AFA002849D14C
:1011D000237E022B1BD1E38A012B18D101F0ECFEF8
:1011E0000646FFF7D3FD03464FF4C870DFF8C4820C
:1011F000B3FBF0F206F5167602FB103316FA83F312
:10120000C8F80030E37E33B9A34B00221A703C3794
:10121000BD46BDE8F08F07F12401204600F0E2FD55
:101220000028F4D107F11400FFF7C8FD97F8264015
:1012300007F11401224607F1270004F0F9F900280C
:10124000E2D10F2C08D8944B1C70D8F80030A3F5CD
:101250001673C8F80030DAE797F82410284602F031
:10126000C7F9D4E7E38A282B2BD010D8012B23D041
:10127000052BCCD1BFF34F8F8849894BCA6802F444
:10128000E0621343CB60BFF34F8F00BFFDE7302B0D
:10129000BDD1844EE17E327A9142B8D1607E314632
:1012A000002291F8DC50854200F0A5800132042A2A
:1012B00001F58A71F5D1AAE721462846FFF78EFD90
:1012C000A5E721462846FFF7E9FDA0E7B2F8EC5074
:1012D0007B6005F103094FEA99094FEA8902D11DA4
:1012E000C908A8EBC1039D46EB460021584600F013
:1012F0002FFC04F1EE012A463144584600F016FC5A
:101300007B6813B9012000F059FB96F8D20000F079
:1013100065FB044630B9307200F098FB204600F0BF
:101320004DFBB1E0D6F8D4203AB996F8D200B6F821
:101330002C25824201D8FFF7FDFED6F8D4202A449E
:10134000944208D296F8D200B6F82C250130824299
:1013500001D8FFF7EFFE70685FFA89F2594600F096
:10136000FFFB08B9C54679E0726896F8D2002A44B6
:101370007260D6F8D42005EB0209C6F8D49000F0CC
:101380002DFB814509D396F8D220D6F8D40001323E
:10139000001B86F8D220C6F8D400FF2D0FD80024F9
:1013A000347200F053FB204600F008FB00F072FEA0
:1013B0003D4B188108B9FFF707FAC54627E7BB6818
:1013C00096F8D9000AFB0362FB68D2F8E41082F8B1
:1013D000E83001F58061C2F8E030C2F8E410FFF7B0
:1013E000BBFDFFF709FE96F8D920013202F0030297
:1013F00086F8D920B6E74FF48A7A0AFB02F505F1A0
:10140000EA013144204600F0C3FDF86000287FF473
:10141000FEAE3544012285F8E82001F0CDFDD5F877
:10142000E020D6ED007ADFED216A801A192838BF56
:10143000192040F6B832904228BF1046B8EE677ABD
:1014400007EE900AF8EEE77A67EEA67ADFED186A03
:10145000E7EE267AFCEEE77AC6ED007A96F8D93008
:10146000BB60BA6873680AFB02F4321992F8E8109C
:1014700059B1D2F8E4108B42E8463FF427AF00217F
:1014800082F8E810C2F8E010C5467368064A9B0A65
:1014900001331381BBE600BFC134002000ED00E042
:1014A0000400FA0598560020B0240020CDCCCC3D95
:1014B0006666663FC4340020014B1870704700BF59
:1014C000BC24002030B54FF000542B4B22689A42C8
:1014D00085B007D003F044FD044620BB002420461D
:1014E00005B030BD254B627D25481A70237D0372FF
:1014F0004FF48073C0F8F8314FF40073C0F80C3328
:1015000000254FF44073C0F820341E49C0F8E45061
:10151000C922093000F00AFB2046E022294600F0EB
:1015200017FB0124DBE7184A184D136C43F00073D6
:101530001364AA6D164B9A42D0D12B6E013B7E2BC1
:10154000CCD8144A07CA01AB83E807001846032128
:1015500000F06EFD6B6D83424FF00003BED12A6D2B
:101560008A4201BFAB65054B2A6E1A7003BF0A4B56
:10157000EA6D1A601C46B2E79AAD44C5BC2400204F
:1015800098560020160000200038024000660040F7
:101590005041A0B0586600401023002037B500F03D
:1015A00079FD1D4D1D4C2881022321681C486B715B
:1015B000012201F085FB1B48216850F8D03F012231
:1015C0005B68984700230193174B1849009318480C
:1015D000184B4FF4805201F0E3FF174B197811B10B
:1015E000134802F005F801F0E7FC0446FFF7CEFBD4
:1015F0004FF4C873B0FBF3F202FB130304F516704B
:1016000010FA83F00D4B186003F0A0FC08B10F2313
:101610002B8103B030BD00BFB02400201023002078
:10162000F8340020F8440020AD100008C024002049
:10163000C8340020BD110008BC240020C4340020A0
:101640002DE9F04F2DED028BDFF8508293B00BAFF8
:101650009FED838BFFF7D0FC00230A93ADF8343065
:101660000B937B600025844CDFF810A22E460123EB
:101670008DF81C3023688DED008B4FF0000BD3F8F4
:1016800008908DF81DB05B460DF11D0207A920469C
:10169000C8479DF81C90B9F1000F24D0D8F8143039
:1016A00083F00103C8F81430102259460EA800F048
:1016B0004FFA236808AA5E690AA90DF11E032046A5
:1016C000B04797E803000FAB83E803009DF8343080
:1016D0008DF844300A9B0E930EA9DDE9082350468D
:1016E00002F040FA4E4605F2344540F6680304F530
:1016F00086549D4204F11004B9D1002EB2D15F4846
:1017000001F07EFF002840D15D4D01F055FC2B68B3
:1017100098423AD301F050FC0446FFF737FB4FF4F0
:10172000C873B0FBF3F202FB130304F5167010FA52
:1017300083F02860534D8DF828602E7816B9012368
:101740008DF82830C6F11004E4B20EA8FFF736FB7E
:10175000062C28BF06240EAB224699190DF129004C
:1017600000F0E4F90AAB0393182302930134464BCB
:101770000193E4B201230093404804943AA3D3E9CF
:10178000002301F083FF00232B7001F015FC3F4A7A
:101790003F4C1368C31AB3F57A7F2FD3106001F062
:1017A0000DFC02460B46354802F008F8334801F0BC
:1017B00027FF18B3237A374D002B14BF03230223CE
:1017C0006B7101F0F9FB0EAE4FF47A730122B0FB9E
:1017D000F3F031462860284600F0DCFA1823029323
:1017E0002D4B019380B240F25513CDE90360009375
:1017F00022481FA3D3E9002301F048FF237A93B1C5
:1018000001F0DAFB002506464FF48A7794F8D900F8
:10181000284400F0030007FB004393F8E82072B16E
:101820000135042DF2D1C82003F014F8237A002BDF
:101830007FF40DAF13B0BDEC028BBDE8F08FD3F891
:10184000E02042B12368FA2B38BFFA23B21A0533DD
:10185000B2EB430FE4D3FFF77FFB0028E0D1E2E7D0
:101860000000000000000000401DA12026812A0B7E
:10187000F1C6A7C1D068080FF8340020C834002092
:10188000C4340020C1340020C0340020C85B0020D4
:1018900098560020B0240020CC5B002000040240B9
:1018A00008B5064800F07CFF054800F079FFBDE868
:1018B0000840044A0449002003F06ABEF8340020BE
:1018C000C8450020205C0020791100087047000006
:1018D00070B5104B1B780133DBB2012B0C4612D8CC
:1018E0000D4B1D6829684FF47A730E6AA2FB033210
:1018F000014622462846B047844204D1074B0022C5
:101900001A70012070BD4FF4FA7002F0A3FF00209E
:10191000F8E700BF1C23002020230020105C0020DB
:1019200007B50023024601210DF107008DF80730AD
:10193000FFF7CEFF20B19DF8070003B05DF804FB70
:101940004FF0FF30F9E700000A4608B50421FFF721
:10195000BFFF80F00100C0B2404208BD30B4074B69
:101960000A461978064B53F821402368DD69054B78
:101970000146AC46204630BC604700BF105C0020EA
:1019800020230020A086010070B503F027F9094E3E
:10199000094D3080002428683388834208D903F039
:1019A00017F92B6804440133B4F5803F2B60F2D360
:1019B00070BD00BF125C0020D05B002003F0BCB9FA
:1019C00000F1006000F580300068704700F10060B1
:1019D000920000F5803003F047B90000054B1A680B
:1019E000054B1B889B1A834202D9104403F0F0B8C0
:1019F00000207047D05B0020125C0020024B1B6867
:101A0000184403F0EDB800BFD05B0020024B1B6808
:101A1000184403F0FDB800BFD05B002010F00303B2
:101A20000AD1B0F5047F05D200F10050A0F51040B6
:101A3000D0F80038184670470023FBE700F100504B
:101A4000A0F51040D0F8100A70470000064991F840
:101A5000243033B10023086A81F824300822FFF7CC
:101A6000B5BF0120704700BFD45B0020014B186850
:101A7000704700BF002004E070B5194B1D68194B7A
:101A80000138C5F30B0408442D0C04221E88A6421D
:101A90000BD15C680A46013C824213460FD214F90E
:101AA000016F4EB102F8016BF6E7013A03F108034A
:101AB000ECD181420B4602D22C2203F8012B0A4AB8
:101AC00005241688AE4204D1984284BF967803F864
:101AD000016B013C02F10402F3D1581A70BD00BF42
:101AE000002004E08457000870570008022802BF55
:101AF000014B01229A61704700040240022802BF94
:101B0000024B4FF480329A61704700BF00040240DC
:101B1000022801BF024A536983F0010353617047F1
:101B2000000402400FB404B07047000010B5002359
:101B3000934203D0CC5CC4540133F9E710BD0000DC
:101B400003460246D01A12F9011B0029FAD1704748
:101B500002440346934202D003F8011BFAE77047A0
:101B60002DE9F8431F4D144695F824200746884672
:101B700052BBDFF870909CB395F824302BB920222B
:101B8000FF2148462F62FFF7E3FF95F82400C0F1DC
:101B90000802A24228BF2246D6B24146920005EB77
:101BA0008000FFF7C3FF95F82430A41B1E44F6B253
:101BB000082E17449044E4B285F82460DBD1FFF787
:101BC00045FF0028D7D108E02B6A03EB820383424C
:101BD000CFD0FFF73BFF0028CBD10020BDE8F88332
:101BE0000120FBE7D45B0020024B1A78024B1A70ED
:101BF000704700BF105C00201C23002003494FF4F5
:101C0000E1330B60024B186802F0EABCFC5B002079
:101C100020230020094B10B5142204460021184649
:101C2000FFF796FF064A074B127804600146BDE8AD
:101C3000104053F8220002F0D3BC00BFFC5B002030
:101C4000105C0020202300202DE9F0470D460446BB
:101C500000219046284640F27912FFF779FF23468B
:101C600020220021284601F01FFF231D02222021EF
:101C7000284601F019FF631D03222221284601F0A6
:101C800013FFA31D03222521284601F00DFF04F1B7
:101C9000080310222821284601F006FF04F1100352
:101CA00008223821284601F0FFFE04F11103082222
:101CB0004021284601F0F8FE04F1120308224821D1
:101CC000284601F0F1FE04F1140320225021284699
:101CD00001F0EAFE04F1180340227021284601F0C9
:101CE000E3FE04F120030822B021284601F0DCFEC7
:101CF00004F121030822B821284601F0D5FE04F1A1
:101D00002207C0263B46314608222846083601F005
:101D1000CBFEB6F5A07F07F10107F3D104F1320342
:101D200008223146284601F0BFFE002704F1330A9D
:101D300094F832304FEAC7099F4209F5A47615D3CB
:101D4000B8F1000F08D1314604F5997307222846EF
:101D500001F0AAFE09F24F16274694F832213B1BE8
:101D600093420CD3F01DC008BDE8F0870AEB0703CF
:101D700008223146284601F097FE0137D8E707F2DE
:101D8000331331460822284601F08EFE083601370B
:101D9000E3E7000013B5044608460021016023462E
:101DA000C0F803102022019001F07EFE0198231D4F
:101DB0000222202101F078FE0198631D03222221D6
:101DC00001F072FE0198A31D0322252101F06CFE93
:101DD000019804F108031022282101F065FE072074
:101DE00002B010BDF7B50023047F00910E46072214
:101DF0001946054601F01CFD731C009301220023C7
:101E00000721284601F014FDC4B9B31C0093052234
:101E100023460821284601F00BFD0D243746B278F1
:101E2000BB1B934211D32B7FA88A0734E408BBB9AC
:101E3000844294BF0020012003B0F0BDAB8ADB00D8
:101E4000083BDB08B3700824E8E7FB1C009321463D
:101E500000230822284601F0EBFC08340137DEE7B6
:101E6000201A18BF0120E7E7F7B50023047F00918F
:101E70000E4608221946054601F0DAFC731CC4B967
:101E80000822009311462346284601F0D1FC102475
:101E9000012372785F1C013B934211D32B7FA88AE8
:101EA0000734E408BBB9844294BF0020012003B08A
:101EB000F0BDAB8ADB00083BDB0873700824E7E762
:101EC000F3190093214600230822284601F0B0FCB4
:101ED00008343B46DDE7201A18BF0120E7E7000081
:101EE000F8B50E4605461446002181223046FFF71C
:101EF0002FFE2B4608220021304601F0D5FD7CB98B
:101F00006B1C07220821304601F0CEFD0F2401236F
:101F10006A785F1C013B934204D3E01DC008F8BD02
:101F20000824F4E7EB1921460822304601F0BCFDF5
:101F300008343B46ECE70000F8B50E46054614466B
:101F40000021CE223046FFF703FE2B462822002137
:101F5000304601F0A9FD7CB905F1080308222821CB
:101F6000304601F0A1FD30242F462A7A7B1B934294
:101F700004D3E01DC008F8BD2824F5E707F10903E4
:101F800021460822304601F08FFD08340137ECE786
:101F9000F7B5047F00910E4601231022002105466B
:101FA00001F046FCC4B9B31C00930922234610215A
:101FB000284601F03DFC192437467288BB1B9A4223
:101FC00011D82B7FA88A0734E408BBB9844294BF98
:101FD0000020012003B0F0BDAB8ADB00103BDB0822
:101FE00073801024E8E73B1D00932146002308225C
:101FF000284601F01DFC08340137DEE7201A18BF1F
:102000000120E7E730B5094D0A4491420DD011F89F
:10201000013B5840082340F30004013B2C4013F0DF
:10202000FF0384EA5000F6D1EFE730BD2083B8ED1E
:10203000F7B54FF0FF33DFF854C0DFF854E000EBA2
:1020400081011A4688421CD050F8044B019401AF1C
:10205000042417F8015B82EA05620825DB1816469E
:1020600005F1FF355241002EBCBF83EA0C0382EA22
:102070000E0215F0FF05F1D1013C14F0FF04E8D188
:10208000E0E7D843D14303B0F0BD00BF9336EAA9DF
:10209000EBE1F042F7B5384A106851686B4603C36C
:1020A0006A4636493648082303F0D2FA0446002827
:1020B00033D10A25334A106851686B4603C36A4618
:1020C00031492F48082303F0C3FA0446002849D0B9
:1020D0000369B3F5702F45D8B0F8661040F2F632B8
:1020E00091423FD1294A024402F15C018B4239D32B
:1020F0005C3B234900209E1AFFF784FF32460746C7
:1021000004F164010020FFF77DFFA3689F4229D1FD
:10211000E368984208BF002524E00369B3F5702FF7
:1021200027D8418B40F2F632914220D1174A02441F
:1021300002F110018B4218D3103B114900209D1A67
:10214000FFF760FF2A46064604F118010020FFF75A
:1021500059FFA3689E4202D1E368984201D00D2541
:10216000A8E70025284603B0F0BD1025A2E70C25FE
:10217000A0E70B259EE700BFA4570008DCFF0E0078
:1021800000000108AD57000890FF0E000800FFF79F
:1021900010B5037C044613B9006803F041FA2046E9
:1021A00010BD00000023BFF35B8FC360BFF35B8FE4
:1021B000BFF35B8F8360BFF35B8F7047BFF35B8FB1
:1021C0000068BFF35B8F704770B505460C30FFF7B2
:1021D000F5FF05F1080604463046FFF7EFFFA04281
:1021E00006D930466D68FFF7E9FF2544281A70BD0F
:1021F0003046FFF7E3FF201AF9E7000070B5054607
:10220000406898B105F10800FFF7D8FF05F10C060A
:1022100004463046FFF7D2FF8442304694BF6D68D3
:102220000025FFF7CBFF013C2C44201A70BD0000B5
:1022300038B50C460546FFF7C7FFA04210D305F19D
:102240000800FFF7BBFF04446868B4FBF0F100FB33
:102250001144BFF35B8F0120AC60BFF35B8F38BDCF
:102260000020FCE72DE9F041144607460D46FFF734
:10227000C5FF844228BF0446D4B1B84658F80C6B59
:102280004046FFF79BFF3044286040467E68FFF7DA
:1022900095FF331A9C4203D86C600120BDE8F081A1
:1022A0006B60A41B3B68AB602044E8600220F5E74C
:1022B0002046F3E738B50C460546FFF79FFFA042DE
:1022C00010D305F10C00FFF779FF04446868B4FBF4
:1022D000F0F100FB1144BFF35B8F0120EC60BFF312
:1022E0005B8F38BD0020FCE72DE9FF418846694639
:1022F0000746FFF7B7FF6C4606B204EBC60600259B
:10230000B44209D06268206808EB0501FFF70EFCB3
:10231000636808341D44F3E729463846FFF7CAFFCF
:10232000284604B0BDE8F081F8B505460C300F46EC
:10233000FFF744FF05F1080604463046FFF73EFF6D
:10234000A042304688BF6C68FFF738FF201A38601B
:1023500020B130462C68FFF731FF2044F8BD000063
:1023600073B5144606460D46FFF72EFF844228BF7C
:1023700004460190DCB101A93046FFF7D5FF019B6F
:1023800033B93268C5E90233C5E9002401200CE005
:102390009C4238BF01942860019868608442F5D956
:1023A0003368AB60241AEC60022002B070BD204696
:1023B000FBE700002DE9FF410F466946FFF7D0FF1C
:1023C0006C4600B204EBC0050026AC4209D0D4F83C
:1023D000048054F8081BB8194246FFF7A7FB46448F
:1023E000F3E7304604B0BDE8F081000038B505469B
:1023F000FFF7E0FF044601462846FFF719FF204695
:1024000038BD0000302383F3118862B670470000A6
:10241000002383F3118862B67047000010B402688D
:1024200054681A4623465DF8044B1847012070474C
:102430000020704700207047704700000020704760
:102440000E20704700F5805090F8C800C0F340009F
:102450007047000000F5805090F9C90070470000F7
:102460002DE9F3410C68BDF8207014F000541E46AD
:1024700075D10B7B082B72D8FFF7C4FF4569AB6899
:102480005B010DD4AB681B0109D4AC6814F0805417
:1024900063D1FFF7BDFF204602B0BDE8F081012403
:1024A0000B6804F1180C002BB8BFDB004FEA0C1CC2
:1024B000B4BF43F004035B0545F80C300B680FFA1A
:1024C00084FC13F0804F18BF05EB0C1E05EB0C1CB1
:1024D0001EBFDEF8803143F00203CEF880310B7B63
:1024E000CCF8843105EB04158B68C5F88C314B684A
:1024F000C5F8883100EB441303F583530D461033C0
:1025000001F10C0E55F8048B43F8048B7545F9D195
:102510002D881D8004F1840300EB431300EB441469
:102520001D7967F300051D71DCF8805104F58354B3
:1025300045F00105CCF88051C4E902261D7907F069
:10254000020425F00A052C431C71FFF761FF009778
:10255000334600F053FD01209EE70224A0E74FF030
:10256000FF3099E713B500F580540191E06DFFF756
:1025700045FE1F280AD90199E06D2022FFF7B4FE1D
:10258000A0F120035842584102B010BD0020FBE7E3
:1025900008B500F58050FFF735FFC06DFFF702FE6C
:1025A000BDE80840FFF734BF00220260828142602C
:1025B0008260704710B500220023C0E90023002389
:1025C000044603810C30FFF7EFFF204610BD0000EA
:1025D000F0B5054600F580500C4690F8C83013F071
:1025E000040FC3F3800108BF114661F3820304F1B5
:1025F000840680F8C83005EB461389B01B79D807EC
:102600002ED57AB319072DD46846FFF7D3FF05EB13
:10261000441303F5835303F1180703AA1033186812
:102620005968144603C40833BB422246F7D11868E0
:1026300020609B88A380DDE90E23CDE900230123E0
:10264000ADF808302B686946DB6B2846984705EBE8
:1026500046152B791A075CBF43F008032B7101E084
:10266000002AF4D109B0F0BD2DE9F047074688B043
:1026700007F5805468469A468846FFF7C3FE9146A0
:10268000FFF798FFE06DFFF79FFD1F2829D9E06D48
:1026900020226946FFF7AAFE202822D103AD444636
:1026A00005AB2E4603CE9E4220606160354604F1A4
:1026B0000804F6D130682060B388A380DDE90023E8
:1026C000C9E90023BDF80830AAF80030FFF7A0FEE2
:1026D0004A4653464146384608B0BDE8F04700F048
:1026E0007BBCFFF795FE002008B0BDE8F087000036
:1026F0002DE9F84F0023C0E90133264B044640F88A
:10270000183B0F46FFF750FF04F12800FFF752FF78
:1027100004F1480804F5825546460835304620360F
:10272000FFF748FFAE42F9D104F580554FF48053CE
:102730004FF00009C5E91339C5F848800123EE655B
:1027400004F5875804F58456C5F8549085F8583038
:1027500085F86030083608F108084FF0000A4FF09D
:10276000000B46E908ABA6F11800FFF71DFF203665
:1027700046F8289C4645F4D1012F85F8C97002D946
:10278000054800F013FC054B53F8273063612046E1
:10279000BDE8F88FF0570008B8570008D457000874
:1027A00010B5044B197804464A1C1A70FFF7A0FFB5
:1027B000204610BD1C5C00202DE9F047002950D0B8
:1027C000294B2A4FB7FBF1F599428CBF0A231123FD
:1027D000581EB5FBF3FC03FB1C53C4B22BB10228FB
:1027E0000346F5D80020BDE8F0870CF1FF36B6F5BA
:1027F000806FF7D2C4EBC40E0EF103034FEAE30976
:10280000C3F3C703A4EB030809F1010A4FF47A7577
:102810005FFA88F009FB05555AFA88F8B5FBF8F518
:10282000B5F5617FC1BF0EF1FF33C3F3C703E01AF3
:10283000C0B25C1C50FA84F40CFB04F4B7FBF4F453
:10284000A142CFD1013BDBB20F2BCBD80138C0B2B4
:102850000728C7D80021107116809170D37001200D
:10286000C1E70846BFE700BF3F420F0080DE80029D
:10287000F8B50C4F05460E464FF47A746B695B68E9
:102880007A6903F0010382F00102B3427A6107D052
:102890004FF47A7001F0DEFF013CEFD12046F8BD25
:1028A0000120FCE70004024030B54269936913F04F
:1028B000700F16D000230B4C936103F1840200EBE0
:1028C000421211794D0709D5890707D5416954F896
:1028D00023508D60117941F0040111710133032BF4
:1028E000EBD130BDDC57000873B51D464369164671
:1028F0009A68D207044609D59A6801219960C2F303
:102900004002CDE900650021FFF762FE63699A6825
:10291000D1050BD59A684FF480719960C2F34022BB
:10292000CDE9006501212046FFF752FE63699A68F0
:10293000D2030BD59A684FF480319960C2F34042BC
:10294000CDE9006502212046FFF742FE204602B095
:10295000BDE87040FFF7A8BF0C4B10B51C561B5CC0
:10296000012B11D800F02AFB50EA0103024602D0E5
:10297000421E61F10001064B53F8240020B1BDE86E
:1029800010400B46FFF7B0BF10BD00BFD057000886
:10299000145C0020F8B50446466900296CD106F1A4
:1029A0000C07386880076AD006EB01153868D5F83F
:1029B000B00110F0040FD5F8B0011ABFC00840F004
:1029C0000040400DA061D5F8B0C11CF0020F1CBF43
:1029D00040F08040A061D5F8B40106EB011100F091
:1029E0000F0084F82400D1F8B8012077D1F8B8019D
:1029F000000A6077D1F8B801000CA077D1F8B801CF
:102A0000000EE077D1F8BC0184F82000D1F8BC01B9
:102A1000000A84F82100D1F8BC01000C84F82200DF
:102A2000D1F8BC11090E84F823103821396004F163
:102A3000340004F1180104F1240551F8046B40F846
:102A4000046BA942F9D109880180C4E90A2321460F
:102A50000023238651F8283B2046DB6B984704F57A
:102A60008052204692F8C83043F0040382F8C83000
:102A7000BDE8F840FFF718BF06F1100791E7F8BD71
:102A80000D4B70B51D561B5C012B0C4612D800F087
:102A900095FA02460B4652EA030102D0013A63F16D
:102AA0000003064951F8250020B12146BDE87040D9
:102AB000FFF770BF70BD00BFD0570008145C002046
:102AC000F8B500F583511E46FFF79CFCDFF844C0C3
:102AD0000831002404F1840500EB45152B795F07CC
:102AE0000ED4DB060CD5D1E900739742B34107D26F
:102AF00043695CF824709F602B7943F004032B71C9
:102B00000134032C01F12001E4D1BDE8F840FFF7C6
:102B10007FBC00BFDC57000808B5FFF773FCFFF768
:102B2000C3FEBDE80840FFF773BC0000F8B5436979
:102B30000546986800F0E050B0F1E05F0F461FD006
:102B4000E8B1FFF75FFC05F583541034002606F169
:102B5000840305EB43131B791A0706D50136032EB0
:102B600004F12004F3D1012007E05B07F6D42146ED
:102B7000384600F07DFA0028F0D1FFF749FCF8BD97
:102B80000120FCE700F5805008B5FFF73BFCC06D65
:102B9000FFF71AFBFFF73CFC43090CBF01200020A4
:102BA00008BD0000F8B51D46002313700F46064609
:102BB0001446FFF7E7FF80F00100387025B1294681
:102BC0003046FFF7B3FF2070F8BD00002DE9B84193
:102BD0000C4615461F46804600F0F0F90B4621785A
:102BE000024609B9287850B14046FFF769FFFFF760
:102BF00093FF3B462A462146FFF7D4FF0120BDE85C
:102C0000B881000038B500F58054FFF7FBFB2A4D72
:102C100094F8C930EB5CDBB1012B27D0FFF7F8FB50
:102C200094F8C830DB0746D4002944D0FFF7EAFB0C
:102C300094F8C930EB5C33B3012B31D094F8C83031
:102C400043F0010384F8C830BDE83840FFF7E0BB2B
:102C50001A4B1A6C42F000721A641A6A42F000723F
:102C60001A621A6A22F000721A62D7E7134B1A6CC2
:102C700042F080621A641A6A42F080621A621A6A2A
:102C800022F08062F0E70321132001F0DDFA032136
:102C9000142001F0D9FA0321152001F0D5FACDE76F
:102CA00003213F2001F0D0FA0321402001F0CCFAAB
:102CB00003214120F1E738BDCC570008003802401D
:102CC0002DE9F04700F5805688B096F8C930022B00
:102CD00004468846174600F28C80DFF8109259F8B7
:102CE00023200AB949F82300D9F800A0C4F80C80C1
:102CF0002774BAF1000F6FD096F8C930012B11D1AB
:102D0000D9F8000003681B6B9847014650B9D9F801
:102D10000000FFF777FFD9F8000003683A465B68C8
:102D20004146984701212046FFF76CFFFFF76AFBF9
:102D30006269136823F0020313606269136843F049
:102D400001031360636900225A61FFF761FB96F883
:102D5000C930002B39D16169D1F8002242F001025B
:102D6000C1F800226169D1F8002222F47C5222F0DD
:102D70000E02C1F800226169D1F8002242F46062BB
:102D8000C1F800226269C2F814326269C2F80432E2
:102D900062696FF07841C2F80C126269C2F8403281
:102DA0006269C2F844326269C2F8B0326269C2F83C
:102DB000B432636944F20102C3F81C226269D2F89A
:102DC000003223F00103C2F8003201212046FFF750
:102DD0004FFD80B963694DE041F2D00002F0E0FBA5
:102DE000054610B15146FFF783FCC9F80050002D8D
:102DF00082D1002041E0F06DFFF7D4F9002504F501
:102E00008359AA4609F10809202200216846FEF7E5
:102E10009FFE02A8FFF7C8FBCDF818A06A4609EB91
:102E200005030DF1180E9446BCE80300F445186044
:102E30005960624603F10803F5D1DCF80000186020
:102E400020359CF804201A71602DDDD196F8C83029
:102E50006FF38203002586F8C8306A464146204653
:102E6000ADF80050ADF802508DF80450FFF7A4FC07
:102E7000636928B94FF400421A6008B0BDE8F087D2
:102E800061221A609DF802309DF803201B0612048F
:102E900002F4702203F040731343BDF80020C2F324
:102EA000090213439DF804201205022F02F4E002E8
:102EB0000CBF4FF000410021134362690B43D36103
:102EC000636913225A616269136823F00103136076
:102ED00029462046FFF7CCFC00283FF47BAF96F84C
:102EE000C83043F0020386F8C830C6E7145C0020FF
:102EF00008B50020FFF730FDBDE8084001F082B8BA
:102F000008B500210846FFF7BBFDBDE8084001F009
:102F100079B8000008B501210020FFF7B1FDBDE838
:102F2000084001F06FB8000008B50120FFF714FD5C
:102F3000BDE8084001F066B808B500210120FFF7A0
:102F40009FFDBDE8084001F05DB8000008B5012113
:102F50000846FFF795FDBDE8084001F053B80000B2
:102F600000B59BB0EFF3098168226846FEF7DEFDED
:102F7000EFF30583014B9B6BFEE700BF00ED00E024
:102F800008B5FFF7EDFF000000B59BB0EFF3098136
:102F900068226846FEF7CAFDEFF30583014B5B6BC1
:102FA000FEE700BF00ED00E0FEE700000FB408B54B
:102FB000029801F0E5FBFEE701F014BF01F0ECBE62
:102FC00013B56C4684E80600031D94E8030083E80B
:102FD0000500012002B010BD73B58568019155B19F
:102FE0001B885B0707D4D0E900369B6B9847019A92
:102FF000C1B23046A847012002B070BDF0B5866866
:1030000089B005460C465EB1BDF838305B070AD47E
:10301000D0E900379B6B98472246C1B23846B0478B
:10302000012009B0F0BD00220023CDE900230023D8
:10303000ADF808300A4603AB01F108061068516884
:103040001C4603C40832B2422346F7D11068206000
:103050009288A280FFF7B2FF0423ADF808302B68F6
:10306000CDE90001DB6B694628469847D8E70000A8
:1030700030B503680968DD0FB5EBD17F23F06044FC
:1030800021F060424FEAD1700BD0002BB8BFA40CE6
:103090000029B8BF920C944202D034BF0120002016
:1030A00030BD944205D1C1F38070C3F38073834275
:1030B000F6D194422CBF00200120F1E72DE9F04128
:1030C000456A15B94162BDE8F0814B6823F060475D
:1030D000C3F38A464FEAD37EC3F3807816EA230609
:1030E00038BF3E46AC462B465A68BEEBD27F22F034
:1030F00060440AD0002A18DAA40CB44217D19D42C9
:103100000FD10D60DEE71346EEE7A74207D102F0CC
:103110008044C2F3807242450BD054B1EFE708D22D
:10312000EDE7CCF800100B60CDE7B44201D0B4421B
:10313000E5D81A689C46002AE5D11960C3E700006B
:103140002DE9F047089D01F007044FEAD508224415
:1031500005F0070500EBD1004FF47F49944201D1FF
:10316000BDE8F08704F0070705F0070A57453E461B
:1031700038BF5646C6F10806111B8E4228BF0E46C0
:10318000E10808EBD50E415C13F80EC0B94029FAEE
:1031900006F721FA0AF1FFB28CEA010147FA0AF7B1
:1031A00039408CEA010C03F80EC034443544D5E7AD
:1031B00080EA0120082341F2210201B240000029E7
:1031C00080B203F1FF33B8BF504013F0FF03F4D1D6
:1031D0007047000038B50C468D18A54200D138BDA7
:1031E00014F8011BFFF7E4FFF7E7000042684AB15B
:1031F000136843604389818901339BB299424381BB
:1032000038BF83811046704770B588B020220446CD
:103210000D4668460021FEF79BFC20460495FFF70B
:10322000E5FF024658B16B46054608AE1C4603CC86
:10323000B44228606960234605F10805F6D11046BE
:1032400008B070BD082817D909280CD00A280CD05E
:103250000B280CD00C280CD00D280CD00E2814BF35
:103260004020302070470C207047102070471420F9
:10327000704718207047202070470000082817D991
:103280000C280CD910280CD914280CD918280CD9C2
:1032900020280CD930288CBF0F200E207047092021
:1032A00070470A2070470B2070470C2070470D2094
:1032B000704700002DE9F843078C072F04461ED9FC
:1032C000D0E9029800254FF6FF73C5F12006A5F15D
:1032D000200029FA05F108FA06F628FA00F0314331
:1032E0000143C9B21846FFF763FF0835402D034676
:1032F000EBD1E1693A46BDE8F843FFF76BBF4FF603
:10330000FF70BDE8F883000010B54B6823B9CA8A86
:1033100063F30902CA8210BD04691A681C60036164
:10332000C38A013BC3824A60EFE700002DE9F84FF2
:103330001D46CB8A0F46C3F30901052981469246F3
:103340000B4630D00020AAB207F11A049EB2042E18
:103350001FFA80F80FD8904503F1010306D3FB8ACA
:103360000A4462F30903FB8201201AE01AF80060A4
:10337000E6540130EAE79045F1D2A1F1050B1C2398
:103380007C68BBFBF3F203FB12BB1FFA8BF6002C2D
:1033900045D14846FFF72AFF044638B978606FF0F8
:1033A0000200BDE8F88F4FF00008E6E7002606604F
:1033B0007860ADB24FF0000B454510D90AEB080319
:1033C000221D13F8011B9155B1B208F101081B2908
:1033D0001FFA88F82BD0454506F10106F1D8FB8A83
:1033E000C3F30902154465F30903BCE7013292B245
:1033F0001C462368002BF9D16B1F0B441C21B3FB27
:10340000F1F301339BB29A42D3D2BBF1000FD0D17A
:103410004846FFF7EBFE20B9C4F800B0BFE7012231
:10342000E7E7C0F800B05E4620600446C1E74545C6
:10343000D5D94846FFF7DAFE08B92060AFE7C0F8F3
:1034400000B0002620600446B6E700002DE9F04FEA
:103450002DED028B1C4683B05B69019207468846BE
:10346000002B00F09A80238C2BB1E269002A00F037
:103470009480072B35D807F10C00FFF7B7FE0546FF
:1034800038B96FF00205284603B0BDEC028BBDE8E9
:10349000F08F14220021FEF75BFB228CE16905F11D
:1034A0000800FEF743FB208C013080B2FFF7E6FEF8
:1034B000FFF7C8FE013880B22084013028746369A8
:1034C000228C1B782A4403F01F0363F03F0348F06B
:1034D00000411372384669602946FFF7EFFD012568
:1034E000D1E700F10C034FF0000908EE103A4FF05D
:1034F000800A4E464D4618EE100AFFF777FE8346C7
:103500000028BED014220021FEF722FB002E3AD163
:10351000019BABF8083002220BF1080E1FFA82FC67
:103520000CF10100BCF1060F218C80B201D88E4253
:103530002BD3FFF7A3FEFFF785FE626912780138EF
:1035400002F01F028E4208BF4FF0400A42EA4912C1
:103550001BFA80F14AEA020A013048F0004281F881
:1035600008A08BF81000CBF8042059463846FFF726
:10357000A5FD238C0135B3422DB289F001094FF02E
:10358000000AB8D17FE70022C6E7E169895D0EF83D
:1035900002100136B6B20132C0E76FF0010572E7E2
:1035A000F8B515460E463022002104461F46FEF7A8
:1035B000CFFA069B6360B5F5001F079BA76034BF79
:1035C0006A094FF6FF72A36297B2E66104F1100038
:1035D00000239A4206D800230360A782E382238354
:1035E000E360F8BD0660013330462036F1E70000A5
:1035F00003781BB94BB2002BC8BF017070470000A5
:1036000000787047F8B50C46C969074611B9238C94
:10361000002B37D1257E1F2D34D8387828BB228C3B
:10362000072A2CD8268A36F003032BD14FF6FF70D9
:10363000FFF7D0FD20F001003102400441EA0561AE
:10364000400C41EA40254FF6FF7223462946384692
:10365000FFF7FCFE002807DD626913780133DBB257
:103660001F2B88BF00231370F8BD218A2D0645EA61
:10367000012505432046FFF71DFE0246E5E76FF0F2
:103680000300F1E76FF00100EEE7000070B58AB0CB
:10369000044616460021282268461D46FEF758FAC1
:1036A000BDF83830ADF810300F9B05939DF84030D1
:1036B0008DF81830119B07936946BDF84830ADF876
:1036C00020302046CDE90265FFF79CFF0AB070BDAF
:1036D0002DE9F041D36905460C4616460BB9138C0B
:1036E0005BBB377E1F2F28D895F80080B8F1000FFC
:1036F00026D03046FFF7DEFD3378210241EAC331A0
:1037000041EA0801338A41EA076141EA034102467E
:10371000334641F080012846FFF798FE00280ADD75
:103720003378012B07D1726913780133DBB21F2B79
:1037300088BF00231370BDE8F0816FF00100FAE745
:103740006FF00300F7E70000F0B58BB004460D46BC
:1037500017460021282268461E46FEF7F9F99DF813
:103760004C305A1E534253418DF800309DF8403082
:10377000ADF81030119B05939DF848308DF8183046
:10378000149B07936A46BDF85430ADF820302946A3
:103790002046CDE90276FFF79BFF0BB0F0BD00009D
:1037A000406A00B104307047436A1A684262026995
:1037B0001A600361C38A013BC38270472DE9F0415F
:1037C000D0F82080194E14461D464146002709B9FD
:1037D000BDE8F081D1E90223A21A65EB030396420A
:1037E00077EB03031ED2036A8B420DD1FFF78CFDEA
:1037F000036A1B68036203690B60C38A0161016A83
:10380000013BC3828846E2E7FFF77EFD0B68C8F8FC
:10381000003003690B60C38A0161013BC382D8F8A1
:103820000010D4E788460968D1E700BF80841E00F5
:103830002DE9F04F8BB00D46DDF8509014469B46B5
:103840008046002800F01981B9F1000F00F01581C1
:10385000531E3F2B00F21181012A03D1BBF1000F4F
:1038600040F00B810023CDE90833B8F81430B5EBF4
:10387000C30F4FEAC30703D300200BB0BDE8F08F9E
:103880002B199F42D8F80C303ABF7F1BFFB2274656
:103890001BB9D8F81030002B7AD0272D4ED8C5F19F
:1038A0002806B7424FF000032CBFF6B23E46009305
:1038B0002946D8F8080008AB3246FFF741FCA7EBD1
:1038C000060A35445FFA8AFAB8F8143003F1005357
:1038D000053BDB000493D8F80C3003932821039BAD
:1038E00013B1BAF1000F2CD1D8F8100040B1BAF1E1
:1038F000000F05D0009608AB5246691AFFF720FC6E
:1039000038B2002FB8D066070AD00AAB03EBD40157
:10391000624211F8083C02F00702134101F8083C2A
:10392000082C3CD9102C40F2B580202C40F2B780F6
:10393000BBF1000F00F09C80082334E0BA4600265B
:10394000C2E7049BE02B28BFE02306930B44AB4265
:10395000059314D95A1B03980096924534BF5246DA
:10396000D2B2691A08AB04300792FFF7E9FB079A55
:103970001644AAEB020A1544F6B25FFA8AFA049BCF
:10398000069A05999B1A0493039B1B680393A6E769
:103990000093D8F8080008AB3A462946AEE7BBF1D9
:1039A000000F13D00123B4EBC30F6CD0082C12D836
:1039B0009DF82030621E23FA02F2D50706D54FF09B
:1039C000FF3202FA04F423438DF820309DF82030B2
:1039D00089F8003051E7102C12D8BDF82030621E53
:1039E00023FA02F2D10706D54FF0FF3202FA04F4AF
:1039F0002343ADF82030BDF82030A9F800303CE773
:103A0000202C0FD80899631E21FA03F3DA0705D595
:103A10004FF0FF3202FA04F40C430894089BC9F8F3
:103A200000302AE7402C2BD0DDE90865611EC4F187
:103A30002102A4F1210326FA01F105FA02F225FA86
:103A400003F311431943CB0712D50122A4F120033C
:103A5000C4F1200102FA03F322FA01F1A24052421A
:103A600043EA010363EB430332432B43CDE90823CD
:103A7000DDE90823C9E90023FFE66FF00100FCE659
:103A80006FF00800F9E6082CA0D9102CB3D9202C2F
:103A9000EED8C3E7BBF1000FADD0022383E7BBF143
:103AA000000FBBD004237EE730B5012A144638BF8F
:103AB0000124402C85B028BF40240025012ACDE9EF
:103AC000025518D81B788DF8083063070AD004AB6C
:103AD00003EBD405624215F8083C02F0070293405C
:103AE00005F8083C009103462246002102A8FFF792
:103AF00027FB05B030BD082AE4D9102A03D81B885B
:103B0000ADF80830E1E7202A8DBFD3E900231B6818
:103B10000293CDE90223D8E710B5CB681BB98B60BF
:103B20000B618B8210BD04691A681C600361C38A33
:103B3000013BC382CA60F0E703064CBFC0F3C0304C
:103B40000220704708B50246FFF7F6FF022806D1AB
:103B50005306C2F30F2001D100F0030008BDC2F3E9
:103B60000740FBE72DE9F04F93B0CDE903230A6846
:103B700004461046FFF7E0FF022814BFC2F30626F2
:103B80000026002A0D46824680F2F28112F0C049DA
:103B900040F0EE81097B002900F0EA81022803D081
:103BA0002378B34240F0E781C2F3046306931046E2
:103BB00002F07F030593FFF7C5FF059B29444FEAF9
:103BC000834848EA0A4848EA4668CE78002300223B
:103BD000CDE90823F309834648EA0008029367D039
:103BE000059B009302466768534608A92046B847DC
:103BF000002800F0C381276A4FB9414604F10C0048
:103C0000FFF702FB074690B96FF0020054E03B69F2
:103C100098450DD03F68002FF9D1414604F10C00C2
:103C2000FFF7F2FA07460028EED0236A3B602762CE
:103C300097F817C006F01F08CCF3840CACEB080013
:103C40001FFA80FE0028B8BF0EF12000A8EB0C037D
:103C50001FFA83FED7E90221B8BF00B2002B0793F9
:103C6000BEBF0EF120031BB2079352EA010338D006
:103C7000039BDFF824E39A1A049B4FF0000C63EBDC
:103C8000010196457CEB01032BD36B7B97F81AE07F
:103C9000734519D1029B002B78D0012821DC78686C
:103CA000F8B9DFF8F0C2944570EB010316D337E0A2
:103CB000276A27B96FF00C0013B0BDE8F08F3B699D
:103CC0009845B5D03F68F4E7B24890427CEB0103D9
:103CD00001D30020F0E7029B002BFAD0079B0F2BAB
:103CE00017DCFA7DB30002F0030203F07C031343F8
:103CF000FB7539462046FFF707FB6B7BBB76029BC3
:103D00003BB9FB7DC3F38402013262F38603FB758A
:103D1000D0E76A7BBB7E9A42DBD1029B002B35D079
:103D2000B309022B32D0039BBB60049BFB601422BF
:103D300000210DA8FDF70CFF039B0A93049B0B9336
:103D40002B1D0C932B7BADF83EB0013BDBB2ADF8E5
:103D50003C30069B8DF84230059B8DF8433094F83B
:103D60002C308DF840A083F001038DF844308DF89D
:103D70004180A3680AA920469847FB7DC3F38403CA
:103D8000013303F01F039B02FB82A2E7FB7DC6F316
:103D90004012B2EBD31F40F0F480C3F384034345D9
:103DA00040F0F280029A2B7BB609002A4DD0F20730
:103DB0005DD4032B40F2EB80039BBB60049BFB6054
:103DC0002B7BAE1D033BDBB23246394604F10C00BF
:103DD000FFF7ACFA00280CDA39462046FFF794FAD0
:103DE000FB7DC3F38403013303F01F039B02FB82BB
:103DF0000AE7DDE90884AB883B834FF6FF73C9F11E
:103E00002000A9F1200228FA09F104FA00F0014388
:103E100024FA02F211431846C9B2FFF7C9F909F1B1
:103E20000809B9F1400F0346E9D1B8822A7B033A69
:103E3000D2B23146FFF7CEF9FB7DB882DA43C2F346
:103E4000C01262F3C713FB7543E786B92E1D013B11
:103E5000DBB23246394604F10C00FFF767FA00285E
:103E6000BADB2A7BB88A013AD2B23146E2E7F98A54
:103E7000C1F30901013B0429DAB25BD8281D0023F4
:103E800007F11B069A4208D910F801CB06F801C0C9
:103E9000013101330529DBB2F4D103990A91049968
:103EA0000B91934207F11B010C9138BF04337968E1
:103EB0000D9134BF55FA83F300230E93FB8AADF8BE
:103EC0003EB0C3F309031A44069B8DF84230059BAC
:103ED0008DF8433094F82C30ADF83C2083F001038A
:103EE0008DF8443000238DF840A08DF841807B6030
:103EF0002A7BB88A013A291DFFF76CF93B8BB882FF
:103F0000834203D1A3680AA92046984720460AA9FC
:103F1000FFF702FEFB7DBA8AC3F38403013303F08B
:103F20001F039B02FB823B8B9A420CBF00206FF069
:103F30001000C1E67B68002BAFD0052001E01C30EB
:103F400033461E68002EFAD1091A081D2E1D18448A
:103F500001EB090CBCF11B0F5FFA89F39DD89A4263
:103F60009BD916F8013B00F8013B09F10109EFE785
:103F70006FF00900A0E66FF00A009DE66FF00B00FD
:103F80009AE66FF00D0097E66FF00E0094E66FF082
:103F90000F0091E640420F0080841E00EFF309837A
:103FA00005494A6B22F001024A63683383F30988AA
:103FB000002383F31188704700EF00E0302080F386
:103FC000118862B60C4B0D4AD96821F4E0610904EE
:103FD000090C0A43DA60D3F8FC20094942F08072E8
:103FE000C3F8FC200A6842F001020A602022DA7756
:103FF00083F82200704700BF00ED00E00003FA05DF
:10400000001000E010B5302383F311880E4B5B687D
:1040100013F4006314D0F1EE103AEFF30984683C16
:104020004FF08073E361094BDB6B236684F30988EF
:1040300000F064FB10B1064BA36110BD054BFBE71C
:1040400083F31188F9E700BF00ED00E000EF00E026
:1040500043060008460600080268436811430160F1
:1040600003B1184770470000024AD36843F0C00309
:10407000D36070470010014010B5084C084A002179
:10408000204600F08BFA074BC4F85C3203F145433D
:1040900003F52D43C4F8603210BD00BF245C00203E
:1040A0006940000800100140234A037C002918BF22
:1040B0000A46012B30B5C0F868220CD11F4B98423C
:1040C00009D11F4B596C41F010015964596E41F0F0
:1040D000100159665B6EB2F904501468D0F8603272
:1040E000D0F85C12002D03EB5403B3FBF4F3BEBF16
:1040F00023F0070503F0070343EA450394888B6028
:10410000D38843F040030B61138943F001034B61F3
:1041100044F4045343F02C03CB6004F4A054002374
:104120000B60B4F5806F0B684B680CBF7F23FF23D7
:1041300080F8643230BD00BF30580008245C002095
:10414000003802402DE9F041D0F85C62F76833682E
:10415000DA0504469DB20DD5302383F311884FF460
:1041600080610430FFF778FF6FF4807333600023C1
:1041700083F31188302383F3118804F1040815F0C8
:104180002F033AD183F31188380615D5290613D5A4
:10419000302383F3118804F1380000F07BF9002804
:1041A0004EDA0821201DFFF757FF4FF67F733B4083
:1041B000F360002383F311887A0616D56B0614D5B5
:1041C000302383F31188D4E913239A420AD1236C54
:1041D00043B127F040073F041021201D3F0CFFF79B
:1041E0003BFFF760002383F31188D4F86822D3687B
:1041F00043B3BDE8F041106918472B0714D015F000
:10420000080F0CBF00214FF48071E80748BF41F050
:104210002001AA0748BF41F040016B0748BF41F0A9
:1042200080014046FFF718FFAD06736805D594F886
:1042300064122046194000F0E1F93568ADB29EE7FE
:104240007060B6E7BDE8F08100F1604303F56143BB
:104250000901C9B283F80013012200F01F039A403C
:1042600043099B0003F1604303F56143C3F88021D8
:104270001A607047F8B5154682680669AA420B466F
:10428000816938BF8568761AB54204460BD2184654
:104290002A46FDF74BFCA3692B44A361A3685B1B73
:1042A000A3602846F8BD0CD918463246FDF73EFCFF
:1042B000AF1BE1683A463044FDF738FCE3683B4405
:1042C000EBE718462A46FDF731FCE368E5E7000016
:1042D00083689342F7B51546044638BF8568D0E930
:1042E0000460361AB5420BD22A46FDF71FFC6369FB
:1042F0002B446361A36828465B1BA36003B0F0BD39
:104300000DD932460191FDF711FC0199E068AF1B10
:104310003A463144FDF70AFCE3683B44E9E72A46A4
:10432000FDF704FCE368E4E710B50A440024C36128
:10433000029B8460C0E90000C0E90511C160026110
:10434000036210BD08B5D0E90532934201D18268FD
:1043500082B98268013282605A1C42611970D0E9C8
:1043600004329A4224BFC3684361002100F08EFAF0
:10437000002008BD4FF0FF30FBE7000070B5302390
:1043800004460E4683F31188A568A5B1A368A26907
:10439000013BA360531CA36115782269934224BF9B
:1043A000E368A361E3690BB120469847002383F3D8
:1043B0001188284607E03146204600F057FA0028C9
:1043C000E2DA85F3118870BD2DE9F74F04460E46F9
:1043D00017469846D0F81C904FF0300A8AF311889F
:1043E0004FF0000B154665B12A4631462046FFF7CF
:1043F00041FF034660B94146204600F037FA0028E5
:10440000F1D0002383F31188781B03B0BDE8F08F4F
:10441000B9F1000F03D001902046C847019B8BF3F0
:104420001188ED1A1E448AF31188DCE7C0E90511F2
:10443000C160C3611144009B8260C0E9000001615A
:1044400003627047F8B504460D461646302383F3E1
:104450001188A768A7B1A368013BA36063695A1CD0
:1044600062611D70D4E904329A4224BFE36863613B
:10447000E3690BB120469847002080F3118807E0DC
:104480003146204600F0F2F90028E2DA87F311887D
:10449000F8BD0000D0E905239A4210B501D1826829
:1044A0007AB98268013282605A1C82611C78036981
:1044B0009A4224BFC3688361002100F0E7F92046D7
:1044C00010BD4FF0FF30FBE72DE9F74F04460E46D5
:1044D00017469846D0F81C904FF0300A8AF311889E
:1044E0004FF0000B154665B12A4631462046FFF7CE
:1044F000EFFE034660B94146204600F0B7F90028B8
:10450000F1D0002383F31188781B03B0BDE8F08F4E
:10451000B9F1000F03D001902046C847019B8BF3EF
:104520001188ED1A1E448AF31188DCE7026843689B
:104530001143016003B11847704700001430FFF7C2
:1045400043BF00004FF0FF331430FFF73DBF0000C2
:104550003830FFF7B9BF00004FF0FF333830FFF7B6
:10456000B3BF00001430FFF709BF00004FF0FF3168
:104570001430FFF703BF00003830FFF763BF0000BF
:104580004FF0FF323830FFF75DBF0000012914BF44
:104590006FF0130000207047FFF76EBD37B515466A
:1045A0000E4A026000224260C0E902220122044653
:1045B00002740B46009000F15C014FF480721430DD
:1045C000FFF7B2FE00942B464FF4807204F5AE71F3
:1045D00004F13800FFF72AFF03B030BD445800084B
:1045E00010B53023044683F31188FFF75DFD0223E5
:1045F0002374002080F3118810BD000038B5C36912
:1046000004460D461BB904210844FFF78FFF2946D5
:1046100004F11400FFF796FE002806DA201D4FF47F
:104620000061BDE83840FFF781BF38BD0023037546
:10463000826803691B6899689142FBD25A680360DB
:1046400042601060586070470023037582680369F8
:104650001B6899689142FBD85A68036042601060F9
:104660005860704708B50846302383F311880B7DE6
:10467000032B05D0042B0DD02BB983F3118808BD73
:104680008B6900221A604FF0FF338361FFF7CEFF82
:104690000023F2E7D1E9003213605A60F3E700002B
:1046A000FFF7C4BF054BD9680875186802681A601F
:1046B000536001220275D860FBF7AEBF905E002008
:1046C00030B50C4BDD684B1C87B004460FD02B4631
:1046D000094A684600F06CF92046FFF7E3FF009BAB
:1046E00013B1684600F06EF9A86907B030BDFFF756
:1046F000D9FFF9E7905E002065460008044B1A6870
:10470000DB6890689B68984294BF00200120704746
:10471000905E0020084B10B51C68D86822681A60AB
:10472000536001222275DC60FFF78EFF01462046B0
:10473000BDE81040FBF770BF905E0020044B1A6884
:10474000DB6892689B689A4201D9FFF7E3BF704724
:10475000905E002038B5074C074908480123002522
:104760002370656000F042FC0223237085F31188FA
:1047700038BD00BFF860002070580008905E00202F
:1047800008B572B6044B186500F0EAFA00F0A8FB11
:10479000024B03221A70FEE7905E0020F8600020B2
:1047A00000F046B9EFF3118020B9EFF30583302212
:1047B00082F311887047000010B530B9EFF305841B
:1047C000C4F3080414B180F3118810BDFFF7B6FFDD
:1047D00084F31188F9E700008B60022308618B8263
:1047E000084670478368A3F1840243F8142C0269D9
:1047F00043F8442C426943F8402C094A43F8242CDE
:10480000C26843F8182C022203F80C2C002203F88B
:104810000B2C044A43F8102CA3F12000704700BF72
:1048200031060008905E002008B5FFF7DBFFBDE809
:104830000840FFF735BF0000024BDB6898610F208E
:10484000FFF730BF905E0020302383F31188FFF71D
:10485000F3BF000008B50146302383F31188082018
:10486000FFF72EFF002383F3118808BD064BDB689A
:1048700039B1426818605A60136043600420FFF742
:104880001FBF4FF0FF307047905E002003689842D2
:1048900006D01A680260506099611846FFF700BFA1
:1048A0007047000010B503689C68A2420CD85C6891
:1048B0008A600B604C602160596099688A1A9A601E
:1048C0004FF0FF33836010BD1B68121BECE7000044
:1048D0000A2938BF0A2170B504460D460A26601918
:1048E00000F07EFB00F06AFB041BA54203D8751C98
:1048F0002E460446F3E70A2E04D9BDE87040012095
:1049000000F0B4BB70BD0000F8B5144B0D46D96182
:1049100003F1100141600A2A1969826038BF0A2236
:10492000016048601861A818144600F04BFB0A2784
:1049300000F044FB431BA342064606D37C1C281907
:1049400000F04EFB27463546F2E70A2F04D9BDE8B2
:10495000F840012000F08ABBF8BD00BF905E002047
:10496000F8B506460D4600F029FB0F4A134653F8EA
:10497000107F9F4206D12A4601463046BDE8F840E6
:10498000FFF7C2BFD169BB68441A2C1928BF2C4657
:10499000A34202D92946FFF79BFF2246314603482E
:1049A000BDE8F840FFF77EBF905E0020A05E0020CB
:1049B00010B4C0E9032300235DF8044B4361FFF703
:1049C000CFBF000010B5194C236998420DD0D0E933
:1049D0000032816813605A609A680A449A60002322
:1049E00003604FF0FF33A36110BD2346026843F814
:1049F000102F53600022026022699A4203D1BDE861
:104A0000104000F0E7BA936881680B44936000F0AF
:104A1000D5FA2269E1699268441AA242E4D91144A4
:104A2000BDE81040091AFFF753BF00BF905E002099
:104A30002DE9F047DFF8BC8008F110072C4ED8F8BC
:104A4000105000F0BBFAD8F81C40AA68031B9A4229
:104A50003ED81444D5E900324FF00009C8F81C4094
:104A600013605A60C5F80090D8F81030B34201D1F5
:104A700000F0B0FA89F31188D5E903312846984748
:104A8000302383F311886B69002BD8D000F096FA9D
:104A90006A69A0EB04094A4582460DD2022000F063
:104AA000E5FA0022D8F81030B34208D15146284622
:104AB000BDE8F047FFF728BF121A2244F2E712EBD5
:104AC000090938BF4A4629463846FFF7EBFEB5E7E5
:104AD000D8F81030B34208D01444211AC8F81C008A
:104AE000A960BDE8F047FFF7F3BEBDE8F08700BF5F
:104AF000A05E0020905E002000207047FEE70000CE
:104B0000704700004FF0FF3070470000BFF34F8F39
:104B1000024AD368DB03FCD4704700BF003C02406C
:104B200008B5094B1B7873B9FFF7F0FF074B1A69FB
:104B3000002ABFBF064A5A6002F188325A601A68DA
:104B400022F480621A6008BD00610020003C02402F
:104B50002301674508B50B4B1B7893B9FFF7D6FFC8
:104B6000094B1A6942F000421A611A6842F48052F5
:104B70001A601A6822F480521A601A6842F480623D
:104B80001A6008BD00610020003C02400B28F0B50F
:104B900016D80C4C0C4923787BB90C4D0E460C23CF
:104BA0004FF0006255F8047B46F8042B013B13F0EC
:104BB000FF033A44F6D10123237051F82000F0BDE1
:104BC0000020FCE734610020046100207C580008CC
:104BD000014B53F8200070477C5800080C207047A8
:104BE0000B2810B5044601D9002010BDFFF7CEFFF9
:104BF000064B53F824301844C21A0BB90120F4E7CD
:104C000012680132F0D1043BF6E700BF7C5800087F
:104C10000B2810B5044621D8FFF778FFFFF780FF77
:104C20000F4AF323D360C300DBB243F4007343F0B5
:104C300002031361136943F480331361FFF766FFC6
:104C4000FFF7A4FF074B53F8241000F045F9FFF7D6
:104C500081FF2046BDE81040FFF7C2BF002010BD15
:104C6000003C02407C580008F8B512F001031446DD
:104C700042D18218B2F1016F57D82D4B1B6813F047
:104C8000010352D02B4DFFF74BFFF323EB60FFF7EF
:104C90003DFF40F20127032C15D824F001046618CB
:104CA000244C401A40F20117B142236900EB010580
:104CB00024D123F001032361FFF74CFF0120F8BD4D
:104CC000043C0430E7E78307E7D12B6923F4407302
:104CD0002B612B693B432B6151F8046B0660BFF3DA
:104CE0004F8FFFF713FF03689E42E9D02B6923F033
:104CF00001032B61FFF72EFF0020E0E723F4407350
:104D0000236123693B4323610B882B80BFF34F8FC3
:104D1000FFF7FCFE2D8831F8023BADB2AB42C3D0A9
:104D2000236923F001032361E4E71846C7E700BFC6
:104D300000380240003C0240084908B50B7828B111
:104D40001BB9FFF7EDFE01230B7008BD002BFCD053
:104D5000BDE808400870FFF7FDBE00BF00610020FD
:104D600008B54FF400314FF0005000F0B7F8BDE83F
:104D700008404FF480314FF0805000F0AFB8000091
:104D80000846114600F02EBC012000F02BBC0000AC
:104D9000084600F045BC000070B582B0FFF702FD88
:104DA0000E4E054600F00AF93268904237BF0C4AB1
:104DB0000B49516814682EBFD1E90041013151609F
:104DC0000419034641F10001284601913360FFF7C1
:104DD000F3FC0199204602B070BD00BF386100208D
:104DE0004061002070B582B0FFF7DCFC104E054634
:104DF00000F0E4F83268904237BF0E4A0D4951681E
:104E000014682EBFD1E9004101315160041941F10C
:104E100000010346284601913360FFF7CDFC01995C
:104E20004FF47A7200232046FBF7E2F902B070BD1E
:104E3000386100204061002010B50244064BD2B218
:104E4000904200D110BD441C00B253F8200041F83C
:104E5000040BE0B2F4E700BF502800400F4B30B520
:104E60001C6F240407D41C6F44F400741C671C6F6F
:104E700044F400441C670A4C236843F480732360A5
:104E80000244084BD2B2904200D130BD441C00B263
:104E900051F8045B43F82050E0B2F4E700380240D8
:104EA000007000405028004007B5012201A90020F1
:104EB000FFF7C2FF019803B05DF804FB13B5044689
:104EC000FFF7F2FFA04205D0012201A900200194C2
:104ED000FFF7C4FF02B010BD70470000704700002C
:104EE00070470000074B45F255521A6002225A6083
:104EF00040F6FF729A604CF6CC421A60024B0122D7
:104F00001A707047003000404C610020034B1B7842
:104F10001BB1034B4AF6AA221A6070474C6100206D
:104F200000300040034B1A681AB9034AD2F87428BB
:104F30001A6070474861002000300240024B4FF079
:104F40008072C3F8742870470030024008B5FFF73C
:104F5000E9FF024B1868C0F3407008BD48610020AB
:104F600008B5FFF7DFFF024B1868C0F3007008BDFB
:104F70004861002070470000FEE700000A4B0B4824
:104F80000B4A90420BD30B4BDA1C121AC11E22F0B3
:104F900003028B4238BF00220021FCF7D9BD53F831
:104FA000041B40F8041BECE7485A0008D8610020B5
:104FB000D8610020D861002000F0D0B84FF08043C5
:104FC000586A70474FF08043002258631A610222EA
:104FD000DA6070474FF080430022DA6070470000CB
:104FE0004FF0804358637047FEE7000070B51B4BDD
:104FF00001630025044686B0586085620E46FEF7C0
:10500000DDFF04F11003C4E904334FF0FF33C4E9BA
:105010000635C4E90044A560E562FFF7CFFF2B46E3
:105020000246C4E9082304F134010D4A25658023B2
:105030002046FFF7D1FB0123E0600A4A0375009286
:1050400072680192B268CDE90223074B6846CDE948
:105050000435FFF7E9FB06B070BD00BFF860002023
:10506000AC580008B1580008E94F0008024AD36A5A
:105070001843D062704700BF905E00204B684360C9
:105080008B688360CB68C3600B6943614B690362C3
:105090008B6943620B6803607047000008B5264BBC
:1050A00026481A6940F2FF110A431A611A6922F46C
:1050B000FF7222F001021A611A691A6B0A431A631D
:1050C0001A6D0A431A651E4A1B6D1146FFF7D6FF7B
:1050D00002F11C0100F58060FFF7D0FF02F13801FA
:1050E00000F58060FFF7CAFF02F1540100F580600F
:1050F000FFF7C4FF02F1700100F58060FFF7BEFF0B
:1051000002F18C0100F58060FFF7B8FF02F1A80101
:1051100000F58060FFF7B2FF02F1C40100F5806086
:10512000FFF7ACFF02F1E00100F58060FFF7A6FF9A
:10513000BDE8084000F08EB8003802400000024090
:10514000B858000808B500F007FAFFF703FBBDE800
:105150000840FFF7E7BE0000704700000F4B1A6CD5
:1051600042F001021A641A6E42F001021A660C4AF9
:105170001B6E936843F0010393604FF0804353220A
:105180009A624FF0FF32DA6200229A615A63DA6063
:105190005A6001225A611A60704700BF003802400D
:1051A000002004E04FF0804208B51169D3680B403D
:1051B000D9B2C9439B07116107D5302383F3118806
:1051C000FFF7EEFA002383F3118808BD1F4B1A691D
:1051D0006FEAC2526FEAD2521A611A69C2F3080228
:1051E0001A614FF0FF301A695A69586100215A69F3
:1051F00059615A691A6A62F080521A621A6A02F098
:1052000080521A621A6A5A6A58625A6A59625A6A0B
:105210001A6C42F080521A641A6E42F080521A667A
:105220001A6E0B4A106840F480701060186F00F41A
:105230004070B0F5007F1EBF4FF4803018671967CB
:10524000536823F40073536000F05EB900380240E5
:1052500000700040334B4FF080521A64324A4FF4D2
:10526000404111601A6842F001021A601A68910701
:10527000FCD59A6822F003029A602A4B9A6812F0D1
:105280000C02FBD1196801F0F90119609A601A68E3
:1052900042F480321A601A689203FCD55A6F42F0C9
:1052A00001025A671F4B5A6F9007FCD51F4A5A607C
:1052B0001A6842F080721A601B4A53685904FCD580
:1052C000184B1A689201FCD5194A9A60194B1A6852
:1052D000194B9A42194B21D1194A1168194A914226
:1052E0001CD140F205121A60144A136803F00F0330
:1052F000052BFAD10B4B9A6842F002029A609A6829
:1053000002F00C02082AFAD15A6C42F480425A6424
:105310005A6E42F480425A665B6E704740F20572E4
:10532000E1E700BF00380240007000400854400729
:1053300000948838002004E011640020003C024002
:1053400000ED00E041C20F41074A08B5536903F080
:105350000103536123B1054A13680BB150689847A4
:10536000BDE80840FEF74EBE003C01405061002001
:10537000074A08B5536903F00203536123B1054A94
:1053800093680BB1D0689847BDE80840FEF73ABE75
:10539000003C014050610020074A08B5536903F002
:1053A0000403536123B1054A13690BB1506998474F
:1053B000BDE80840FEF726BE003C014050610020D9
:1053C000074A08B5536903F00803536123B1054A3E
:1053D00093690BB1D0699847BDE80840FEF712BE4B
:1053E000003C014050610020074A08B5536903F0B2
:1053F0001003536123B1054A136A0BB1506A9847F1
:10540000BDE80840FEF7FEBD003C014050610020B1
:10541000164B10B55C6904F478725A61A30604D582
:10542000134A936A0BB1D06A9847600604D5104AB4
:10543000136B0BB1506B9847210604D50C4A936B44
:105440000BB1D06B9847E20504D5094A136C0BB138
:10545000506C9847A30504D5054A936C0BB1D06CEA
:105460009847BDE81040FEF7CDBD00BF003C0140AD
:1054700050610020194B10B55C6904F47C425A61FC
:10548000620504D5164A136D0BB1506D984723057C
:1054900004D5134A936D0BB1D06D9847E00404D541
:1054A0000F4A136E0BB1506E9847A10404D50C4AF5
:1054B000936E0BB1D06E9847620404D5084A136FFF
:1054C0000BB1506F9847230404D5054A936F0BB175
:1054D000D06F9847BDE81040FEF794BD003C0140F6
:1054E0005061002008B50348FEF72CFEBDE80840D7
:1054F000FEF788BD245C002008B5FFF753FEBDE829
:105500000840FEF77FBD0000062108B50846FEF7FB
:105510009BFE06210720FEF797FE06210820FEF7D6
:1055200093FE06210920FEF78FFE06210A20FEF7D2
:105530008BFE06211720FEF787FE06212820FEF7A6
:1055400083FE07211C20FEF77FFEBDE808400C21EA
:105550002520FEF779BE000008B5FFF737FE00F002
:1055600009F8FFF719F8FFF7F7FDBDE80840FFF766
:1055700023BD00000023054A19460133102BC2E960
:10558000001102F10802F8D1704700BF50610020FD
:105590000B460146184600F02DB8000000F040B858
:1055A000012838BF012010B50446204600F030F82D
:1055B00030B900F007F808B900F00CF88047F4E7BC
:1055C00010BD0000024B1868BFF35B8F704700BF2F
:1055D000D061002008B5062000F084F80120FFF714
:1055E0008DFA0000024B0A4601461868FFF7C8BB57
:1055F0002423002010B5054C13462CB10A46014661
:105600000220AFF3008010BD2046FCE70000000040
:10561000024B01461868FFF7B7BB00BF24230020E8
:10562000024B01461868FFF7B3BB00BF24230020DC
:1056300010B501390244904201D1002005E0037801
:1056400011F8014FA34201D0181B10BD0130F2E741
:105650002DE9F041A3B1C91A17780144044603F1BA
:10566000FF3C8C42204601D9002009E00578BD426C
:1056700004F10104F5D10CEB0405D618A54201D1C3
:10568000BDE8F08115F8018D16F801EDF045F5D073
:10569000E7E700001F2938B504460D4604D9162354
:1056A00003604FF0FF3038BD426C12B152F8213028
:1056B0004BB9204600F030F82A4601462046BDE8A6
:1056C000384000F017B8012B0AD0591C03D116231B
:1056D00003600120E7E7002442F825402846984768
:1056E0000020E0E7024B01461868FFF7D3BF00BF78
:1056F0002423002038B5074D0023044608461146F0
:105700002B60FFF7FFF9431C02D12B6803B1236024
:1057100038BD00BFD4610020FFF7EEB9034611F891
:10572000012B03F8012B002AF9D17047696E206222
:105730006F6F746C6F616465720A0D00626C343057
:105740003500000053544D3332463F3F3F00535421
:105750004D3332463430780053544D333246343270
:10576000780053544D3332463434365858000000D4
:10577000012033000010410001105A0003105900AD
:105780000710310000000000445700081304000017
:105790004E57000819040000585700082104000063
:1057A0006257000840A2E4F1646891060041A3E555
:1057B000F2656992070000004261642043414E494E
:1057C0006661636520696E6465782E0000010000E3
:1057D0000001FF00006400400068004080000000FD
:1057E00000800000000080000000000000000000B9
:1057F0001D240008C12C0008CD2B00082D24000812
:1058000061240008692600083124000841240008AA
:10581000352400083D24000839240008912500089B
:1058200045240008C12F00085524000865250008FC
:1058300000960000000000000000000000000000D2
:105840000000000000000000594500084545000820
:10585000814500086D450008794500086545000848
:10586000514500083D4500088D45000863300000A3
:105870006C580008E85E0020F8600020004000003E
:105880000040000000400000004000000000010057
:105890000000020000000200000002000000020000
:1058A0000000020000000200000002006D61696E4D
:1058B0000069646C650000000000282800000000FA
:1058C000AAAABEAA00001424FFFF000000000000E6
:1058D0007007000001080A0800000000AAAAAAAA8E
:1058E00000000000FEFF0000000090009900900002
:1058F0001101000000000000AAAAAAAA00000000EE
:10590000EAFF0000000000000000000000000000AE
:1059100000000000AAAAAAAA00000000FFFF0000E1
:105920000000000000000000000000000000000077
:10593000AAAAAAAA00000000FFFF000000000000C1
:10594000000000000000000000000000AAAAAAAAAF
:1059500000000000FFFF0000000000000000000049
:105960000000000000000000AAAAAAAA000000008F
:10597000FFFF000000000000000000000000000029
:10598000000000000A00000000000000030000000A
:105990000000000000000000000000000000000007
:1059A00000000000000000000000000000000000F7
:1059B000000000006CA8FF7F010000000000000054
:1059C000F60300000000000000000F0000000000CF
:1059D00040420F00FE2A0100D2040000FF00000038
:1059E000245C0020282300200000000000000000AC
:1059F00000000000000000000000000000000000A7
:105A00000000000000000000000000000000000096
:105A10000000000000000000000000000000000086
:105A20000000000000000000000000000000000076
:105A30000000000000000000000000000000000066
:085A400000000000000000005E
:00000001FF
